:020000021000EC
:10000000905600203D260100AD2401003926010054
:100010003926010039260100392601003926010060
:10002000000000000000000000000000E50C0100DE
:100030003926010000000000FD0C0100650D0100E3
:1000400061160100D1150100F116010041170100F0
:10005000F11701003519010061160100D1150100E9
:10006000F116010041170100A1210100A9210100A1
:10007000B1210100051A0100051A0100711A0100E1
:100080005D2001005D2001005D200100C91F01000D
:10009000511F0100000000000000000000000000EF
:1000A0000000000000000000000000000000000050
:1000B0000000000000000000000000000000000040
:1000C0000000000000000000000000000000000030
:1000D0000000000000000000000000000000000020
:1000E0000000000000000000000000000000000010
:1000F0000000000000000000000000000000000000
:1001000000000000000000000000000000000000EF
:1001100000000000000000000000000000000000DF
:1001200000000000000000000000000000000000CF
:1001300000000000000000000000000000000000BF
:1001400000000000000000000000000000000000AF
:10015000000000000000000000000000000000009F
:10016000000000000000000000000000000000008F
:10017000000000000000000000000000000000007F
:10018000000000000000000000000000000000006F
:10019000000000000000000000000000000000005F
:1001A000000000000000000000000000000000004F
:1001B000000000000000000000000000000000003F
:1001C000FFFFFFFFFFFFFFFFFFFFFFFFFFFFFFFF3F
:1001D000FFFFFFFFFFFFFFFFFFFFFFFFFFFFFFFF2F
:1001E000FFFFFFFFFFFFFFFFFFFFFFFFFFFFFFFF1F
:1001F000FFFFFFFFFFFFFFFFFFFFFFFFFFFFFFFF0F
:1002000010B5054C237833B9044B13B1044800E012
:1002100000BF0123237010BD58060020000000001D
:100220009449010008B5034B1BB10349034800E0A2
:1002300000BF08BD000000005C06002094490100DA
:100240002DE9F8431D4CDFF894801D4E1D4F237897
:10025000002BFCD001254FF0000911221A4930462D
:1002600088F8005084F8009000F0C6FE0A2003F0E1
:10027000E5F92A461549304600F0BEFE0A2003F093
:10028000DDF903223946304600F0B6FE0A2003F0BD
:10029000D5F903223946304600F0AEFE05460A2065
:1002A00003F0CCF9002DD2D04846094B094A0A493F
:1002B00000F05AFB2846BDE8F88300BF7506002011
:1002C000EC0B002014060020000600207806002019
:1002D000E03D01008C3E0100003E01007A06002056
:1002E00010B50849084800F0BFFF044608B9204689
:1002F00010BD064B064A0749002000F035FB20469A
:1003000010BD00BF003F0100EC0B00201C3E0100AF
:100310007C3E0100003E010010B5064800F03EFFA3
:1003200000B910BD0020BDE81040034B034A04494A
:1003300000F01ABBEC0B0020443E0100703E0100AF
:10034000003E01000379114A042B13700AD0104BB0
:100350001A78012A08BF0020D1B202BF0D4A1870D6
:100360001170704710B40A4B846819780A484A1C07
:10037000D2B21A701A784454012AD1B203D10020A3
:10038000044A187011705DF8044B7047790600201C
:100390007406002075060020780600202DE9F84339
:1003A000D0E90295A9EB050890450446164609D9FF
:1003B0004068284403F0AAFCBFF35F8F3544E56032
:1003C000BDE8F8830F464068424628443544A5EB13
:1003D000090503F09BFC2A46606807EB080103F05F
:1003E00095FCBFF35F8FE560BDE8F8832DE9F84326
:1003F0004FF00009064617468846D0E902143369D3
:100400000D1B9C4203F1FF3224BF03F1FF3252184F
:10041000BD4228BF3D46121B954228BF1546706855
:1004200041462A46204403F071FCB1682C44A142A5
:1004300008BF0024A944A8447F1BBFF35F8FF4606A
:10044000002FDCD14846BDE8F88300BFF8B5174C53
:10045000A8220021204603F066FC4FF480660023AA
:1004600003211020124A134F134D21616161A261D3
:10047000E7612662A3626362E36222666566A06644
:100480002367E3666367BFF35F8F0C4B53219C4682
:10049000A3F10F0001E013F90119ACEB0302834251
:1004A000A154F8D1BFF35F8FF8BD00BF7C060020D8
:1004B000943E01003407002024070020AE3E0100D6
:1004C00038B5204B00EB400403EBC40EDEF82C40A3
:1004D000013000EB4000012C8C46154603EBC000B8
:1004E00005D0022C29D0ACB10024204638BDDEF85E
:1004F0002830DEF8242093429CBFDEF820401B19F0
:10050000013B9C1AAC4228BF2C462246FFF746FF0F
:10051000204638BDDEF82830DEF8242093429CBF08
:10052000DEF820105B18013B9B1A9D42DDD82A465D
:100530006146FFF733FF2C46D7E7BDE83840FFF7A9
:1005400055BF00BF7C06002030B50C4B0C461B7815
:1005500083B063B1EFF311854FF0200181F311886F
:100560002146FFF7ADFF85F3118803B030BDCDE91B
:100570000002FFF76BFFDDE90002EBE77C060020DD
:10058000D0E9012310B50446581C904207D82268D0
:10059000D1540346E16862680131C4E902019A421C
:1005A00000D010BD21682069FFF7CEFFA3689842F4
:1005B00015BF4FF0FF330023E360A36010BD00BF01
:1005C0002DE9F84F91420F46DDE90A94154683461E
:1005D0001E4660D30B464FF00108B3FBF5F39D4276
:1005E00008F10108F9D9B04538BFB04614F0010A46
:1005F00002D1B9F1000F35D1DBF80C30002B2FDB25
:10060000012402E0013E05FB04F4012EFAD8B7FBF9
:10061000F4F39D42F7D9214E06E0AC42B4FBF5F36A
:100620000CD31C46B7FBF3F3F156584604FB137783
:10063000FFF7A6FFDBF80C30002BEEDABAF1000F63
:100640000ED0B9F1000F0BD0C84509F1FF3907D220
:1006500020215846FFF794FFDBF80C30002BF0DA2E
:10066000BDE8F88FA30711D420240CE0214658469A
:10067000FFF786FFDBF80C3009F1FF39002BEFDBC9
:10068000B9F1000FBCD0C845F0D3B5E7002E0CBFC0
:1006900030242024F7E74FF00108A4E7B43E01001E
:1006A0002DE9F04F002340249BB00DF1280A80462D
:1006B0000D461746CDE905A4CDE90733DFF8A4922E
:1006C000099005E005A8FFF75BFF0898002866DBA6
:1006D00015F9011B002965D02529F3D129460026EB
:1006E0000D4611F9013BA3F123020D2A08D8DFE8DA
:1006F00002F0480707070707070745074B070742A8
:10070000A3F13002D2B2092A4FF000040BD804EB57
:10071000840403EB440415F9013F303CA3F130029B
:10072000D2B2092AF3D92E2B00F0CB80002395F901
:10073000001001E015F9011F21F00402682AF9D028
:10074000252924D05839CAB2202A23D8202921D8D3
:10075000DFE801F03320202020202020202020ADC1
:1007600060202020202020202020202052202042F5
:10077000203F2020330046F00206B1E746F0040691
:10078000AEE746F00806ABE746F00106A8E705A885
:10079000FFF7F6FE0898002805F1010598DA1BB06E
:1007A000BDE8F08F08980028F9DD079A002A40F08C
:1007B000A08010441BB0BDE8F08F1022386801689B
:1007C0000430CDE90046386005A8FFF7F9FE089827
:1007D000E1E70A223868F2E73B681A1D3A601C68B4
:1007E00005E005A8FFF7CCFE08980028D3DB14F934
:1007F000011B0029F5D1CDE7082300243868102219
:1008000001680430386005A8CDE90034FFF7D8FE50
:100810000898C0E73A680120D2F800B004323A6084
:100820008BEAEB72A2EBEB72092A08DD1146A9FBF9
:1008300002C2632900F101004FEAD202F6DC9842BD
:10084000024638BF1A46039264B3BBF1000F58DB6F
:10085000710756D4B20700D523B3F00722D40CB3E6
:10086000039AA2421ED205A820210293FFF788FE18
:10087000089A013C002A10468DDB029B002CEFD128
:10088000BBF1000F3FDB71074BD406F003010229D7
:100890004ED005A859460A22CDE90046FFF790FE42
:1008A000089878E7089A002A1046E9DA73E73B6867
:1008B00005A81A1D93F900103A60FFF761FE089829
:1008C00069E795F901100135A1F13003DBB2092B7D
:1008D0004FF000033FF630AF03EB830301EB43031C
:1008E00015F9011F303BA1F13002D2B2092AF3D928
:1008F00022E751464046FFF727FEDDE90720104476
:1009000058E7013CA6E72D2105A80293FFF738FE22
:10091000029BCBF1000B089A002A1046FFF63BAF72
:10092000B3E72B2105A80293FFF72AFE029BF2E70B
:10093000002BAED1A4B10399A1420CD205A830215D
:100940000293FFF71DFE089A013C002A1046FFF6AD
:1009500022AF029BEEE7002A1046FFF61CAF98E795
:10096000002496E7CDCCCCCC0EB400B582B003AB5E
:1009700053F8041B01AA0193FFF792FE02B05DF841
:1009800004EB03B0704700BF10B51B4982B01B4891
:1009900000F0F8FA194800F027FB03240022184B56
:1009A00011460120009401F0C1FF0023154A1946A9
:1009B00010601A4602F036F8FFF792FC58B9FFF7BC
:1009C0003FFC044670B90D4C204600F00DFB0120A1
:1009D00002F034FEF8E702460B490020FFF7C4FF9F
:1009E00000BEECE7FFF798FC224607490020FFF71E
:1009F000BBFF00BEE7E700BF343F01001C0C002036
:100A0000380B0020340B0020C43E0100022800D027
:100A10007047024B0248596801F0B2B9E43E010048
:100A2000800B00202DE9F0410125DFF8DC80324FFA
:100A3000324E334C384600F0D7FAEFF310820123E0
:100A400083F31088D8F8003013B94021F370F170A7
:100A5000D8F800300133C8F8003082F310882949F3
:100A6000D4F83C310B402B4343F00403C4F83C3131
:100A7000D4F810310B402B4343F00403C4F8103179
:100A8000A36F0B402B4343F00403A367D4F8142156
:100A90000A402A4342F00402C4F81421D4F8A021E9
:100AA0000A402A4342F00402C4F8A021E36F0B403D
:100AB0002B4343F00403E367EFF31082012383F336
:100AC0001088D8F8003023B1D8F80030013BC8F8BE
:100AD0000030D8F8003013B98021F370F17082F340
:100AE00010884FF47A71322001F0ACFC0A2085F0B6
:100AF000010502F0A3FD9DE71C0C0020000D08403D
:100B000000080840FE3FFEFFEC110020704700BFC8
:100B100000B583B0019000F06FF8019803B05DF864
:100B200004EBFFF731BF00BF30B501240D480E4A7A
:100B300003680E4D85B01919CDE901250C4B0160F4
:100B40004FF400620B490C48009402F043FB0B4B3E
:100B5000186008B105B030BD014605B0BDE83040B1
:100B600000F048B8E00C0020905600208C0B0020CC
:100B7000FC3E0100F03E0100110B0100880B00203B
:100B8000FFF7C4BF00B583B0019000F035F80198BD
:100B900003B05DF804EBFFF745BF00BF30B50A2492
:100BA0000D480E4A03680E4D85B0591CCDE901254C
:100BB0000C4B01604FF480720B490C48009402F01A
:100BC00009FB0B4B186008B105B030BD014605B0FC
:100BD000BDE8304000F00EB8E00C00209076002018
:100BE000300C0020543F0100483F0100850B0100FC
:100BF0002C0C002000BE704738B5164C4FF0FF316A
:100C0000206802F09DF8012803D000212068FFF73A
:100C1000F1FF114B1A7802B138BD01220F4D1A7045
:100C2000FFF7AEFF2B68013B2B60002BF4D00023B5
:100C3000206819461A4601F0F5FE0128F2D000217D
:100C40002068FFF7D7FF2B68013B2B60002BEED10C
:100C500038BD00BF940C0020900C0020E00C002058
:100C600038B500230C4D0D4C01214FF480700C4A17
:100C70002B60237001F09AFE0A4B186038B1FFF721
:100C80008DFFFFF751FF02F0B7FB002038BD014692
:100C9000FFF7B0FFF3E700BFE00C0020900C00204E
:100CA000980C0020940C0020802330B4034D044C99
:100CB00005600C60136030BC704700BFE41000207A
:100CC000E40C0020802330B4034D044C05600C601C
:100CD000136030BC704700BF44110020E40E0020B8
:100CE00000BEFEE71EF0040F0CBFEFF30880EFF329
:100CF0000980014908470000890D01000F4B196860
:100D0000EFF309821EF0100F08BF22ED108A22E9CE
:100D1000F04FEFF30B8342F8043D0A604FF01000F0
:100D200080F31188BFF34F8FBFF36F8F02F0C4FCC5
:100D30004FF0000080F3118800F002B8CC130020BF
:100D4000074801680A6802CA81F30B88B2E8F04FCD
:100D50001EF0100F08BFB2EC108A82F309887047AA
:100D6000CC13002010B5EFF31184102383F3118806
:100D700002F092FC18B14FF08052024B5A6084F39B
:100D8000118810BD00ED00E008B5836913F8023C3E
:100D9000022B02D0032B04D808BDBDE80840FFF7A2
:100DA000CFBF40F20541024B024A034801F042FB2B
:100DB00010420100D04201002442010070B440F80A
:100DC000203C4FF080756FF002040346084E283136
:100DD00022F0010240F80C6C40F8045C40F8244C0E
:100DE00040F8082C43F8481D184670BC704700BFF7
:100DF000E10C010008B5EFF31181102383F3118892
:100E00000A4A13680133012B136000D008BD084A59
:100E1000084B11605B68C3F30803002BF6D040F267
:100E2000F641054B054A064801F004FBA8110020D5
:100E3000A411002000ED00E04C420100BC42010082
:100E400024420100094A08B513683BB1013B136015
:100E50001BB9074B1B6883F3118808BD40F2FF41A3
:100E6000044B054A054801F0E5FA00BFA81100202F
:100E7000A411002094420100A84201002442010074
:100E800000B3194A00B5938918B2002899B21ADB49
:100E9000BFF34F8F30BFBFF36F8F62B6BFF36F8F5B
:100EA00072B600280CDA4AF202500F4AB2F8FE334A
:100EB000A2F8FE039BB243F425439181A2F8FE33CE
:100EC0005DF804FB70474AF2025E4FF0000CB2F886
:100ED000FE33A2F8FEE39BB243F42543A2F80CC014
:100EE000A2F8FE33D4E700BF00E0014008B572B6B7
:100EF00002F0C8FA0120FFF7C3FF62B6BDE8084060
:100F000002F0C8BA0D4B0E4A1B68A2FB03239B09D3
:100F1000013BB3F1807F0FD24FF0E0224FF0F00C95
:100F20000020072110B4074C536184F823C05DF8FA
:100F3000044B906111617047704700BF7813002027
:100F4000D34D621000ED00E0F02208B50B4B83F8A2
:100F50002220FFF7D7FF0A4A536B43F04043536305
:100F600062B6BFF36F8FEFF3148C2CF0040C8CF38C
:100F70001488BFF36F8F02DF00BEFDE700ED00E0D5
:100F800000EF00E084460B79144ADB01DBB230B598
:100F900093714B7891F802E01B014FEA0E3E0EF47C
:100FA000405EDBB243EA0E030D4D91F800E00D4CBC
:100FB00015F80E5091F803E005F003054FEA0E2EE8
:100FC0000EF4407E43EA0E032B4353804B790020FE
:100FD000DB01DBB21372CCF8004030BD00340840B6
:100FE000E4420100544457000020FF22014B1870D6
:100FF0001A7070470034084070B5C369DB699C7B88
:10100000F4B9046AA37803F07B03A370837803F038
:101010000303D21A0B440261A278C360837842F0C2
:10102000800203F00303022BA27003D00B78002090
:10103000E37070BD0B88002043F47E43E38170BDF4
:10104000EFF3108C012484F310881D4C25682DB912
:101050004FF0400E1B4EF57086F803E02568013511
:1010600025608CF31088B3F810C093F80FE04FEAB6
:101070001C23154D1B0153FA8CFC55F82C3023F022
:10108000011323F44043BEF1000F08BF43F00103F6
:1010900043F0040345F82C30EFF31085012383F36C
:1010A0001088236813B12368013B236023681BB9B0
:1010B0008026044CE370E67085F31088A1E700BF3A
:1010C000EC110020000D084000080840F0B5846ACB
:1010D00085B005460F4694466E46B4B194E80F00BD
:1010E00086E80F00EB6920461B7884F804C0236073
:1010F000EB6AC4E902736B6A9847AC6A1CB196E864
:101100000F0084E80F0005B0F0BD3446EAE700BFE9
:10111000C269937B03B9704710B4EFF310800123C9
:1011200083F310881A490B681BB91A4CE3704023EB
:10113000E3700B6801330B6080F31088108A164C43
:10114000030A1B0153FA80F054F82030D27B23F0BD
:10115000011323F44043002A18BF43F0010343F076
:10116000040344F82030EFF31082012383F3108846
:101170000B6813B10B68013B0B600B681BB9802037
:101180000449CB70C87082F310885DF8044B704737
:10119000EC110020000D08400008084070B5002444
:1011A0000122036A44609C70C3692D4993F905309C
:1011B0004FEA531C03F01F0302FA03F30CF1200C57
:1011C00041F82C30BFF34F8FBFF36F8FC36993F992
:1011D0000B304FEA531C03F01F0302FA03F30CF128
:1011E000200C41F82C30BFF34F8FBFF36F8FC369D2
:1011F00093F907304FEA531C03F01F0302FA03F37D
:101200000CF1200C41F82C30BFF34F8FBFF36F8FE0
:10121000C36993F909304FEA531C03F01F0302FA24
:1012200003F30CF1200C41F82C30BFF34F8FBFF3C8
:101230006F8FEFF3108182F310884FF00043C6697F
:10124000084A96F800C0556823FA0CF32B43536004
:10125000536881F31088C069FFF75AFF204670BDBC
:1012600000E100E0004008400022F8B501260D46EC
:101270000B78027003F5800303F58C531B020362A5
:101280004B69C16143628378896966F301038262B5
:10129000C16283706B78044623B90222837862F3BB
:1012A00001038370012695F90B10C44A4B0901F024
:1012B0001F07203306FA07F7A87A42F82370BFF316
:1012C0004F8FBFF36F8FBE4B01F1C00753F827C09C
:1012D0006FF3104C43F827C053F82770B94F000143
:1012E00002EB010CC0B28CF8000347F8214095F9DD
:1012F000051028794FEA511C01F01F0E0CF1200C4B
:1013000006FA0EFE42F82CE0BFF34F8FBFF36F8F4B
:1013100001F1C00C53F82CE06FF3104E43F82CE0B1
:1013200053F82CC0000102EB010CC0B28CF8000392
:1013300047F8214095F90710A8794FEA511C01F0B0
:101340001F0E0CF1200C06FA0EFE42F82CE0BFF343
:101350004F8FBFF36F8F01F1C00C53F82CE06FF388
:10136000104E43F82CE053F82CC0000102EB010CA6
:10137000C0B28CF8000347F8214095F90910287A8B
:101380004FEA511C01F01F0E0CF1200C06FA0EFE64
:1013900042F82CE0BFF34F8FBFF36F8F01F1C00C09
:1013A00053F82CE06FF3104E43F82CE053F82C3038
:1013B0000301DBB20A4482F8003347F82140E069B8
:1013C000FFF7A6FEEFF3108086F310884FF0004180
:1013D0007D4B2E785A68F14022EA01025A605B6820
:1013E00080F31088002240F21921236A40F219206C
:1013F0009A701A715A729A72DA725A832A7821FA9A
:1014000002F2D60744BF4022DA740622E9691A774D
:101410002A786E78D040AF78EA78C50748BF4FF495
:1014200078404FEAC20248BF9882032E42EA071270
:1014300000F0BF80002E14BFF220E220D2B21A705A
:1014400098710A7B082A0EBF0A22520002F002029B
:101450005A734A788878D201400100F02000D2B255
:101460000243002018720D78A81E012840F29880CF
:10147000D2B2DA714A68907856785870187866F364
:1014800001001870D07812789874D87902F05C0254
:1014900000F0A3000243DA710020E2692061A0613C
:1014A000E060606192F90560454B06F1C00253F8B7
:1014B000227060F3104743F8227053F82220BFF3E4
:1014C0005F8F4FF0010E7209920006F01F0602F1C5
:1014D000604202F561420EFA06F6C2F880611660BB
:1014E000E26992F90B6006F1C00253F8227060F3D2
:1014F000104743F8227053F82220BFF35F8F720920
:10150000920006F01F0602F160420EFA06F602F59E
:101510006142C2F880611660E26992F907C00CF17D
:10152000C00253F8226060F3104643F8226053F87B
:101530002220BFF35F8F4FEA5C1292000CF01F0C69
:1015400002F160420EFA0CF602F56142C2F88061C7
:101550001660E26992F9092002F1C00653F826707C
:1015600060F3104743F8267053F82630BFF35F8FBF
:1015700053099B0002F01F0203F160430EFA02F2CE
:1015800003F56143C3F880211A60236A05F003055F
:1015900045F070054A899D700C4B22816360F8BD4F
:1015A000FF20022D08BF42F01002D2B25870DA714B
:1015B00072E7F22042F0400240E700BF00E100E0A5
:1015C00000600040F011002000400840554943539E
:1015D00030B4EFF30383103B1F4A5BB203F1C00149
:1015E00052F821006FF3104042F8210052F82120F8
:1015F0001A4A52F82300C3691B691BB103691BB166
:1016000030BC704703697BB9D0E908240021937886
:1016100003F07F0343F004039370C160002CEFD00C
:1016200030BC8022FFF752BD827802F0030102290C
:10163000C1680BD0046A91F800C084F803C002F0BE
:1016400003029B1A0A44C0E90323D8E70C88056A01
:1016500044F47E44EC81F2E700600040F011002089
:1016600010B582B0EFF30383103B1F4A5BB203F166
:10167000C00152F821006FF3104042F8210052F8E7
:1016800021201A4A52F82340A27802F00303022BC9
:10169000236A0CBF198A5979A3690CBFC1F30801E9
:1016A000C9B2019143B9636AB3B10422204602B0C2
:1016B000BDE81040FFF70ABD02F0030201A960690E
:1016C00002F024FBD4E90521A37803F003031A44B4
:1016D000C91AC4E9052109B102B010BD636A002B23
:1016E000FAD00122E2E700BF00600040F0110020C4
:1016F00038B5EFF30383104A103B5CB252F8245024
:10170000D5E90702937803F07B039370FFF700FDA0
:101710006B6A23B1022200212846FFF7D7FC074A53
:1017200004F1C00352F823106FF3104142F8231064
:1017300052F8233038BD00BFF01100200060004097
:10174000F8B5EFF303831A4A103B5CB252F8245009
:10175000AB7803F00303022B2B6A0CBF1E8A5E7961
:1017600019790CBFC6F30806F6B201F03807C906AE
:1017700004D51A7FD20758BF47F04007187900F008
:10178000C7001871E869FFF7C3FC6B6A23B13A46DA
:1017900031462846FFF79AFC064A04F1C00352F886
:1017A00023106FF3104142F8231052F82330F8BD94
:1017B000F01100200060004030B5836B83B0044618
:1017C0000A466D468BB193E8030085E80300E16BA0
:1017D0001A711846626B19609047A36B1BB195E8AC
:1017E000030083E8030003B030BD2B46EFE700BFE2
:1017F00010B4EFF30383103B4C4A5BB2C03352F892
:1018000023106FF3104142F8231052F82330EFF306
:101810000383474A103B5BB252F823301A69117BAD
:10182000C1F3000CC90724D493F82C1093F82A00B4
:10183000884212D093F82D0008B102294CD093F8B9
:1018400028000131D07093F82B2083F82C10013A36
:1018500083F82B205DF8044B7047196A69BB93F835
:101860002E1000293BD052200121D07283F8301075
:10187000F0E793F82D10B1B193F8311099B9507980
:1018800099695A6A885493F82E00D3E908120139ED
:101890000132C3E9081228B3522001221969C87223
:1018A00083F83020D6E70024012054211C6283F8FD
:1018B0002F005DF8044BD172704793F82D00A8B14A
:1018C00093F83100D8B1012983F831C028D0FF2422
:1018D00082F80AC0D470BDE75223D372BAE754230A
:1018E000D372B7E754221B69DA72B3E7586A9C696E
:1018F0000139245C0130C3E90810D470AAE750799B
:1019000099695A6A8854D3E90821013A0131012AB8
:10191000C3E9082103D0FF241A69D4709AE71A6931
:101920002023FF249372D47094E700BF006000402E
:10193000F011002010B5EFF30383304A103B5BB287
:1019400052F823000269D37A6FF3C303D37290F87D
:101950002F308BBB90F82A1003F0FF0C90F82C303E
:1019600099421CD1036A5BB990F82D1090F8304071
:10197000002914BF02210321BCB3D372FFF71CFF5F
:10198000EFF30383103B1E4A5BB2C03352F82310BF
:101990006FF3104142F8231052F8233010BD8BB181
:1019A00090F82D4004F0FF0134B3022B10D190F8D1
:1019B00029C04CF0010C0BE0F0230121D372FFF79A
:1019C000FBFEDDE701290CBF90F828C090F829C084
:1019D0000021D17282F803C090F82B20013380F8E7
:1019E0002C30531E80F82B30CAE7F023D372937843
:1019F00003F0CF039370C1E78C46E9E7F0110020B4
:101A000000600040F0B583B0EFF30383164A103B4B
:101A10005CB252F82450EF68BFB16A682B6992F942
:101A20000D206E46121B18BF0122DBB193E80300A4
:101A300086E803001A706A6918465A60B8472B692D
:101A40001BB196E8030083E80300084A04F1C003D1
:101A500052F823106FF3104142F8231052F823304C
:101A600003B0F0BD3346E5E7F01100200060004010
:101A7000EFF303830120084A103B5BB252F82310B6
:101A8000064A0872C03352F823106FF3104142F82F
:101A9000231052F823307047F011002000600040FE
:101AA0000022034610461A60704700BF0B0A10B4AC
:101AB0001B01064C53FA81F154F821300020C3F386
:101AC00040035DF8044B1370704700BF00080840E6
:101AD000090A490101F1804101F500214B6800200C
:101AE00013807047090A490123EA020C01F1804181
:101AF0001A4001F5002142EA0C4200208A6070473A
:101B00000123C8B283404AB91A040B0A5B0103F1EE
:101B1000804303F5002300209A6070479AB2F4E7EF
:101B2000090A490101F1804101F5002110B40C6856
:101B300002EA030C4CEA040C62EA030202EA0C0219
:101B400000205DF8044B0A60704700BF090A490194
:101B500001F1804101F500214B680020C3F30F43E0
:101B600013807047012310B44FEA112C4FEA4C1C2C
:101B70000CF1804C0CF5002CDCF80440C9B203FADF
:101B800001F18BB201EA1441C91AB1FA81F1490994
:101B900000205DF8044B1170704700BF090A49012D
:101BA00023EA020C01F180411A4001F5002142EACA
:101BB0000C420020CA607047012A14D04FF48030D4
:101BC0000B0A5B0103F1804303F5002310B4CAB292
:101BD000DC6800FA02F22243120C120400205DF8C5
:101BE000044BDA6070470B0A5B0103F1804303F595
:101BF0000023D868C9B28A40024392B20020DA605A
:101C0000704700BF2DE9F84F0388002B3DD00746F1
:101C10004FF00008DFF8A4A040F202427B684FEAD0
:101C2000C80559198988002491424FF00109224EB4
:101C300009D00134032C23D07B6836F8022B5919C4
:101C400089889142F5D15B5909FA04F203F0B8533F
:101C5000B3F1807F5FFA82FB19D09AF8BB341A4245
:101C6000E7D0012000F0BEFC9AF8BB34012023EA43
:101C70000B0B8AF8BBB4013400F084FC032CDBD1DD
:101C80003B8808F101084345C6D8BDE8F88F9AF8AB
:101C9000BB2409FA04F313425FFA83FBC9D1012084
:101CA00000F0A0FC9AF8BB3401204BEA030B8AF841
:101CB000BBB400F067FCBCE72243010000E0014038
:101CC000F8B50446FFF79EFFEFF31082012383F37C
:101CD0001088284E33681BB92749CB704023CB703E
:101CE00033680133336082F3108823887BB36268E2
:101CF00003F1FF3E1FFA8EFE02F108011F4C01EBBB
:101D0000CE0E08E0D2B21B0113448E450A4644F8B9
:101D100023001CD008311068928810F4803F4FEAED
:101D20001223EFD0130AD2B202EB031C54F82C702A
:101D30001B01134420F480356FF310478E4544F89F
:101D40002C700A4644F82C5044F82300E2D1EFF3FB
:101D50001082012383F31088336813B13368013B89
:101D6000336033681BB980200349CB70C87082F39D
:101D70001088F8BDEC110020000D08400008084054
:101D800008B5034B03600846FFF79AFF002008BD23
:101D900054524F5008B50846FFF792FF002008BD87
:101DA00070B5012684B002AB68460C461546019317
:101DB000ADF80060ADF80C100292FFF723FFEFF3CF
:101DC000108286F310881D490B681BB940261C48F9
:101DD000C370C6700B6801330B6082F31088EA038E
:101DE0004FEA1423E4B219D41B01164A234442F8E3
:101DF0002350EFF31082012383F310880B6813B193
:101E00000B68013B0B600B681BB980200C49CB7041
:101E1000C87082F31088002004B070BD094A04EB3A
:101E2000031052F820601B016FF3104642F8206047
:101E300025F4803642F82060D7E700BFEC1100207F
:101E4000000D08400008084030B5C36B83B004465D
:101E50000A466D468BB193E8030085E803001A70CB
:101E6000216C1846A26B59609047E36B1BB195E853
:101E7000030083E8030003B030BD2B46EFE700BF4B
:101E80004FF4964310B483B0019343681A7802BBB1
:101E90004AF680232C4AA2F88430B2F884309BB2F0
:101EA000802B08D110E0019B013B0193B2F88430F4
:101EB0009BB2802B08D0019B002BF4D14FF4FA7019
:101EC00003B05DF8044B7047002003B05DF8044B8D
:101ED000704793F911301D4A03F1C00152F82140B7
:101EE0006FF3104442F8214052F82110BFF35F8F86
:101EF000012103F01F045B099B0003F1604303F51C
:101F0000614301FA04F4C3F880411C60436893F90B
:101F1000130000F1C00352F823406FF3104442F85D
:101F2000234052F82330BFF35F8F43099B0000F03A
:101F30001F0203F1604301FA02F203F56143C3F8A3
:101F400080211A60A4E700BF00E07F4000600040ED
:101F500030B583B0EFF30383184919480A7C103B6E
:101F60005CB250F824501007D1F880100AD4D3B2D4
:101F70001A061ED4DB061ED511F4405F14BF0721DC
:101F8000062100E004212846019101F011FF0D4ACD
:101F900004F1C00352F823006FF3104042F823000D
:101FA00052F823302846019903B0BDE83040FFF7CE
:101FB0004BBF0521E7E70721E5E700BF00E07F40D1
:101FC000F01100200060004038B5EFF30383103BB0
:101FD0001F4A5BB203F1C00152F821001D4C6FF3A0
:101FE000104054F8235042F8210052F8213095F85F
:101FF0003440012C1DD0022C11D0174B93F8D43053
:10200000012B0CBF0324022401F0E2FE002385F81B
:10201000343021462846BDE83840FFF715BF2C6B09
:10202000002CF1D02846BDE838400022402101F0C4
:10203000B7BE2B6B002BE7D000220421284601F00D
:10204000BFFE00B938BD2846BDE8384001F0B0BE3B
:1020500000600040F011002000E07F402DE9F041D9
:1020600084B0EFF30383103B1F4A5BB203F1C0015E
:1020700052F821006FF3104042F8210052F821205D
:102080001A4A52F82340D4E901261278337A012AF9
:10209000DBB204D1F42203F0F00332723372D4F8CD
:1020A0001080B8F1000F15D0656901AFCDB195E88A
:1020B000070087E807009B0644BF00232B71A36934
:1020C00028462B60C04763691BB197E8070083E887
:1020D0000700337ADBB203F00F03337204B0BDE8BC
:1020E000F0813D46E7E700BF00600040F0110020AE
:1020F000F0B5C769054689B017B3BE466C468C4635
:10210000BEE80F003E460FC49EE80F0084E80F00B3
:10211000BCE80F000FC69CE80F008EE80F00AB690B
:1021200038469847EB694BB19C46EE46BEE80F0037
:10213000ACE80F009EE80F008CE80F0009B0F0BD7E
:102140000F46ECE710B588B0EFF30383124A103B5B
:102150005BB252F82320EFF30383103B0F495BB2CD
:10216000C03351F823406FF3104441F8234051F835
:102170002330002153688DF802001C88106A93698F
:10218000ADF8004001908DF808101BB1104669466B
:10219000FFF7AEFF08B010BDF01100200060004056
:1021A0000020FFF7CFBF00BF0120FFF7CBBF00BF6C
:1021B00030B589B0EFF30384444B103C64B253F85C
:1021C000240043685A6992F90620A2422FD00B22BC
:1021D0008DF802201B880268ADF8003092F8A63016
:1021E00003F03F011F29C3F305051ADC8DF80850E1
:1021F00092F8AC306FF3000382F8AC30026A836966
:10220000019213B16946FFF773FF314BC03453F8A5
:1022100024206FF3104243F8242053F8243009B0EF
:1022200030BD01F00F03033B8DF80830E0E70A21D1
:1022300000228DF802101B888DF808200568ADF883
:102240000030B5F8A020B5F8A2C095F8A41092B25D
:102250000B0703EB0C4313441FFA8CFEC9B293FA2D
:10226000A3F36BB3B3FA83FCBCF10F0F634609DC35
:10227000012303FA0CF322EA0302A5F8A0208DF84B
:1022800008C0BBE7BCF11B0F09DC01220CF00F03F7
:1022900002FA03F32EEA030EA5F8A2E0EFE701220B
:1022A00003F0030E02FA0EF221EA02011C2B4FFA90
:1022B0008CFC85F8A410E2D91F3B8DF808309DE70F
:1022C00001F0FE01202385F8A410F5E7F0110020AD
:1022D00000600040064B074993F826001A6A51F83F
:1022E0002030C2F302620449D3400B60704700BF44
:1022F00000E001403806002078130020F8B54AF2CB
:10230000035001233649374AA1F8FE03A2F80431ED
:10231000B2F804319BB2002BFAD101214FF40045F1
:102320004FF0090C304C314F2D486760304F314E23
:10233000E760314F6761A2F8001190F8262026600F
:10234000A5602561056A54F82220C5F30265EA40BC
:102350002A4D2A6080F8133480F8A2C090F88034A7
:10236000002B36D000231E4981F8813481F8803457
:1023700081F8323091F83C301A07FBD542F2010067
:102380000023174A088581F82A3092F83C309B06D2
:10239000FBD50120052313494FF0F10C81F81C01F6
:1023A0001749116282F8263092F82630106A54F8E4
:1023B0002310C0F30260C14000242960F0204FF4D4
:1023C0002541104B83F80CC01C721873A2F8FE1341
:1023D000F8BD80F8801440F2C44000F033F8C1E743
:1023E00000E0014000C001403806002000127A00E1
:1023F00000366E010024F400803DCD0B78130020E0
:10240000211202210020004010B50024064B0120BB
:1024100083F8284000F0E6F8044B012083F8BB4421
:10242000BDE8104000F0AEB80030084000E00140C8
:10243000704700BF00BEFEE7A0F101000028FBD1FD
:10244000704700BF10B54FF47A72164C164B2468D3
:102450004FF0000EB3FBF4FC4FF0FF3300FB01F133
:10246000A1FB020483427EEB040407D3B0FBFCF023
:10247000800880B1BDE81040FFF7DEBF4FEA8C0C4A
:10248000B1FBFCF1A1FB02128B427EEB020203D3F3
:1024900008460028EED110BD1846BDE81040FFF7F1
:1024A000CBBF00BF7813002000CA9A3B70B5002450
:1024B0000A4B0B4EB3F84051ADB225FA04F3DB07DB
:1024C000E0B203D556F8243003B198470134102CFC
:1024D000F3D1024BA3F8305170BD00BF0060004043
:1024E000AC11002030B56FF0FF0585B0032000F07F
:1024F00079F84FF0FF311F4C1F48224685640023B6
:102500000125CDE90111039104F1C00E32F8020F4B
:10251000590960B104A800EB810151F80C0C03F0DB
:102520001F0C05FA0CFC20EA0C0041F80C0C72455B
:1025300003F10103EAD10199104B0F4A03201167FF
:10254000C3F8801202995167C3F884120399916706
:10255000C3F8881200F016F80023094803F1C002FE
:1025600034F8021F0133602B40F82210F6D105B079
:1025700030BD00BF4E4101000080004000E100E09E
:1025800000600040EFF31081012383F31088124BA9
:1025900033F8102092B22AB133F81020013A92B2E7
:1025A00023F8102033F810309BB293B90B4A10B4C3
:1025B000B2F8FE330A4C9BB234F8100043F42543C2
:1025C00023EA0003A2F8FE3381F310885DF8044B80
:1025D000704781F3108870477013002000E00140BD
:1025E0002843010030B4EFF31081012383F31088F6
:1025F0000E4A32F810309BB26BB90D4C0D4DB4F849
:10260000FE3335F810C09BB243EA0C0343F4254374
:102610009BB2A4F8FE3332F8103001339BB222F89B
:10262000103081F3108830BC704700BF7013002059
:1026300000E001402843010000BE704708B500F0EB
:1026400003F8FEF70DFBFEE74FF4700270B5254B63
:10265000254CC3F8882000209C60FEF7D7F9FFF7CF
:102660004DFE0120FEF7D2F92368A3F5804383F3E2
:102670000A881E481E4A0021121A01F054FB1D4808
:102680001D4A1E49121A01F041FB1D4D1D4B5B1BDB
:10269000002B07DD00249E1055F8043B01349847B9
:1026A000A642F9DCFFF716FEFFF7AEFE0320FFF7A8
:1026B00099FF00234FF6FF70134903F1080201331D
:1026C000092B21F81200F8D10320FFF75BFF02204D
:1026D000FEF79CF9FFF706FFBDE870400020FFF70A
:1026E000A7BE00BF00ED00E000000100580600207A
:1026F00090160020000000203806002098490100B4
:102700003006002034060020000D08404FF0FF3155
:10271000002200F10803C0E90131C0E9033302607F
:10272000704700BF00230361704700BF30B40D68DD
:102730006B1C10D000F108031C465B681A68AA42A3
:10274000FAD902684B60013299608C60616008615F
:1027500030BC0260704704696368F2E7036910B433
:10276000D0E901125C688A6051600021844208BF90
:102770005A601A680161013A1A6018685DF8044BE2
:10278000704700BF70B51646026C0446856B52B1A7
:102790006EB9406801F0BAFA6368216CA2680B4414
:1027A0009342636017D201350020A56370BDC068F5
:1027B00001F0ACFA226CE36851429B1A2268E36094
:1027C000934202D2A3680B44E360022EEBD1012DA9
:1027D00038BF0125E8E72368013500206360A56361
:1027E00070BD00BF70B50546FEF704FB95F8453097
:1027F0005CB2002C14DD05F1240603E0631EDAB29E
:102800005CB26AB16B6A5BB1304600F0EDFF002844
:10281000F4D001F0B5F8631EDAB25CB2002AF1D14F
:10282000FF2385F84530FEF70DFBFEF7E3FA95F838
:1028300044305CB2002C14DD05F1100603E0631E89
:10284000DAB25CB26AB12B695BB1304600F0CCFF02
:102850000028F4D001F094F8631EDAB25CB2002ACA
:10286000F1D1FF2385F84430BDE87040FEF7EABAA5
:1028700070B5002848D0C36B0446002B3DD0056CD2
:10288000A5FB0335002D38D10E46FEF7B3FAD4E987
:102890000F30A563FF2500FB03F32268181A62605E
:1028A0001344024484F84450C4E9023284F8455089
:1028B000BEB923691BB9FEF7C5FA012070BD04F14A
:1028C000100000F091FF0028F5D04FF08052124B1D
:1028D0005A60BFF34F8FBFF36F8FFEF7B3FA01203B
:1028E00070BD04F11000FFF711FF04F12400FFF7A1
:1028F0000DFFFEF7A7FA012070BD40F24511074B0E
:10290000074A0848FFF796FD4FF48871064B044AC2
:102910000448FFF78FFD00BF00ED00E06C430100AD
:102920002C460100384301006443010030B583B0F8
:1029300053B310B30D461C4682B1F1B14823019345
:10294000019B482B12D1E0630121204622602564BF
:10295000019BFFF78DFF204603B030BD69B94823C6
:102960000193019B482B08BF2246ECD040F26B112B
:10297000094B0A4A0A48FFF75DFD4FF4C171094B44
:10298000064A0748FFF756FD40F25911064B034A25
:102990000348FFF74FFD00BFA043010010460100B0
:1029A00038430100BC4301009043010030B583B0BF
:1029B000B0B188420D4613D31446FAB148230193AF
:1029C000019B482B13D1002322600121D0632046B4
:1029D0002364019AFFF74CFF2046A56303B030BD86
:1029E0004FF43E71094B0A4A0A48FFF723FD40F2B3
:1029F0006B11094B094A0748FFF71CFD40F25911BA
:102A0000074B064A0348FFF715FD00BFC843010006
:102A1000EC45010038430100A043010010460100CD
:102A2000904301002DE9F04784B00192002800F0A6
:102A3000A880044689461F46002900F08880022F9E
:102A400003D1E36B012B40F0A38000F09FFF05460C
:102A5000002851D000254FF00008DFF850A107E012
:102A6000FEF7F0F92046FFF7BDFE00F013FD01254B
:102A7000FEF7C0F9A36BE06B83424BD3022F49D022
:102A8000019E002E6ED0002D40D0FEF7DBF900F045
:102A9000F9FCFEF7AFF994F84430FF2B08BF84F837
:102AA000448094F84530FF2B08BF84F84580FEF73A
:102AB000C9F902A801A900F019FF002858D1FEF7B2
:102AC00099F9A26BE36B9A42CAD1FEF7BBF901995F
:102AD00004F1100000F038FE2046FFF783FE00F0FE
:102AE000D9FC0028C3D14FF08053CAF80430BFF39B
:102AF0004F8FBFF36F8FBAE7019B002BABD040F233
:102B00003331274B274A2848FFF794FC02A800F0EE
:102B1000E1FEBAE73A4649462046FFF733FE636ACC
:102B200033B958B9FEF78EF9012004B0BDE8F0873B
:102B300004F1240000F058FE0028F3D04FF080523A
:102B40001A4B5A60BFF34F8FBFF36F8FEAE7036CE6
:102B5000002B3FF474AF40F22F31154B114A12484D
:102B6000FFF768FCFEF76EF9304604B0BDE8F08769
:102B70002046FFF737FE00F08DFC002004B0BDE8D2
:102B8000F08740F22E310B4B064A0748FFF752FC04
:102B90004FF44C71084B034A0348FFF74BFC00BF4E
:102BA00078440100D84501003843010000ED00E001
:102BB000D043010064430100284401002DE9F043A3
:102BC00085B00192002800F0A88004460E46002936
:102BD00072D000F0DBFE00285BD0FEF70BF9A56B8E
:102BE000002D73D1019B002B38D002A800F072FE9B
:102BF0002F46DFF8449104F12408FEF723F900F092
:102C000041FCFEF7F7F894F84430FF2B08BF84F836
:102C1000447094F84530FF2B08BF84F84570FEF7E8
:102C200011F901A902A800F061FEE8B9FEF7E2F887
:102C3000A36B33BBFEF706F94046019900F084FD13
:102C40002046FFF7CFFD00F025FC60B3FEF7D2F879
:102C5000A56B002D3AD1019B002BCED1FEF7F2F8E7
:102C6000002005B0BDE8F0832046FFF7BBFD00F073
:102C700011FCFEF7BFF8A36B002BEFD0FEF7E2F8D4
:102C8000E4E7FEF7DFF82046FFF7ACFD00F002FCBA
:102C9000DCE7019B002BA0D040F25A51224B234A83
:102CA0002348FFF7C7FB4FF08053C9F80430BFF348
:102CB0004F8FBFF36F8FC9E7036C002B89D040F2B1
:102CC00055511C4B194A1A48FFF7B4FB226C5AB1F4
:102CD000E168A36811449942E16028BF2168304649
:102CE00028BFE16001F012F8013DA56323692BB90B
:102CF000FEF7A8F8012005B0BDE8F08304F110004C
:102D000000F072FD0028F3D04FF080520A4B5A6059
:102D1000BFF34F8FBFF36F8FEAE740F25151074B7C
:102D2000024A0348FFF786FB78440100C8450100CA
:102D3000384301005845010000ED00E04C4501001A
:102D40002DE9F04184B00191002800F09C80036CD3
:102D50000446002B40F0908000F018FE002869D057
:102D6000FEF748F8A56B002D5AD1019B002B38D0F7
:102D700002A800F0AFFD2E46DFF8248104F12407FD
:102D8000FEF760F800F07EFBFEF734F894F844306C
:102D9000FF2B08BF84F8446094F84530FF2B08BF30
:102DA00084F84560FEF74EF801A902A800F09EFDE8
:102DB000E8B9FEF71FF8A36B33BBFEF743F83846BC
:102DC000019900F0C1FC2046FFF70CFD00F062FB0A
:102DD000002839D0FEF70EF8A56B0DBB019B002B28
:102DE000CED1FEF72FF8002004B0BDE8F0812046D8
:102DF000FFF7F8FC00F04EFBFDF7FCFFA36B002B88
:102E0000EFD0FEF71FF8E5E7FEF71CF82046FFF7C6
:102E1000E9FC00F03FFBFDF7EDFFA56B002DDDD0D9
:102E2000013DA5632369C3B9FEF70CF8012004B086
:102E3000BDE8F081019B002B92D040F2EC51154B84
:102E4000154A1648FFF7F6FA4FF08053C8F80430D9
:102E5000BFF34F8FBFF36F8FBCE704F1100000F09A
:102E6000C3FC0028E0D04FF080520D4B5A60BFF3F6
:102E70004F8FBFF36F8FD7E740F2E751094B064AF8
:102E80000648FFF7D7FA40F2E351074B024A0348DE
:102E9000FFF7D0FA78440100B4450100384301003F
:102EA00000ED00E0CC4401004C45010038B530B3E2
:102EB00079B100252B46154C04EBC30252684FEA4A
:102EC000C30C824213D02DB101330A2BF4D1C5E9D2
:102ED000001038BD54F8332072B101330A2BF8D0FA
:102EE00004EBC30252684FEAC30C9042F2D104EBE8
:102EF0000C05C5E90010ECE704EB0C05E4E740F62F
:102F0000C821034B034A0448FFF794FA7C130020BE
:102F100030430100404601003843010070B50446CB
:102F20000E461546FDF766FF94F84430FF2B04BFAC
:102F3000002384F8443094F84530FF2B04BF00236D
:102F400084F84530FDF77EFFA36B23B12046BDE832
:102F50007040FFF747BC04F124002A46314600F0D8
:102F600011FC2046BDE87040FFF73CBCF8B50546B3
:102F70001B4B1C4E1C6830680F460430FFF7EEFBFD
:102F80006B1C17D0336864195C6007D3164B186844
:102F90003168BDE8F8400431FFF7C8BB134B18682F
:102FA00031680431FFF7C2FB114B1A68A24288BF97
:102FB0001C60F8BD002FE5D00E4B30685A683168B0
:102FC00082609068C8603168906804314160306800
:102FD0003468196804300131906019606361F8BD8C
:102FE0008C150020CC130020D4130020D013002017
:102FF000401500206415002080B54FF08058124C19
:10300000124E134D134FDFF850900EE0FDF7F2FE15
:10301000F368D8680430FFF7A1FB2B68013B2B60F5
:103020002368013B2360FDF70DFF2368002BEDD1E2
:103030003B68012B05D9C9F80480BFF34F8FBFF35C
:103040006F8FFDF753FFF0E708150020781500207B
:1030500004150020D813002000ED00E02DE9F04F0A
:10306000504B83B01E6801361E60002E6FD04E4B51
:103070000193019B1B689E4260D34C4F3B681868CC
:1030800000287BD00020B24686468146DFF83C818E
:10309000474DDFF83CB147E05A69D3E902148C6030
:1030A00061605168181D8142116808BF5460013980
:1030B000C3F814E011609A6A7AB1D3E90741A160BC
:1030C0001E6A5168746003F11804A142116808BFB8
:1030D00056600139C3F828E01160DA6AD8F80010A8
:1030E00002EB820405EB840C8A42DCF8041088BFF2
:1030F000C8F800208E689960DE6055F824600136BB
:1031000000968E6870608860C3F814C0009B45F814
:103110002430DBF800103B68C96A1B688A4228BF6C
:103120004FF00109002B28D03B68DB68DB685A6848
:103130009245B1D2019B48461A6000E000201D4B29
:103140001B68002B18BF012003B0BDE8F08F174BA0
:103150001A681268F2B9184A186811681960174994
:1031600010600A6801320A601A6812685AB94FF092
:10317000FF330D4A019213607BE748464FF0FF335F
:10318000019A1360DBE71B68074ADB6801921B6842
:1031900013606EE740F6C721094B0A4A0A48FFF759
:1031A00049F900BF8C15002040150020D0130020E5
:1031B000D813002090150020D413002044150020BF
:1031C000884601006C4801005C460100141500208F
:1031D000CC1300202DE9F04383B00C9CDDE90A5E9E
:1031E000BEF1000F00F0C280002C00F0D4801F461A
:1031F00060230193019B602B40F0C68002F1804C5C
:103200000CF1FF3C0EEB8C0C0646019BC4F830E041
:103210002CF00709002900F0828001F1FF3C01F148
:103220000F0304F1330E1CF9011F0EF8011F09B141
:103230009C45F8D1002384F843300E2D00F29D8088
:1032400004F104084046E562FFF76CFAC5F10F058A
:1032500004F11800FFF766FAA561002532463B46E7
:10326000216B4846246164626564A564E564256554
:103270006565A56584F85C50FDF7A0FD2060FDF74D
:10328000B9FD484A484E1368013313603368002B78
:103290003DD0464F3B68002B31D0E36A444D454951
:1032A00045480A6801320A6002689A4238BF0360E2
:1032B00003EB830305EB830042689B009168A260E7
:1032C000E1609168C1F80480C2F80880EA58606142
:1032D0000132EA50FDF7B6FD3B6863B13268E36A3C
:1032E000D26A9A4207D24FF08052344B5A60BFF3F1
:1032F0004F8FBFF36F8F204603B0BDE8F083336874
:103300002B4DDA6AE36A9A4298BF3460C7E73460AB
:103310001368012B06D0E36A254D244FBFE784F8DC
:1033200034108AE7224D2F4605F596793846143732
:10333000FFF7ECF94F45F9D1DFF8B890204F484638
:10334000FFF7E4F93846FFF7E1F91E48FFF7DEF929
:103350001D48FFF7DBF91D48FFF7D8F91C4BC3F8F0
:1033600000901C4B1F60E36A104F98E740F24A211F
:10337000194B1A4A1A48FFF75DF840F29731194B7A
:10338000194A1748FFF756F840F25321174B134AD2
:103390001348FFF74FF840F24B21154B0F4A1048E6
:1033A000FFF748F804150020CC130020601500201A
:1033B000D8130020101500201415002000ED00E0A7
:1033C0002C1500204C1500207815002064150020D5
:1033D000D0130020D413002000470100C84801008A
:1033E0005C46010058470100B04801003C4701001D
:1033F000204701001815002030B5002489B007AA25
:1034000006A905A8CDE90544FDF74EFCDDE9050157
:103410002346CDE90110079A114912480094FFF79D
:10342000D9FE78B100F03CFC01280FD180F3108860
:103430004FF0FF350C490D4A0D4B0D6010601C60BC
:10344000FDF782FD0B4B1B6809B030BD0130F9D18F
:103450004FF40461084B094A0948FEF7EBFF00BF2F
:1034600088470100F92F0100401500206015002059
:103470008C1500202C060020904701009048010088
:103480005C460100024A136801331360704700BFB5
:103490000C1500202DE9F04F5A4F83B03B68002BEC
:1034A00000F0A880FDF7A6FC3B68013B3B60D7F825
:1034B00000E0BEF1000F40F08D80534B1B68002BE5
:1034C00000F08880DFF864C1DCF80030002B00F0E9
:1034D0008E80DFF85CB1CDF804E0DE46DFF8548181
:1034E0004A4EDFF85491DCF80C30DB689A6AD3E975
:1034F000070181604860506803F11804A04208BFCA
:103500005160019999621168013911605A69D3E9D2
:10351000021088604160516803F1040A5145116846
:1035200008BF506001391160DA6AD8F8001002EB68
:10353000820006EB800B8A42DBF8041088BFC8F8D3
:1035400000208C689960DC6056F820408D6801345A
:10355000C5F804A0C1F808A0C3F814B046F820408C
:10356000D9F80030DB6A9A4224BF0123CEF800303C
:10357000DCF80030002BB6D1254BF3461A681268F0
:10358000002A2FD01A68234BD26812681A60224D85
:103590002C6894B1012606E0FFF760FD08B1CBF876
:1035A0000060013C08D03B68002BF5D02B68013C43
:1035B00003F101032B60F6D12C60DBF800304BB136
:1035C0004FF08052154B5A60BFF34F8FBFF36F8F90
:1035D000012000E000200190FDF734FC019803B0C9
:1035E000BDE8F08F4FF0FF320A4B1A60CFE7DFF8EB
:1035F00040B0CCE740F6B301094B0A4A0A48FEF74F
:1036000019FF00BF0C15002004150020D81300205E
:10361000D0130020401500204815002000ED00E0E8
:10362000A4470100804801005C4601004C150020C1
:103630009015002014150020CC13002008B550B1BF
:103640000D4B196881B91A6801321A60FFF78EFCB8
:10365000FFF720FF38B94FF08052084B5A60BFF394
:103660004F8FBFF36F8F08BD40F24951044B054A9D
:103670000548FEF7DFFE00BF0C15002000ED00E05E
:103680006C470100A44801005C460100014B18682A
:10369000704700BF8C150020054B1B680BB9FFF766
:1036A000DDBC044A0020136801331360704700BF7B
:1036B0000C150020481500201B4B1B681BB1012274
:1036C0001A4B1A607047194A10B5194C13602368D9
:1036D000184903EB830292008A58980042B9E3B17B
:1036E000013B03EB830251F822209800002AF6D018
:1036F000184401EB800C6146DCF804200831526864
:103700008A42CCF8042008BF5268D16808BFCCF8C0
:103710000420094A1160236010BD40F60241074BA6
:10372000074A0848FEF786FE0C1500209015002079
:1037300014150020D8130020CC130020BC47010032
:10374000584801005C46010010B558B10C46094BC1
:1037500019681831FEF7EAFF2046BDE81040012144
:10376000FFF704BC40F61C41034B044A0448FEF733
:1037700061FE00BFCC130020CC470100404801008F
:103780005C460100F8B50346F8B1134C5D68084685
:10379000002A11462268AE68D561226818BF4FF032
:1037A000FF30166226682268276802F118041A683A
:1037B000183602F1010CAA685660AC60BB62C3F80F
:1037C00000C0BDE8F840FFF7D1BB40F65241034BC3
:1037D000034A0448FEF72EFECC130020CC4701001C
:1037E000204801005C460100F8B5C368DB68002B87
:1037F00057D0D3E9070100259A6A81604860506874
:1038000003F11804A04208BF51601168284801392B
:103810009D6211600268B2B126494A689068C3E9A6
:10382000072090684460086894600130DA6A996201
:10383000214B08601B68DB6A934230D201231F4A88
:1038400018461360F8BD5A69D3E902108860D86839
:103850001E1D416051681A4CB142116808BF50608A
:103860000139184811600168DA6A8A4202EB820164
:1038700004EB810788BF02607868890085689860DA
:10388000DD60655805F1010C85686E6086605F61DA
:10389000094B44F801C01B68DB6A9342CED3002079
:1038A000F8BD40F68241084B084A0948FEF7C2FDC0
:1038B0000C1500204C150020CC1300209015002082
:1038C000D813002014150020D84701000448010037
:1038D0005C460100034A044B12681B68C0E90023E0
:1038E000704700BF441500208C150020F0B583B050
:1038F00058B30D4681B30446FDF77CFA2B681A4A8B
:10390000581C11681FD0D4E90060DFF870C0DCF8E3
:103910000070BE420AD0884208D8002301202B60E4
:103920000190FDF78FFA019803B0F0BD0F1ABB426A
:10393000F3D95B1ADCF80010126803442B600020F6
:10394000C4E90012ECE70020EAE740F6FD41074B2E
:10395000074A0848FEF76EFD40F6FE41064B044A52
:103960000448FEF767FD00BF8C150020E847010002
:10397000DC4801005C460100F447010044150020CA
:103980000122014B1A60704790150020054B1B68FF
:1039900033B1054B1B68002B0CBF02200020704781
:1039A00001207047601500200C150020F0B5124C66
:1039B00083B0FDF71FFA256825B103B0BDE8F040DC
:1039C000FDF740BA0D4F0E4E3846FEF79FFE3046CB
:1039D000FEF79CFE0B4A009517600B4A0C211660FF
:1039E0000A200A4B0A4AFEF7A1FF20600028E4D013
:1039F0000849FFF75BFAE0E788160020141600205C
:103A0000281600209415002098150020401600204C
:103A10009C150020F448010070B50446164605E0E8
:103A2000934218D82046236A98472946A369721AF8
:103A30005D182CBF01200020B54265602461EFD9DC
:103A4000B14201D90028EDD0064B211D1868BDE810
:103A50007040FEF76BBE044B211D1868BDE8704036
:103A6000FEF764BE9415002098150020104A70B52A
:103A700012680546D2680E46D468201DFEF76EFE19
:103A800094F824305A0708D423F0010384F8243032
:103A90002046236ABDE87040184720463246294632
:103AA000FFF7BAFF2046236ABDE87040184700BF01
:103AB000941500202DE9F047714D724E724C734FF2
:103AC000DFF8D88184B02B68D3F800A0BAF1000FDA
:103AD00000F0A880DB68D3F800A0FFF7D3FCFFF765
:103AE000D5FD33688146834240D88245306040F23C
:103AF000B48000222068AAEB0901FFF70FFAFFF754
:103B0000C9FC38B94FF08053C8F80430BFF34F8F69
:103B1000BFF36F8F0022206801A9FFF74FF800283C
:103B2000D1D0019B002BF5DBDDF80C90D9F81430D7
:103B30001BB109F10400FEF711FEFFF7A7FD336882
:103B40008246984224D3019BC6F800A0013B082B73
:103B5000E0D8DFE803F025254950492525495000E4
:103B6000DB684FF0FF311868FFF780FF2B681A6899
:103B7000002AF5D13A68C6F800902A603B60FFF74A
:103B800089FCC7E7DB684FF0FF311868FFF76EFF6D
:103B90002B681A68002AF5D13A683B602A60D2E7A0
:103BA00099F82400029BD9F8182040F0010C9918CC
:103BB00089F824C02CBF4FF0010C4FF0000C514588
:103BC000C9F80410C9F810903CD8AAEB03039A4234
:103BD00022D8430748D420F0010089F82400484641
:103BE000D9F82030984795E799F8243023F001035D
:103BF00089F824308EE799F82420029B42F00102D4
:103C000089F82420C9F818309BB353445345C9F8A8
:103C10000430C9F810901AD8386809F10401FEF789
:103C200085FD77E7FFF72EFCFFF730FD336881460F
:103C300098429BD33B68C6F800901A68B2FA82F2A9
:103C4000520957E7534502D9BCF1000FC1D028688B
:103C500009F10401FEF76AFD5CE7FFF71BFC49462A
:103C60005046FFF703FF55E752464846FFF7D4FE9C
:103C7000B5E740F25931064B064A0748FEF7DAFB32
:103C8000941500203C16002088160020981500206E
:103C9000FC480100604901002449010000ED00E0FA
:103CA00030B589B0FFF782FE114B1B68CBB1002401
:103CB000032507AA06A905A8CDE90544FDF702F8E2
:103CC000DDE905012346CDE90110079A09490A48B3
:103CD0000095FFF77FFA094B186010B1012009B079
:103CE00030BD40F21911064B064A0748FEF7A2FB09
:103CF0008816002050490100B53A01008C160020BA
:103D0000584901007C490100244901000A44431E2E
:103D1000914200D1704710B511F8014B914203F860
:103D2000014FF9D110BD02440346934200D17047C0
:103D300003F8011BF9E7FFFF4275696C742077698E
:103D400074682052656E6573617320416476616E9C
:103D500063656420466C657869626C6520536F66A4
:103D60007477617265205061636B61676520766569
:103D70007273696F6E20342E332E3000342E332E42
:103D80003000000000000304F8B500BFF8BC08BC18
:103D90009E467047F8B500BFF8BC08BC9E46704709
:103DA00001B40248844601BC604700BF9D01002069
:103DB00001B40248844601BC604700BF09010020ED
:103DC00001B40248844601BC604700BFED010020F9
:103DD00001B40248844601BC604700BF01000020D6
:103DE0000D0A202A2A202055415254205752495466
:103DF00045204641494C454420202A2A200D0A00EE
:103E00005B4552525D20496E2046756E6374696F42
:103E10006E3A20257328292C202573000D0A2A2AA2
:103E20002020525F5343495F554152545F4F7065A4
:103E30006E20415049206661696C656420202A2A01
:103E40000D0A00FF0D0A2A2A2020525F5343495FC2
:103E5000554152545F436C6F736520415049206651
:103E600061696C656420202A2A200D0A00FFFFFF8B
:103E70006465696E69745F756172740075617274EE
:103E80005F696E697469616C697A650075617274E5
:103E90005F6570005465726D696E616C00FFFFFFB5
:103EA000000000000000545452205245474745533B
:103EB00000FFFFFF30313233343536373839414275
:103EC000434445460D0A52657475726E656420451B
:103ED00072726F7220436F64653A203078257820C3
:103EE000200D0A00800B0020583F0100EC42010029
:103EF000436F6D2054687265616400FF000000002C
:103F000000020000020002010202020300000000A1
:103F1000000000004503010000000000203F0100F8
:103F200000010000180600200F00FFFF0000000045
:103F3000FFFF00000608030301010000000000006D
:103F400000000000000000004C65642054687265A9
:103F5000616400FF000000003E000000603F0100BF
:103F60000080000000000000008000000100000050
:103F7000008000000200000000800000030000003C
:103F80000080000004000000008000000500000028
:103F90000080000006000000008000000700000014
:103FA0000080000008000000008000000E000000FB
:103FB00000000104000100000000010401010000F4
:103FC00004000000020100000400000003010000E2
:103FD00004000000040100000500000005010000CD
:103FE00004000000060100000500000007010000B9
:103FF00000000100080100000000010009010000AC
:10400000000001000A010000040000000C01000093
:10401000040000000D010000040000000E0100007B
:10402000040000000F010000040000000502000071
:1040300040000104060200004000010407020000E5
:104040000400000009020000040000000A02000051
:10405000040000000B020000040000000E0200003B
:104060000000010000030000000001040103000043
:10407000000001040203000000000000050300002E
:10408000000000000603000000000000070300001D
:104090000404000000040000040400000104000007
:1040A00004000000020400000000000007040000FB
:1040B00000000000080400000000000009040000E7
:1040C000000000000A040000000000000B040000D3
:1040D000000000000C040000000000000D040000BF
:1040E000000000000E040000000000000F040000AB
:1040F00004000000000500000400000001050000AD
:104100000400000002050000040000000305000098
:104110000400000004050000040000000006000088
:104120000400000001060000040000000206000078
:10413000050000000306000004000000080600005F
:10414000040000000906000000000000080700004D
:10415000800181018201830199019A018C018D0105
:104160008E018F016001610162015400550056000B
:104170004300400046003100300000000000000015
:10418000000000000000000000000000000000002F
:10419000000000000000000000000000000000001F
:1041A000000000000000000000000000000000000F
:1041B00000000000000000000000000000000000FF
:1041C00000000000000000000000000000000000EF
:1041D00000000000000000000000000000000000DF
:1041E00000000000000000000000000000000000CF
:1041F00000000000000000000000000000000000BF
:1042000000000000000000000000000000000000AE
:1042100075635356434E756D626572203C3D203385
:10422000000000002E2E2F72612F6673702F7372A4
:10423000632F726D5F6672656572746F735F706F06
:1042400072742F706F72742E6300FFFF282828533A
:1042500043425F54797065202A2920282830784508
:1042600030303045303030554C29202B20307830DC
:10427000443030554C2920292D3E494353522026A5
:1042800020283078314646554C202929203D3D20B4
:104290003000FFFF7578437269746963616C4E6525
:1042A0007374696E6700FFFF76506F7274457869AA
:1042B00074437269746963616C00FFFF76506F72BA
:1042C00074456E746572437269746963616C00FF52
:1042D00076506F727453564348616E646C65725FBA
:1042E0004300FFFFFFFF00FF010203FF811D0100EC
:1042F000A11A0100951D0100A11D0100651B01000F
:10430000B91B0100AD1A0100011B0100211B0100B6
:104310004D1B01009D1B0100D11A0100E51A01008F
:10432000020403040404FFFF01000200080010005F
:1043300078517565756500002E2E2F72612F61779B
:10434000732F4672656552544F532F4672656552FE
:10435000544F532F536F757263652F717565756573
:104360002E6300FF7078517565756500785265742D
:1043700075726E20213D202820282028204261735C
:1043800065547970655F7420292030202920290028
:1043900070785374617469635175657565000000C8
:1043A0007853697A65203D3D2073697A656F662888
:1043B0002051756575655F742029000070784E6521
:1043C00077517565756500FF7848616E646C6500AE
:1043D000212820282070764974656D546F517565C9
:1043E0007565203D3D202828766F6964202A293094
:1043F000292029202626202820707851756575658A
:104400002D3E75784974656D53697A6520213D208C
:1044100028205542617365547970655F74202920A6
:104420003055202920290000212820282078436F9A
:104430007079506F736974696F6E203D3D2028203C
:10444000282042617365547970655F742029203299
:10445000202920292026262028207078517565756E
:10446000652D3E75784C656E67746820213D20315E
:1044700020292029000000002128202820785461CC
:10448000736B4765745363686564756C65725374C8
:104490006174652829203D3D202820282042617331
:1044A00065547970655F74202920302029202920E7
:1044B0002626202820785469636B73546F576169EE
:1044C0007420213D20302029202900FF707851756B
:1044D0006575652D3E75784974656D53697A6520FB
:1044E0003D3D203000000000212820282070785118
:1044F000756575652D3E706348656164203D3D209E
:104500002828766F6964202A293029202920262628
:10451000202820707851756575652D3E752E78536D
:10452000656D6170686F72652E784D757465784839
:104530006F6C64657220213D202828766F696420A5
:104540002A2930292029202900FFFFFF2820707800
:1045500051756575652029002128202820282070A4
:10456000764275666665722029203D3D20282876B2
:104570006F6964202A293029202920262620282016
:1045800028207078517565756520292D3E7578490C
:1045900074656D53697A6520213D2028205542615C
:1045A0007365547970655F74202920305520292067
:1045B0002900FFFF78517565756553656D617068F9
:1045C0006F726554616B65007851756575655265EC
:1045D000636569766500FFFF7851756575654765A8
:1045E0006E6572696353656E6400FFFF785175658F
:1045F0007565437265617465436F756E74696E6746
:1046000053656D6170686F7265537461746963009E
:1046100078517565756547656E6572696343726546
:1046200061746553746174696300FFFF7851756547
:10463000756547656E65726963526573657400FFE1
:10464000765175657565416464546F526567697329
:1046500074727900785461736B0000002E2E2F72F3
:10466000612F6177732F4672656552544F532F4601
:1046700072656552544F532F536F757263652F7473
:1046800061736B732E6300FF2820282028202820C8
:10469000707844656C617965645461736B4C6973BF
:1046A0007420292D3E75784E756D6265724F66498E
:1046B00074656D73203D3D2028205542617365541B
:1046C0007970655F74202920302029203F20282020
:1046D000282042617365547970655F742029203108
:1046E0002029203A202820282042617365547970BF
:1046F000655F742029203020292029202900FFFF10
:10470000707578537461636B4275666665722021BB
:104710003D202828766F6964202A2930290000006E
:1047200070785461736B42756666657220213D2016
:104730002828766F6964202A293029007853697AFD
:1047400065203D3D2073697A656F66282054434299
:104750005F7420290000000075785072696F7269DB
:104760007479203C202831352900FFFF7578536388
:10477000686564756C657253757370656E646564A5
:10478000203D3D203000FFFF49444C450000000023
:104790007852657475726E20213D2028202D3120BD
:1047A0002900FFFF75785363686564756C65725303
:1047B000757370656E64656400FFFFFF7578546FF4
:1047C000705072696F7269747900FFFF7078457676
:1047D000656E744C697374007078556E626C6F63AB
:1047E0006B656454434200FF707854696D654F7582
:1047F0007400FFFF70785469636B73546F5761697D
:104800007400FFFF785461736B52656D6F76654677
:10481000726F6D4576656E744C69737400FFFFFFAF
:10482000765461736B506C6163654F6E4576656E4F
:10483000744C69737452657374726963746564004F
:10484000765461736B506C6163654F6E4576656E2F
:10485000744C69737400FFFF765461736B5377690E
:10486000746368436F6E7465787400FF7854617385
:104870006B496E6372656D656E745469636B00FF9E
:10488000785461736B526573756D65416C6C00FF94
:10489000765461736B5374617274536368656475A5
:1048A0006C657200765461736B44656C617900FFCE
:1048B000707276496E697469616C6973654E65776B
:1048C0005461736B00FFFFFF785461736B43726533
:1048D00061746553746174696300FFFF7854617398
:1048E0006B436865636B466F7254696D654F757491
:1048F00000FFFFFF546D725100FFFFFF282070780A
:1049000054696D65722D3E7854696D65725065729B
:10491000696F64496E5469636B73203E20302029AF
:10492000000000002E2E2F72612F6177732F4672C8
:10493000656552544F532F4672656552544F532F3D
:10494000536F757263652F74696D6572732E6300A2
:10495000546D7220537663007852657475726E00E0
:1049600070727650726F63657373526563656976B2
:104970006564436F6D6D616E647300FF7854696D9B
:10498000657243726561746554696D6572546173D3
:084990006B00FFFF00000000B6
:104998004FF42A431649B1F884C0A1F88430B1F81D
:1049A80084001FFA8CFC80B268B14FF49642002054
:1049B80003E0002A08BF4FF4FA70B1F88430013AD6
:1049C8009BB2002BF5D1BCF1010F00D070474DF61A
:1049D8000111074B074AA3F84410A2F804C1B2F822
:1049E80004319BB2002BFAD10123A2F800317047A1
:1049F80000E07F4000C00140B3214FF49640104BC7
:104A0800104A82B001901970D2F8803019040DD480
:104A180006E0019B013B0193D2F880301B0405D4CA
:104A2800019B002BF5D1142002B07047054B40F2D2
:104A3800F5101B7C13F0100F08BF002002B0704760
:104A480000007E4000E07F4050214FF49640104B1C
:104A5800104A82B001901970D2F8803019040DD430
:104A680006E0019B013B0193D2F880301B0405D47A
:104A7800019B002BF5D1142002B07047054B40F282
:104A8800F5101B7C13F0100F08BF002002B0704710
:104A980000007E4000E07F40436870B51A78044605
:104AA800F2B1012293F911301E48590903F01F038E
:104AB800203102FA03F340F82130BFF34F8FBFF3E0
:104AC8006F8F636893F91330590903F01F039A40F5
:104AD80001F1200340F82320BFF34F8FBFF36F8FFE
:104AE800114BB3F884309BB2C3B1FFF785FF05467D
:104AF800FFF7AAFF064655B9FFF74AFF0023002E25
:104B080014BF3546054684F83430284670BDFFF793
:104B18003FFF002384F83430284670BD204600F05B
:104B28002FFAE2E700E100E000E07F4030B54FF007
:104B3800D00C4FF0200E836A0E4C19442363036B8C
:104B48000D4D013B85F800E085F800C081620363E4
:104B580022B1D4F88030190403D50022104630BDA4
:104B68002AB1D4F88030013A1B04F9D5F5E71422AC
:104B7800104630BD00E07F4000007E40F0B583B0B5
:104B8800002A50D10125436893F911305C0903F0DC
:104B98001F0305FA03F3334D203445F82430BFF3DF
:104BA8004F8FBFF36F8FE825C46A2F4B5FEA510C14
:104BB8001C63A3F5F033C1F347041D701C7042D089
:104BC8004FF0000E0769856A284E274C2B880197FD
:104BD800338003E0019B591E01910BB3D4F8803058
:104BE8005B05F7D4C36A0EF1010E0233C362036B8F
:104BF8000235013BE64585620363E7D3D0211B4BB1
:104C0800197012B31849D1F88030180401D505E09D
:104C180032B1D1F88030013A1B04F9D5002000E008
:104C2800142003B0F0BDE825C46A0F4B5FEA510CAD
:104C38001C63A3F5F033C1F347041D701C70BFD18A
:104C4800D0211970DEE7D0221A70436893F9113029
:104C5800012203F01F0003495B09824041F8232029
:104C68000020DEE700E100E000E07F4000007E4039
:104C780010B5164B044693F810C01CF0100F0DD158
:104C8800D3F88030194203D024B9E2B9002010BD0E
:104C98000028FBD0FFF7B0FE204610BDD3F88000F7
:104CA800400403D5002093F810C01874D3F880305E
:104CB8001942E9D140F2F513002C08BF1C46FFF752
:104CC8009BFE2046E9E71446E4E700BF00E07F408A
:104CD80030B508224FF0400E8069144C144D154B26
:104CE80083B0019003F1100C296384F800E022706E
:104CF80033F8022F63452280FAD1D0230C4A23705F
:104D0800D2F8803019040DD406E0019B013B0193D1
:104D1800D2F880301B0405D4019B002BF5D1142058
:104D280003B030BD002003B030BD00BF00007E409E
:104D380000E07F401A0600206FEA415110B46FEA84
:104D480051514FF0FF34064B42EAC03040F4F04076
:104D5800C3E902441C60D8805DF8044B9980704711
:104D68001C0600204FF4964310B483B001934368A7
:104D78001A78F2B1012293F91130204C590903F045
:104D88001F03203102FA03F344F82130BFF34F8F99
:104D9800BFF36F8F436893F91330590903F01F036A
:104DA8009A4001F1200344F82320BFF34F8FBFF34B
:104DB8006F8F4AF601234FF45941114AA2F8441063
:104DC800A2F88430B2F884309BB2012B08D110E0ED
:104DD800019B013B0193B2F884309BB2012B08D0B0
:104DE800019B002BF4D14FF4FA7003B05DF8044B2B
:104DF8007047002003B05DF8044B704700E100E005
:104E080000E07F4038B50546FFF7ACFF0446B0B96F
:104E18002B6B0BB919E0A0B98021AA682846FFF7C7
:104E2800ADFE18224FF4A041FFF722FF2B6B04467A
:104E3800002BF0D1FFF7ACFD002C08BF044620463C
:104E480038BDFFF7A5FD204638BDBDE838409FE5D1
:104E580038B5816202630446FFF784FF054618BB34
:104E68000121164A236BA2F8E0100BB922E0E8B939
:104E7800D4E90723A16A2046B1F5803F2ABF1A4624
:104E88004FF400514FF40041FFF750FE19224FF440
:104E9800C041FFF7EDFE236B0546002BE7D1FFF776
:104EA80077FD002D08BF0546284638BDFFF770FD81
:104EB800284638BDBDE838406AE500BF00E07F40BD
:104EC8002DE9F041104B05460E469046D3F8DC70AC
:104ED800FFF748FF0446A0B9FF0F4FEA583238469B
:104EE800710BFFF729FF09492846FFF7F1FE214614
:104EF8001822FFF7BDFE0446FFF74AFD002C08BF45
:104F080004462046BDE8F08100E07F4030A1000162
:104F1800F8B507460D461646FFF724FF044630BB92
:104F28003EB1144B45F4CC41A3F8E810BDE8F84075
:104F38002EE547F6FF7115F0010F4FF0FF324FF6DF
:104F4800FF7518BF0D460C4B0C49C3E90022C3E995
:104F58000222DD803846FFF7BBFE21461822FFF704
:104F680087FE0446FFF714FD002C08BF04462046C0
:104F7800F8BD00BF00E07F401C06002030A1000102
:104F880001B40248844601BC604700BF811E01008D
:104F98000A0D456E7465726564206B6579203D2045
:104FA800000000000A0D000040000C00FFFF000098
:104FB8000000000000000000000000000E000000DB
:084FC8002502010001020100B5
:040000031000263D86
:00000001FF
