:10000000701C0020992500000124000095250000A7
:1000100095250000952500009525000095250000F8
:100020000000000000000000000000009525000016
:100030009525000000000000952500009525000092
:1000400031210000B9200000BD1600002D1600006F
:100050004D17000095170000000000000000000090
:100060000000000000000000000000000000000090
:100070000000000000000000000000000000000080
:100080000000000000000000000000000000000070
:100090000000000000000000000000000000000060
:1000A0000000000000000000000000000000000050
:1000B0000000000000000000000000000000000040
:1000C0000000000000000000000000000000000030
:1000D0000000000000000000000000000000000020
:1000E0000000000000000000000000000000000010
:1000F0000000000000000000000000000000000000
:1001000000000000000000000000000000000000EF
:1001100000000000000000000000000000000000DF
:1001200000000000000000000000000000000000CF
:1001300000000000000000000000000000000000BF
:1001400000000000000000000000000000000000AF
:10015000000000000000000000000000000000009F
:10016000000000000000000000000000000000008F
:10017000000000000000000000000000000000007F
:10018000000000000000000000000000000000006F
:10019000000000000000000000000000000000005F
:1001A000000000000000000000000000000000004F
:1001B000000000000000000000000000000000003F
:1001C000FFFFFFFFFFFFFFFFFFFFFFFFFFFFFFFF3F
:1001D000FFFFFFFFFFFFFFFFFFFFFFFFFFFFFFFF2F
:1001E000FFFFFFFFFFFFFFFFFFFFFFFFFFFFFFFF1F
:1001F000FFFFFFFFFFFFFFFFFFFFFFFFFFFFFFFF0F
:1002000010B5054C237833B9044B13B1044800E012
:1002100000BF0123237010BD38060020000000003D
:10022000C429000008B5034B1BB10349034800E093
:1002300000BF08BD000000003C060020C4290000EB
:1002400010B50849084801F03FF8044608B92046AF
:1002500010BD064B064A0749002000F053FE204619
:1002600010BD00BF1C280000601600207027000091
:10027000BC2700009827000010B51A4C82B0B4F8D3
:100280000422B4F8063292B29BB29A4221D0B4F85A
:100290000632012214FA83F393F808320DF10701B4
:1002A00011488DF8073000F0C9FF00209DF80720A5
:1002B0000E4900F027FEB4F8063201339BB2B3F5C5
:1002C000007FA4F8063202D30023A4F8063202B05D
:1002D00010BD0749002000F015FE0022054B1A70E2
:1002E00002B010BD6C08002060160020B42700008A
:1002F00094270000760C002003790A4A042B13701F
:100300000FD1094A007A13889BB2591C89B2134451
:100310001180187113889BB2B3F5007F24BF0023AE
:1003200013807047540600206C08002070B52B4CD9
:10033000B4F8042292B2551CADB2A4F8045222447F
:10034000C5B282F80852B4F80432CE899BB2B3F534
:10035000007F24BF0023A4F80432B4F804C2F3B22F
:1003600083EA05021FFA8CFCD3000CF1010583EA35
:100370000223ADB2A4F80452A444050A83EA16236A
:100380008CF80852284683EA023302F00F056B40CE
:1003900083EA12139646D20102F4F0625340B4F895
:1003A00004229BB292B2B2F5007F24BF0022A4F8CF
:1003B0000422DAB25040C20082EA002282EA132309
:1003C00083EA003300F00F04C201634002F4F062DC
:1003D000534083EA1013CB8170BD00BF6C0800202E
:1003E0002DE9F843B64E33783BB94FF65573B54D0A
:1003F000EA889A420BD0BDE8F8830220B24901F0A6
:10040000CBFF4FF65573AF4DEA889A42F3D10227DE
:1004100005F11208404600F085FD00F08BFD00213B
:10042000AA4CE981B4F8043253209BB25A1C92B210
:100430002344A4F8042283F80872B4F80432AA8989
:100440009BB2B3F5007F28BFA4F80412B4F80432BD
:1004500028729BB2591C89B2A4F804122344D1B269
:1004600083F80812B4F80432120A9BB2B3F5007F85
:1004700024BF0023A4F80432B4F80432A8889BB245
:10048000591C89B22344A4F8041283F80822B4F852
:10049000043202309BB2B3F5007F28BF00238949A4
:1004A00080B228BFA4F80432FFF740FFB4F804324A
:1004B000A9789BB25A1C92B22344A4F8042283F870
:1004C0000812B4F804322F7A9BB2B3F5007F24BF30
:1004D0000023A4F80432B4F804324FF0550C9BB258
:1004E0005A1C92B22344A4F8042283F80872B4F888
:1004F0000432B5F80EE09BB2B3F5007F24BF0023B1
:10050000A4F80432B4F804025FFA8EF282EA07011A
:1005100080B2CA0082EA0122471CBFB2204482EAAC
:100520001E22A4F8047282EA013280F808C201F0A7
:100530000F004240CB0182EA111203F4F0635A40EB
:1005400093B2B4F80422FF2792B2B2F5007F24BF21
:100550000022A4F80422DAB282F05501B4F80402B1
:10056000CA0080B282EA012282EA1322431C9BB2B3
:10057000A4F8043282EA013201F00F0320445A4009
:10058000CB0180F8087203F4F0635A40B4F80432E7
:1005900082EA11129BB292B2B3F5007F6FEA0207B2
:1005A00024BF0023A4F8043207F00F0383EA1223C8
:1005B000FFB243EA072383EAC703FA0183EA07335A
:1005C00002F4F062534083EA1713A8889FB2EF81C8
:1005D000A8B34FF0000C01383D4918FA80F0B4F888
:1005E00004E211F8013F1FFA8EFE5FFA87F90EF15F
:1005F000010889EA0302A6441FFA88F8A4F80482D5
:100600008EF808329646D30083EA022383EA172342
:1006100083EA023302F00F077B40D201B4F8047280
:1006200002F4F06283EA1E135340BAB2B2F5007FBF
:100630009FB228BFA4F804C28842EF81CFD1B4F89A
:100640000432FAB29BB2591C89B22344A4F80412B2
:1006500083F80822B4F804329BB2B3F5007F24BFBC
:100660000023A4F80432B4F804223B0A92B2511CCD
:1006700089B22244A4F8041282F80832B4F8043291
:1006800003219BB2B3F5007F24BF0023A4F80432FA
:10069000B4F804329BB25A1C92B22344A4F8042248
:1006A00083F80812B4F804329BB2B3F5007F24BF7C
:1006B0000023A4F8043201233370BDE8F88300BF9F
:1006C000760C00205806002040420F006C080020E5
:1006D000690600207F4A38B553887F4D9BB2591C6C
:1006E00089B2518013441C795388E4B29BB2B3F5AC
:1006F000007F28BF00234FF0000028BF53807749B8
:10070000224600F0FFFB2B780C2B11D8DFE803F01A
:1007100013181C253E6266798BACCFD307000020EE
:100720006F4900F0EFFB032C00F0D0800B236B70BF
:1007300000232B7038BD022CFCD101232B7038BD57
:100740000223AC812B7038BD00210322AB89E981E3
:1007500043EA0423AB812A7038BDE989AC80CAB270
:1007600082EA0400C30083EA002383EA112300F035
:100770000F0283EA003353400422C40183EA1013BA
:1007800004F4F0646340EB812A7038BDAB8843EA1F
:1007900004239A1E92B2B2F5806FAB8000F2928071
:1007A000E989AA80CBB283EA040214460520D3006B
:1007B00083EA022383EA112383EA023302F00F0162
:1007C0004B40D20183EA141302F4F06253402870C4
:1007D000EB8138BD0623AC702B7038BDE9892C72D3
:1007E000CAB282EA0400C30083EA002383EA112329
:1007F00000F00F0283EA003304465340072294407E
:10080000BCE7E989EC80CAB282EA0400C30083EA4B
:10081000002383EA112300F00F0283EA00335340E0
:10082000C4010822AAE7E989EB88CAB243EA042393
:10083000EB8082EA040300201A46DC0084EA0324E9
:1008400084EA112484EA033403F00F014C40DB01F5
:10085000688184EA121403F4F063A8885C40EC8198
:1008600010B309232B7038BDE8896B89C1B25A1CBB
:100870002B449C7481EA04031946DC0084EA0324B7
:1008800084EA102484EA033403F00F00444084EA2D
:100890001114DB01A98892B203F4F0635C40914229
:1008A0006A81EC813FF646AF0A232B7038BD0B23DB
:1008B0002C822B7038BD0C222B8A2A7043EA042329
:1008C0002B8238BD4FF440632B8038BDFFF788FD85
:1008D0002EE700BF6C08002058060020B427000057
:1008E00094270000F8B5104C104F114E114D01E047
:1008F0003378BBB92288638892B29BB29A4201D006
:10090000FFF7E8FE284600F091FC3B78002BEFD083
:10091000FFF7B2FC4FF47A71012001F03DFD33780E
:10092000002BE7D00020F8BD6C080020760C0020DA
:1009300012160020901600202DE9F843D0E9029508
:10094000A9EB050890450446164609D94068284495
:1009500001F08AFEBFF35F8F3544E560BDE8F883A0
:100960000F464068424628443544A5EB090501F08E
:100970007BFE2A46606807EB080101F075FEBFF3B5
:100980005F8FE560BDE8F8832DE9F8434FF000097B
:10099000064617468846D0E9021433690D1B9C426F
:1009A00003F1FF3224BF03F1FF325218BD4228BFCA
:1009B0003D46121B954228BF1546706841462A469F
:1009C000204401F051FEB1682C44A14208BF00242C
:1009D000A944A8447F1BBFF35F8FF460002FDCD1D4
:1009E0004846BDE8F88300BFF8B5174CA82200219F
:1009F000204601F046FE4FF48066002303211020BC
:100A0000124A134F134D21616161A261E7612662B1
:100A1000A3626362E36222666566A0662367E3669B
:100A20006367BFF35F8F0C4B53219C46A3F10F000C
:100A300001E013F90119ACEB03028342A154F8D190
:100A4000BFF35F8FF8BD00BF780C0020CC270000FB
:100A5000300D0020200D0020E627000038B5204B87
:100A600000EB400403EBC40EDEF82C40013000EB39
:100A70004000012C8C46154603EBC00005D0022C2B
:100A800029D0ACB10024204638BDDEF82830DEF88D
:100A9000242093429CBFDEF820401B19013B9C1A86
:100AA000AC4228BF2C462246FFF746FF204638BD01
:100AB000DEF82830DEF8242093429CBFDEF82010B8
:100AC0005B18013B9B1A9D42DDD82A466146FFF721
:100AD00033FF2C46D7E7BDE83840FFF755BF00BFCE
:100AE000780C002030B50C4B0C461B7883B063B1FA
:100AF000EFF311854FF0200181F311882146FFF7B4
:100B0000ADFF85F3118803B030BDCDE90002FFF7DA
:100B10006BFFDDE90002EBE7780C0020D0E9012350
:100B200010B50446581C904207D82268D154034699
:100B3000E16862680131C4E902019A4200D010BD47
:100B400021682069FFF7CEFFA368984215BF4FF0D8
:100B5000FF330023E360A36010BD00BF2DE9F84F11
:100B600091420F46DDE90A94154683461E4660D33E
:100B70000B464FF00108B3FBF5F39D4208F1010865
:100B8000F9D9B04538BFB04614F0010A02D1B9F125
:100B9000000F35D1DBF80C30002B2FDB012402E0F5
:100BA000013E05FB04F4012EFAD8B7FBF4F39D4295
:100BB000F7D9214E06E0AC42B4FBF5F30CD31C464A
:100BC000B7FBF3F3F156584604FB1377FFF7A6FF84
:100BD000DBF80C30002BEEDABAF1000F0ED0B9F1D1
:100BE000000F0BD0C84509F1FF3907D22021584624
:100BF000FFF794FFDBF80C30002BF0DABDE8F88F3C
:100C0000A30711D420240CE021465846FFF786FFA5
:100C1000DBF80C3009F1FF39002BEFDBB9F1000FE5
:100C2000BCD0C845F0D3B5E7002E0CBF302420243B
:100C3000F7E74FF00108A4E7EC2700002DE9F04F9B
:100C4000002340249BB00DF1280A80460D4617462C
:100C5000CDE905A4CDE90733DFF8A492099005E0BA
:100C600005A8FFF75BFF0898002866DB15F9011B54
:100C7000002965D02529F3D1294600260D4611F912
:100C8000013BA3F123020D2A08D8DFE802F0480750
:100C900007070707070745074B070742A3F130027D
:100CA000D2B2092A4FF000040BD804EB840403EB02
:100CB000440415F9013F303CA3F13002D2B2092AB5
:100CC000F3D92E2B00F0CB80002395F9001001E022
:100CD00015F9011F21F00402682AF9D0252924D032
:100CE0005839CAB2202A23D8202921D8DFE801F0B8
:100CF0003320202020202020202020AD6020202014
:100D0000202020202020202052202042203F202070
:100D1000330046F00206B1E746F00406AEE746F0BF
:100D20000806ABE746F00106A8E705A8FFF7F6FEC0
:100D30000898002805F1010598DA1BB0BDE8F08F8E
:100D400008980028F9DD079A002A40F0A080104496
:100D50001BB0BDE8F08F1022386801680430CDE97F
:100D60000046386005A8FFF7F9FE0898E1E70A2277
:100D70003868F2E73B681A1D3A601C6805E005A870
:100D8000FFF7CCFE08980028D3DB14F9011B0029DB
:100D9000F5D1CDE70823002438681022016804301B
:100DA000386005A8CDE90034FFF7D8FE0898C0E701
:100DB0003A680120D2F800B004323A608BEAEB7254
:100DC000A2EBEB72092A08DD1146A9FB02C26329D6
:100DD00000F101004FEAD202F6DC9842024638BF29
:100DE0001A46039264B3BBF1000F58DB710756D467
:100DF000B20700D523B3F00722D40CB3039AA24262
:100E00001ED205A820210293FFF788FE089A013C14
:100E1000002A10468DDB029B002CEFD1BBF1000FA6
:100E20003FDB71074BD406F0030102294ED005A821
:100E300059460A22CDE90046FFF790FE089878E768
:100E4000089A002A1046E9DA73E73B6805A81A1DDC
:100E500093F900103A60FFF761FE089869E795F989
:100E600001100135A1F13003DBB2092B4FF0000373
:100E70003FF630AF03EB830301EB430315F9011F8A
:100E8000303BA1F13002D2B2092AF3D922E7514610
:100E90004046FFF727FEDDE90720104458E7013CF4
:100EA000A6E72D2105A80293FFF738FE029BCBF1A0
:100EB000000B089A002A1046FFF63BAFB3E72B2140
:100EC00005A80293FFF72AFE029BF2E7002BAED1A2
:100ED000A4B10399A1420CD205A830210293FFF7D7
:100EE0001DFE089A013C002A1046FFF622AF029B25
:100EF000EEE7002A1046FFF61CAF98E7002496E7BD
:100F0000CDCCCCCC0EB400B582B003AB53F8041BEF
:100F100001AA0193FFF792FE02B05DF804EB03B063
:100F2000704700BF01468222014801F09DBB00BF0F
:100F30004611002038B5194D19486C8A00F076F931
:100F4000A4F50073B3F56D6F0CD34FF6FE739C429E
:100F50001AD04FF6FF739C420ED04FF6FD739C42A1
:100F60000ED038BD0E4800F061F905F11401E00122
:100F7000BDE8384000F068B801220A4B1A7038BD4D
:100F80000122094B1A7038BD054800F04FF9BDE841
:100F900038400A214FF4803000F028B83411002086
:100FA0009016002012160020301100200378032B29
:100FB0000AD0022B04D05BB90122084B1A7070478B
:100FC0000122074B1A7070470122064B1A707047B6
:100FD000012B04BF044A1370704700BF0F16002096
:100FE0000E1600201016002011160020002310B548
:100FF00084B0044601918DF80F3072B6104800F0AD
:1010000015F92146019A0F4801F006F808B104B01D
:1010100010BD0B4800F00AF94FF4A0222146094800
:101020000DF10F0300F04AFF0028F0D19DF80F30BA
:10103000012B02D062B604B010BD1846E7E700BF2E
:10104000901600201C16002000B583B0CDE90010DA
:1010500072B6074800F0EAF8DDE90012802305487F
:1010600000F09CFF00B962B603B05DF804FB00BF5E
:10107000901600201C16002081F30888BFF34F8FC4
:10108000BFF36F8F004700BF2DE9F84301253C49AE
:101090003C4800F099F83B4800F0C8F83A493B4812
:1010A00000F02EFE0A27A846394EDFF8F490394C9E
:1010B000EFF3108288F31088336823B9402189F850
:1010C000033089F8031033680133336082F31088EA
:1010D0003149D4F83C310B402B4343F00403C4F8AE
:1010E0003C31D4F810310B402B4343F00403C4F8D7
:1010F0001031A36F0B402B4343F00403A367D4F8D4
:1011000014210A402A4342F00402C4F81421D4F8FE
:10111000A0210A402A4342F00402C4F8A021E36F50
:101120000B402B4343F00403E367EFF3108288F393
:101130001088336813B13368013B3360336823B9D7
:10114000802189F8033089F8031082F310884FF466
:101150007A71FA2001F020F9013F85F00105A7D14D
:10116000FFF76EF8FFF7BEFB4FF480330B4AD3E96D
:101170000010936087F30A88BDE8F843FFF77CBF4F
:101180005028000090160020082800001C1600209F
:10119000E016002000080840FE3FFEFF00ED00E0E2
:1011A000000D0840022800D07047024B02485968E1
:1011B00000F09CBCFC2700001416002008B5FFF7C7
:1011C00063FF002008BD00BF84460B79144ADB0191
:1011D000DBB230B593714B7891F802E01B014FEA16
:1011E0000E3E0EF4405EDBB243EA0E030D4D91F865
:1011F00000E00D4C15F80E5091F803E005F00305E2
:101200004FEA0E2E0EF4407E43EA0E032B4353802A
:101210004B790020DB01DBB21372CCF8004030BD0B
:101220000034084078290000544457000020FF2271
:10123000014B18701A7070470034084010B4046AEB
:10124000A37803F07B03A370837803F00303D21A1F
:101250000B440261A278C360837842F0800203F0FD
:101260000303022BA27005D00B780020E3705DF819
:10127000044B70470B88002043F47E43E3815DF804
:10128000044B7047F0B5846A85B005460F46944616
:101290006E46B4B194E80F0086E80F00EB69204673
:1012A0001B7884F804C02360EB6AC4E902736B6A9C
:1012B0009847AC6A1CB196E80F0084E80F0005B0AF
:1012C000F0BD3446EAE700BF0022F0B501240B78F8
:1012D000027003F5800303F58C531B0203624B6914
:1012E0008D6943628378C16164F301038262C562E0
:1012F00083704B7823B90222837862F301038370F1
:10130000012491F90B50C44A6B0905F01F072033E3
:1013100004FA07F78E7A42F82370BFF34F8FBFF3BA
:101320006F8FBE4B05F1C00753F827C06FF3104C09
:1013300043F827C053F82770B94F360102EB050C6C
:10134000F6B28CF8006347F8250091F905500E7944
:101350004FEA551C05F01F0E0CF1200C04FA0EFE8E
:1013600042F82CE0BFF34F8FBFF36F8F05F1C00C35
:1013700053F82CE06FF3104E43F82CE053F82CC0D8
:10138000360102EB050CF6B28CF8006347F8250035
:1013900091F907508E794FEA551C05F01F0E0CF19C
:1013A000200C04FA0EFE42F82CE0BFF34F8FBFF37F
:1013B0006F8F05F1C00C53F82CE06FF3104E43F81B
:1013C0002CE053F82CC0360102EB050CF6B28CF879
:1013D000006347F8250091F909500E7A4FEA551C31
:1013E00005F01F0E0CF1200C04FA0EFE42F82CE062
:1013F000BFF34F8FBFF36F8F05F1C00C53F82CE094
:101400006FF3104E43F82CE053F82C303301DBB26D
:101410002A4482F8003347F82500EFF3108584F35F
:1014200010884FF000447F4B0E785A68F44022EA4F
:1014300004025A605B6885F31088002240F2192488
:10144000036A40F219259A701A715A729A72DA7206
:101450005A830A7824FA02F2D60744BF4022DA748B
:101460000622CC691A770A784E78D540ED078F7836
:10147000CA7848BF4FF478414FEAC20248BF998208
:10148000032E42EA071200F0C280002E14BFF221A0
:10149000E221D2B21A709971227B082A0EBF0A2269
:1014A000520002F002025A736278A178D201490117
:1014B00001F02001D2B20A430021197294F800C051
:1014C000ACF10201012940F29880D2B2DA7162686F
:1014D000917855785970197865F301011970D178B0
:1014E00012789974D97902F05C0201F0A3010A43E1
:1014F000DA710022C16902618261C260426191F9C0
:101500000550464B05F1C00153F8216062F31046C7
:1015100043F8216053F82110BFF35F8F012669095A
:10152000890005F01F0501F1604101F5614106FAEE
:1015300005F5C1F880510D60C16991F90B5005F1B5
:10154000C00153F8217062F3104743F8217053F83B
:101550002110BFF35F8F6909890005F01F0501F1B4
:10156000604106FA05F501F56141C1F880510D6051
:10157000C16991F907E00EF1C00153F8215062F3FF
:10158000104543F8215053F82110BFF35F8F4FEA05
:101590005E1189000EF01F0E01F1604106FA0EF592
:1015A00001F56141C1F880510D60C16991F90910DF
:1015B00001F1C00553F8257062F3104743F8257018
:1015C00053F82530BFF35F8F4B099B0001F01F01DB
:1015D00003F160438E4003F56143C3F880611E60F0
:1015E000036A0CF0030C4CF0700C618983F802C0A4
:1015F0000D4B018143601046F0BDFF21BCF1020F8D
:1016000008BF42F01002D2B25970DA7171E7F221CC
:1016100042F040023DE700BF00E100E00060004012
:10162000E4160020004008405549435330B4EFF31E
:101630000383103B1F4A5BB203F1C00152F8210043
:101640006FF3104042F8210052F821201A4A52F854
:101650002300C3691B691BB103691BB130BC704710
:1016600003697BB9D0E908240021937803F07F0354
:1016700043F004039370C160002CEFD030BC802293
:10168000FFF700BE827802F003010229C1680BD087
:10169000046A91F800C084F803C002F003029B1AA8
:1016A0000A44C0E90323D8E70C88056A44F47E4461
:1016B000EC81F2E700600040E416002010B582B033
:1016C000EFF30383103B1F4A5BB203F1C00152F8F2
:1016D00021006FF3104042F8210052F821201A4AED
:1016E00052F82340A27802F00303022B236A0CBFB6
:1016F000198A5979A3690CBFC1F30801C9B20191D4
:1017000043B9636AB3B10422204602B0BDE8104079
:10171000FFF7B8BD02F0030201A9606900F0A4FF61
:10172000D4E90521A37803F003031A44C91AC4E9D4
:10173000052109B102B010BD636A002BFAD0012265
:10174000E2E700BF00600040E416002010B5EFF3B0
:1017500003830E4A103B5CB252F82400D0E9082102
:10176000937803F07B03937019B102220021FFF7F5
:1017700089FD074A04F1C00352F823106FF31041AA
:1017800042F8231052F8233010BD00BFE4160020A9
:101790000060004010B5EFF303831A4A103B5CB2BF
:1017A00052F82400837803F00303022B036A0CBF72
:1017B000198A597993F804C00CBFC1F30801C9B262
:1017C0001CF0100F0CF0380206D093F81CC01CF06F
:1017D000010F08BF42F0400293F804C00CF0C70CA0
:1017E00083F804C0436A0BB1FFF74CFD064A04F1CD
:1017F000C00352F823106FF3104142F8231052F83F
:10180000233010BDE4160020006000400022034693
:1018100010461A60704700BF0B0A10B41B01064C3B
:1018200053FA81F154F821300020C3F340035DF8EE
:10183000044B1370704700BF00080840090A4901B3
:1018400001F1804101F500214B68002013807047B1
:10185000090A490123EA020C01F180411A4001F50D
:10186000002142EA0C4200208A6070470123C8B27E
:1018700083404AB91A040B0A5B0103F1804303F564
:10188000002300209A6070479AB2F4E7090A4901E0
:1018900001F1804101F5002110B40C6802EA030C4B
:1018A0004CEA040C62EA030202EA0C0200205DF832
:1018B000044B0A60704700BF090A490101F18041E9
:1018C00001F500214B680020C3F30F4313807047DC
:1018D000012310B44FEA112C4FEA4C1C0CF1804C40
:1018E0000CF5002CDCF80440C9B203FA01F18BB20C
:1018F00001EA1441C91AB1FA81F1490900205DF8E1
:10190000044B1170704700BF090A490123EA020C19
:1019100001F180411A4001F5002142EA0C42002009
:10192000CA607047012A14D04FF480300B0A5B0163
:1019300003F1804303F5002310B4CAB2DC6800FA57
:1019400002F22243120C120400205DF8044BDA600C
:1019500070470B0A5B0103F1804303F50023D8684D
:10196000C9B28A40024392B20020DA60704700BFD9
:101970002DE9F84F0388002B3DD007464FF00008B3
:10198000DFF8A4A040F202427B684FEAC80559196B
:101990008988002491424FF00109224E09D0013478
:1019A000032C23D07B6836F8022B59198988914281
:1019B000F5D15B5909FA04F203F0B853B3F1807F13
:1019C0005FFA82FB19D09AF8BB341A42E7D00120A3
:1019D00000F0B6FD9AF8BB34012023EA0B0B8AF81D
:1019E000BBB4013400F07CFD032CDBD13B8808F153
:1019F00001084345C6D8BDE8F88F9AF8BB2409FA18
:101A000004F313425FFA83FBC9D1012000F098FD73
:101A10009AF8BB3401204BEA030B8AF8BBB400F000
:101A20005FFDBCE7B629000000E00140F8B50446C0
:101A3000FFF79EFFEFF31082012383F31088284EF7
:101A400033681BB92749CB704023CB70336801330F
:101A5000336082F3108823887BB3626803F1FF3E12
:101A60001FFA8EFE02F108011F4C01EBCE0E08E0BA
:101A7000D2B21B0113448E450A4644F823001CD001
:101A800008311068928810F4803F4FEA1223EFD09B
:101A9000130AD2B202EB031C54F82C701B0113443E
:101AA00020F480356FF310478E4544F82C700A46B9
:101AB00044F82C5044F82300E2D1EFF310820123C4
:101AC00083F31088336813B13368013B33603368A4
:101AD0001BB980200349CB70C87082F31088F8BD11
:101AE000E0160020000D08400008084008B5034B30
:101AF00003600846FFF79AFF002008BD54524F507C
:101B000008B50846FFF792FF002008BD70B5012612
:101B100086B001AB03A80C4615460493ADF80C60E3
:101B2000ADF808100192FFF723FFEFF3108286F360
:101B300010881D490B681BB940261C48C370C6702D
:101B40000B6801330B6082F31088EA034FEA142319
:101B5000E4B219D41B01164A234442F82350EFF390
:101B60001082012383F310880B6813B10B68013BCB
:101B70000B600B681BB980200C49CB70C87082F3D6
:101B80001088002006B070BD094A04EB031052F81B
:101B900020601B016FF3104642F8206025F4803668
:101BA00042F82060D7E700BFE0160020000D084093
:101BB00000080840F0B5012100243A4B80F8344079
:101BC000394A83F816148446186A11681B6AC0F3F0
:101BD000026201FA02F2354DC0F30270C3F30263F0
:101BE000C2409940AA4221FA03F157D9304802F580
:101BF000742202F23F2201F57423A0FB021203F2C9
:101C00003F23A0FB0313920C2A4902F5F052A1F8DE
:101C1000E42043F6B851204644F2506440F6D866BA
:101C20005425254F9B0C03FB07F7244A03FB01F1C6
:101C3000A2FB07E7BF08CCF81870A2FB017103FBF9
:101C400004F48908CCF808101D49A2FB047403FBB6
:101C500001F1A408CCF82440A2FB01418908CCF88A
:101C60002010184903FB06F603FB01F103FB05F501
:101C70005B00A2FB0676A2FB0575A2FB0343A2FB59
:101C80000112B608AD089B089208CCF80C60CCF89D
:101C90001450CCF81030CCF81C20F0BD4FF4FB7081
:101CA000F0BD00BF00E001406C180020FF083D00BF
:101CB00083DE1B4300E07F4038AF0400ABAAAAAA32
:101CC00080DE0F00A0F7030030B5C36B83B004467D
:101CD0000A466D468BB193E8030085E803001A704D
:101CE000216C1846A26B59609047E36B1BB195E8D5
:101CF000030083E8030003B030BD2B46EFE700BFCD
:101D00000B782DE9F0410446416053B9324A13760D
:101D100013752046FFF74EFF08B9304B2360BDE82E
:101D2000F081002701204B68DFF8ACE0A363CB68AB
:101D3000E76323648EF818000A7C91F91130284E6D
:101D4000DFF8A4C01201274D06EB0308D2B288F8D1
:101D5000002303F1C0024CF8234055F8228067F3BA
:101D6000104845F8228055F82220BFF35F8F5A09AA
:101D7000920003F01F0302F1604200FA03F302F540
:101D80006142C2F88031136098238EF814308B7C46
:101D900091F913201B01DBB2164486F8003302F1DF
:101DA000C0034CF8224055F8231067F3104145F862
:101DB000231055F82330BFF35F8F53099B0002F0C7
:101DC0001F0203F1604300FA02F203F56143C3F816
:101DD00080211A609DE700BF00E07F404E45504FD4
:101DE00000E100E000600040E41600204FF496435C
:101DF00010B483B0019343681A7802BB4AF680237B
:101E00002C4AA2F88430B2F884309BB2802B08D1DF
:101E100010E0019B013B0193B2F884309BB2802B10
:101E200008D0019B002BF4D14FF4FA7003B05DF899
:101E3000044B7047002003B05DF8044B704793F9E2
:101E400011301D4A03F1C00152F821406FF31044D4
:101E500042F8214052F82110BFF35F8F012103F0B7
:101E60001F045B099B0003F1604303F5614301FA22
:101E700004F4C3F880411C60436893F9130000F137
:101E8000C00352F823406FF3104442F8234052F845
:101E90002330BFF35F8F43099B0000F01F0203F163
:101EA000604301FA02F203F56143C3F880211A602E
:101EB000A4E700BF00E07F4000600040B1F1006F88
:101EC0002DE9F0410C46804615461E4613D20023EC
:101ED00080F834303370002A59D0114401E0A14217
:101EE00049D022780134FF2AF9D00123002733702A
:101EF0003846BDE8F081FFF779FF07460028F7D1A3
:101F00004FF0710E4FF0D00CD8F80430214A1878F9
:101F100021496B1E82F8D07014631C44546381F80D
:101F200000E081F800C050BBD2F88030D8F814101F
:101F3000AD08180405FB011105D431B3D2F8803087
:101F400001391B04F9D54FF4FC720021384600F02A
:101F500007FC104B074693F8D430A3F10103B3FA02
:101F600083F35B09337000F0E3FB002F08BF0746E3
:101F70003846BDE8F08100273846BDE8F0810322ED
:101F8000022388F834203370B2E71427DBE71746C2
:101F9000AEE700BF00E07F4000007E4070B5002447
:101FA0005B08B2F1006FC0E90A1280F834400363A5
:101FB00003D2BDE8704000F0C3BB0546FFF716FF33
:101FC0000446B8B96B681B78B3B9EE6808E018220C
:101FD0004FF4805100F0C4FB2B6B04468BB1B8B9B1
:101FE00032460421284600F08BFB6B6804461B78C0
:101FF000002BECD0204670BD0123064685F8343016
:10200000EEE700F095FB002C08BF0446204670BDAB
:1020100000F08EFB204670BD0023B1F1006F70B55B
:10202000054680F834300ED2BDE87040B1F5803FEF
:1020300035BF21F4FF5121F4FF4121F01F0121F0B0
:102040007F0100F085BB21F03F0181620263FFF751
:10205000CDFE064650BB6B681B78D3B96E6A012271
:10206000144BA3F8E02008E019224FF4005100F0CF
:1020700077FB2B6B044683B1A8B932464021284632
:1020800000F046FB6B6804461B78002BECD0204622
:1020900070BD022385F83430E1E700F049FB002CE5
:1020A00008BF0446F3E700F043FBF0E74FF4FA748F
:1020B000EDE700BF00E07F4030B583B0EFF303836E
:1020C000184919480A7C103B5CB250F8245010079C
:1020D000D1F880100AD4D3B21A061ED4DB061ED55E
:1020E00011F4405F14BF0721062100E004212846B7
:1020F000019100F015FB0D4A04F1C00352F82300D2
:102100006FF3104042F8230052F82330284601991B
:1021100003B0BDE83040FFF7D7BD0521E7E7072151
:10212000E5E700BF00E07F40E416002000600040CB
:1021300038B5EFF30383103B1F4A5BB203F1C001D4
:1021400052F821001D4C6FF3104054F8235042F810
:10215000210052F8213095F83440012C1DD0022C7A
:1021600011D0174B93F8D430012B0CBF0324022459
:1021700000F0DEFA002385F8343021462846BDE819
:102180003840FFF7A1BD2C6B002CF1D02846BDE8EC
:1021900038400022402100F0BBBA2B6B002BE7D067
:1021A00000220421284600F0ABFA00B938BD2846C9
:1021B000BDE8384000F0B4BA00600040E4160020EA
:1021C00000E07F40064B074993F826001A6A51F851
:1021D0002030C2F302620449D3400B60704700BF55
:1021E00000E001401C0600206C180020704700BF72
:1021F000F8B54AF2035001233F49404AA1F8FE03D3
:10220000A2F80431B2F804319BB2002BFAD14FF09E
:10221000010C4FF4004120250920394C394F364B31
:102220006760394F394EE760A2F800C1384A26602E
:102230006261A16093F826202161196A54F8222076
:10224000344EC1F30261CA40326083F8135483F8FC
:10225000A20093F880241AB993F88134990746D0E4
:10226000254D95F88034002B36D00022224B83F880
:10227000812483F8802400231F4981F8323091F8AB
:102280003C301A07FBD54FF4005000231A4A08854A
:1022900081F82A3092F83C309B06FBD501200523BB
:1022A0001649F12581F81C011B49116282F826307C
:1022B00092F82630106A54F82310C0F30260C1402F
:1022C00000243160F0204FF42541144B1D731C7223
:1022D0001873A2F8FE13F8BD0121C82085F88014F8
:1022E00000F05AF895F88034012BFBD1BDE74FF48C
:1022F0007A70FFF77BFFBEE700E0014000C00140BD
:102300001C06002000127A00001BB700002D3101CE
:10231000803DCD0B6C1800202112022100200040CE
:1023200038B50025164C0121C82084F8285000F04B
:1023300033F884F8245094F82430002BFBD194F81F
:1023400024300F4A43F0020384F8243092F82430FA
:10235000C3F340019B07F9D4094882F8221090F892
:10236000223003F0FF04002BF9D1012000F0E8F83F
:10237000044B012083F8BB44BDE8384000F0B0B8FE
:102380000030084000E00140704700BFA0F10100AC
:102390000028FBD1704700BF10B54FF47A72164C7D
:1023A000164B24684FF0000EB3FBF4FC4FF0FF33E4
:1023B00000FB01F1A1FB020483427EEB040407D37E
:1023C000B0FBFCF0800880B1BDE81040FFF7DEBF35
:1023D0004FEA8C0CB1FBFCF1A1FB02128B427EEBAD
:1023E000020203D308460028EED110BD1846BDE80E
:1023F0001040FFF7CBBF00BF6C18002000CA9A3B0B
:1024000070B500240B4B0C4EB3F82021B3F84051AB
:10241000ADB2154025FA04F3DB07E0B203D556F858
:10242000243003B198470134102CF3D1014BA3F8A9
:10243000305170BD00600040A016002030B5032070
:1024400085B000F07DF86FF0FF054FF0FF31204CB4
:10245000002322464FF0010E1E488564CDE901118C
:10246000039104F1C00532F8020F590960B104A8C4
:1024700000EB810151F80C0C03F01F0C0EFA0CFC60
:1024800020EA0C0041F80C0C954203F10103EAD15B
:102490000199114B0F4A03201167C3F8801202996A
:1024A0005167C3F8841203999167C3F8881200F04A
:1024B00017F80023094834F8022F03F1C001013353
:1024C0000AB140F82120A542F5D105B030BD00BFCA
:1024D000B62800000080004000E100E000600040FD
:1024E000EFF31081012383F31088124B33F810208F
:1024F00092B22AB133F81020013A92B223F8102098
:1025000033F810309BB293B90B4A10B4B2F8FE33D3
:102510000A4C9BB234F8100043F4254323EA00032D
:10252000A2F8FE3381F310885DF8044B704781F305
:10253000108870476418002000E00140BC290000AA
:1025400030B4EFF31081012383F310880E4A32F880
:1025500010309BB26BB90D4C0D4DB4F8FE3335F80D
:1025600010C09BB243EA0C0343F425439BB2A4F88A
:10257000FE3332F8103001339BB222F8103081F371
:10258000108830BC704700BF6418002000E0014094
:10259000BC29000000BE704708B500F003F8FEF744
:1025A0000DFEFEE74FF4700270B5254B254CC3F8C5
:1025B000882000209C60FEF7F5FDFFF719FE012042
:1025C000FEF7F0FD2368A3F5806383F30A881E48B5
:1025D0001E4A0021121A00F054F81D481D4A1E49D7
:1025E000121A00F041F81D4D1D4B5B1B002B07DD3F
:1025F00000249E1055F8043B01349847A642F9DCAC
:10260000FFF7E0FDFFF78CFE0320FFF799FF4FF681
:10261000FF72144B03201A825A829A82DA821A833A
:102620005A839A83DA83FFF75BFF0220FEF7BAFD35
:10263000FFF704FFBDE870400020FFF7A5BE00BF14
:1026400000ED00E0000000003806002070180020B7
:10265000000000201C060020C829000014060020ED
:1026600018060020000D08400A44431E914200D184
:10267000704710B511F8014B914203F8014FF9D1A1
:1026800010BD02440346934200D1704703F8011B7A
:10269000F9E7FFFF4275696C74207769746820520E
:1026A000656E6573617320416476616E6365642055
:1026B000466C657869626C6520536F6674776172E9
:1026C00065205061636B6167652076657273696F21
:1026D0006E20352E312E3000352E312E3000000088
:1026E00000000105F8B500BFF8BC08BC9E46704765
:1026F000F8B500BFF8BC08BC9E467047FFFFFFFF5F
:1027000001B40248844601BC604700BFED010020CF
:1027100001B40248844601BC604700BF9D0100200F
:1027200001B40248844601BC604700BF0901002093
:1027300001B40248844601BC604700BF010000208C
:1027400001B40248844601BC604700BF7504002004
:1027500001B40248844601BC604700BFC1040020A8
:1027600001B40248844601BC604700BFE10200207A
:102770000D0A2A2A2020525F5343495F5541525483
:102780005F4F70656E20415049206661696C6564D9
:1027900020202A2A0D0A00005B4552525D20496E16
:1027A0002046756E6374696F6E3A20257328292C54
:1027B00020257300307825303278200075617274DE
:1027C0005F696E697469616C697A65005465726DE0
:1027D000696E616C00FFFFFF0000000000005454B0
:1027E000522052454747455300FFFFFF30313233F7
:1027F00034353637383941424344454614160020B3
:10280000642800008029000001000000AD0F0000D6
:1028100000000000000000000200020100020000B1
:102820000202020302040205000000000000000092
:10283000F9020000000000003C2800000001000038
:10284000000600200F00FFFF00000000FFFF000057
:102850000608030301010000000000000000000062
:1028600000000000090000007028000000000000C7
:10287000000001040001000000000104010100004B
:102880000000010008010000000001000901000033
:10289000000001000A010000040000000E01000019
:1028A000040000000F010000000001000003000010
:1028B00004000000040400003100300080018101A8
:1028C0008201830100000000000000000000000001
:1028D00000000000000000000000000000000000F8
:1028E00000000000000000000000000000000000E8
:1028F00000000000000000000000000000000000D8
:1029000000000000000000000000000000000000C7
:1029100000000000000000000000000000000000B7
:1029200000000000000000000000000000000000A7
:102930000000000000000000000000000000000097
:102940000000000000000000000000000000000087
:102950000000000000000000000000000000000077
:102960000000000000000000000000000000000067
:102970000000000000000000FFFF00FF010203FF55
:10298000ED1A00000D180000011B00000D1B0000D7
:10299000D118000025190000191800006D1800005A
:1029A0008D180000B9180000091900003D1800003A
:1029B00051180000020403040404FFFF0100020098
:0829C0000800100000000000F7
:1029C8004FF42A431649B1F884C0A1F88430B1F80D
:1029D80084001FFA8CFC80B268B14FF49642002044
:1029E80003E0002A08BF4FF4FA70B1F88430013AC6
:1029F8009BB2002BF5D1BCF1010F00D070474DF60A
:102A08000111074B074AA3F84410A2F804C1B2F811
:102A180004319BB2002BFAD10123A2F80031704790
:102A280000E07F4000C00140B3214FF49640104BB6
:102A3800104A82B001901970D2F8803019040DD470
:102A480006E0019B013B0193D2F880301B0405D4BA
:102A5800019B002BF5D1142002B07047054B40F2C2
:102A6800F5101B7C13F0100F08BF002002B0704750
:102A780000007E4000E07F4050214FF49640104B0C
:102A8800104A82B001901970D2F8803019040DD420
:102A980006E0019B013B0193D2F880301B0405D46A
:102AA800019B002BF5D1142002B07047054B40F272
:102AB800F5101B7C13F0100F08BF002002B0704700
:102AC80000007E4000E07F40436870B51A780446F5
:102AD800F2B1012293F911301E48590903F01F037E
:102AE800203102FA03F340F82130BFF34F8FBFF3D0
:102AF8006F8F636893F91330590903F01F039A40E5
:102B080001F1200340F82320BFF34F8FBFF36F8FED
:102B1800114BB3F884309BB2C3B1FFF785FF05466C
:102B2800FFF7AAFF064655B9FFF74AFF0023002E14
:102B380014BF3546054684F83430284670BDFFF783
:102B48003FFF002384F83430284670BD204600F04B
:102B58002FFAE2E700E100E000E07F4030B54FF0F7
:102B6800D00C4FF0200E836A0E4C19442363036B7C
:102B78000D4D013B85F800E085F800C081620363D4
:102B880022B1D4F88030190403D50022104630BD94
:102B98002AB1D4F88030013A1B04F9D5F5E714229C
:102BA800104630BD00E07F4000007E40F0B583B0A5
:102BB800002A50D10125436893F911305C0903F0CC
:102BC8001F0305FA03F3334D203445F82430BFF3CF
:102BD8004F8FBFF36F8FE825C46A2F4B5FEA510C04
:102BE8001C63A3F5F033C1F347041D701C7042D079
:102BF8004FF0000E0769856A284E274C2B880197ED
:102C0800338003E0019B591E01910BB3D4F8803047
:102C18005B05F7D4C36A0EF1010E0233C362036B7E
:102C28000235013BE64585620363E7D3D0211B4BA0
:102C3800197012B31849D1F88030180401D505E08D
:102C480032B1D1F88030013A1B04F9D5002000E0F8
:102C5800142003B0F0BDE825C46A0F4B5FEA510C9D
:102C68001C63A3F5F033C1F347041D701C70BFD17A
:102C7800D0211970DEE7D0221A70436893F9113019
:102C8800012203F01F0003495B09824041F8232019
:102C98000020DEE700E100E000E07F4000007E4029
:102CA80010B5164B044693F810C01CF0100F0DD148
:102CB800D3F88030194203D024B9E2B9002010BDFE
:102CC8000028FBD0FFF7B0FE204610BDD3F88000E7
:102CD800400403D5002093F810C01874D3F880304E
:102CE8001942E9D140F2F513002C08BF1C46FFF742
:102CF8009BFE2046E9E71446E4E700BF00E07F407A
:102D080030B508224FF0400E8069144C144D154B15
:102D180083B0019003F1100C296384F800E022705D
:102D280033F8022F63452280FAD1D0230C4A23704E
:102D3800D2F8803019040DD406E0019B013B0193C1
:102D4800D2F880301B0405D4019B002BF5D1142048
:102D580003B030BD002003B030BD00BF00007E408E
:102D680000E07F40020600206FEA415110B46FEA8C
:102D780051514FF0FF34064B42EAC03040F4F04066
:102D8800C3E902441C60D8805DF8044B9980704701
:102D9800040600204FF4964310B483B001934368AF
:102DA8001A78F2B1012293F91130204C590903F035
:102DB8001F03203102FA03F344F82130BFF34F8F89
:102DC800BFF36F8F436893F91330590903F01F035A
:102DD8009A4001F1200344F82320BFF34F8FBFF33B
:102DE8006F8F4AF601234FF45941114AA2F8441053
:102DF800A2F88430B2F884309BB2012B08D110E0DD
:102E0800019B013B0193B2F884309BB2012B08D09F
:102E1800019B002BF4D14FF4FA7003B05DF8044B1A
:102E28007047002003B05DF8044B704700E100E0F4
:102E380000E07F4038B50546FFF7ACFF0446B0B95F
:102E48002B6B0BB919E0A0B98021AA682846FFF7B7
:102E5800ADFE18224FF4A041FFF722FF2B6B04466A
:102E6800002BF0D1FFF7ACFD002C08BF044620462C
:102E780038BDFFF7A5FD204638BDBDE838409FE5C1
:102E880038B5816202630446FFF784FF054618BB24
:102E98000121164A236BA2F8E0100BB922E0E8B929
:102EA800D4E90723A16A2046B1F5803F2ABF1A4614
:102EB8004FF400514FF40041FFF750FE19224FF430
:102EC800C041FFF7EDFE236B0546002BE7D1FFF766
:102ED80077FD002D08BF0546284638BDFFF770FD71
:102EE800284638BDBDE838406AE500BF00E07F40AD
:102EF8002DE9F041104B05460E469046D3F8DC709C
:102F0800FFF748FF0446A0B9FF0F4FEA583238468A
:102F1800710BFFF729FF09492846FFF7F1FE214603
:102F28001822FFF7BDFE0446FFF74AFD002C08BF34
:102F380004462046BDE8F08100E07F4030A1000152
:102F4800F8B507460D461646FFF724FF044630BB82
:102F58003EB1144B45F4CC41A3F8E810BDE8F84065
:102F68002EE547F6FF7115F0010F4FF0FF324FF6CF
:102F7800FF7518BF0D460C4B0C49C3E90022C3E985
:102F88000222DD803846FFF7BBFE21461822FFF7F4
:102F980087FE0446FFF714FD002C08BF04462046B0
:102FA800F8BD00BF00E07F400406002030A100010A
:102FB80001B40248844601BC604700BFED1D000013
:102FC800440005E4FFFF00000000000000000000CE
:0C2FD800000000002502000001020000C3
:020000040100F9
:10A10000FFFFFFFFFFFFFFFFFFFFFFFFFFFFFFFF5F
:04A13400FFFFFFFF2B
:10A20000FFFDFFFFFFFFFFFFFFFFFFFFFFFFFFFF60
:10A21000FFFFFFFFFFFFFFFFFFFFFFFFFFFFFFFF4E
:10A22000FFFFFFFFFFFFFFFFFFFFFFFFFFFFFFFF3E
:10A23000FFFFFFFFFFFFFFFFFFFFFFFFFFFFFFFF2E
:10A24000FFFFFFFFFFFFFFFFFFFFFFFFFFFFFFFF1E
:10A25000FFFFFFFFFFFFFFFFFFFFFFFFFFFFFFFF0E
:10A26000FFFFFFFFFFFFFFFFFFFFFFFFFFFFFFFFFE
:10A27000FFFFFFFFFFFFFFFFFFFFFFFFFFFFFFFFEE
:10A28000F8F8FFFFFFFFFFFFFFFFFFFFFFFFFFFFEC
:10A29000FFFFFFFFFFFFFFFFFFFFFFFFFFFFFFFFCE
:10A2A000FFFFFFFFFFFFFFFFFFFFFFFFFFFFFFFFBE
:10A2B000FFFFFFFFFFFFFFFFFFFFFFFFFFFFFFFFAE
:10A2C000FFFFFFFFFFFFFFFFFFFFFFFFFFFFFFFF9E
:04000003000025993B
:00000001FF
