:020000021000EC
:10000000E8A0002001D603001DD303000FD6030093
:100010000FD603000FD603000FD603000FD6030040
:10002000000000000000000000000000458E0300FA
:100030000FD6030000000000818E0300F18E030044
:10004000539B03007B9A03001F9C0300779C0300D3
:1000500099A20300CDA20300539B03007B9A0300E7
:100060001F9C0300779C0300CFCD0300DDCD030070
:10007000EBCD03007DAE03007DAE0300D5AE0300E3
:10008000D3C20300D3C20300D3C2030000000000A8
:100090000000000000000000000000000000000060
:1000A0000000000000000000000000000000000050
:1000B0000000000000000000000000000000000040
:1000C0000000000000000000000000000000000030
:1000D0000000000000000000000000000000000020
:1000E0000000000000000000000000000000000010
:1000F0000000000000000000000000000000000000
:1001000000000000000000000000000000000000EF
:1001100000000000000000000000000000000000DF
:1001200000000000000000000000000000000000CF
:1001300000000000000000000000000000000000BF
:1001400000000000000000000000000000000000AF
:10015000000000000000000000000000000000009F
:10016000000000000000000000000000000000008F
:10017000000000000000000000000000000000007F
:10018000000000000000000000000000000000006F
:10019000000000000000000000000000000000005F
:1001A000000000000000000000000000000000004F
:1001B000000000000000000000000000000000003F
:1001C000FFFFFFFFFFFFFFFFFFFFFFFFFFFFFFFF3F
:1001D000FFFFFFFFFFFFFFFFFFFFFFFFFFFFFFFF2F
:1001E000FFFFFFFFFFFFFFFFFFFFFFFFFFFFFFFF1F
:1001F000FFFFFFFFFFFFFFFFFFFFFFFFFFFFFFFF0F
:1002000010B5054C237833B9044B13B1044800E012
:1002100000BF0123237010BD9005002000000000E6
:10022000C0B9040008B5034B1BB10349034800E003
:1002300000BF08BD0000000094050020C0B9040004
:1002400080B582B000AF00237B600949094829F0DE
:100250006FF978607B68002B05D0074B074A084987
:10026000002000F08FFD7B6818460837BD4680BD32
:10027000B8A804001C560020BC2804001029040063
:10028000A028040080B582B000AF00237B6009493C
:10029000094829F04DF978607B68002B05D0074BA1
:1002A000074A0849002000F06DFD7B6818460837B2
:1002B000BD4680BD54A80400AC550020BC280400F5
:1002C00020290400A028040080B582B000AF264B8E
:1002D0003B60A822002138682FF0F1FE3B68032222
:1002E0001A613B6803225A613B68204A9A613B6865
:1002F0001F4ADA613B684FF480621A623B68002251
:100300009A623B6800225A623B680022DA623B68CC
:10031000164A1A663B68174A5A663B6810229A6664
:100320003B6800221A673B680022DA663B680022BD
:100330005A67BFF35F8F00237B600CE07B68C3F1DB
:100340000F030D4AD1563A687B6813440A461A7067
:100350007B6801337B607B680F2BEFD9BFF35F8F26
:1003600000BF0837BD4680BDAC0500203829040019
:1003700054060020540A00204429040080B58AB0A5
:1003800000AFF860B9607A6000233B62FB68DB680D
:10039000FB61FB681B69BB61BA69FB699A4205D9BD
:1003A000BA69FB69D31A013B7B6207E0FB689A6874
:1003B000B969FB69CB1A1344013B7B62FB689A68FD
:1003C000FB69D31A7A6A934228BF13467B627A6A22
:1003D0007B68934228BF13467B62FB685A68FB69BF
:1003E00013447B617A6AB96878692FF05BFE3A6AD8
:1003F0007B6A13443B62BA687B6A1344BB607A68C9
:100400007B6AD31A7B60FA697B6A1344FB61FB68E1
:100410009B68FA699A4201D10023FB61BFF35F8FA9
:10042000FB68FA69DA607B68002BB2D13B6A184638
:100430002837BD4680BD80B588B000AFF860B96090
:100440007A60FB68DB68FB61FB689A68FB69D31A1A
:10045000BB61BA697B689A4211D9FB685A68FB692B
:1004600013443B617A68B96838692FF01BFEBFF30B
:100470005F8FFA697B681A44FB68DA601FE0BB692A
:100480007B61FB685A68FB6913443B617A69B96810
:1004900038692FF007FE7A68BB69D31A7B61FB6865
:1004A0005B683B61BA68BB6913447A69194638696D
:1004B0002FF0F8FDBFF35F8FFB687A69DA6000BF49
:1004C0002037BD4680BD80B487B000AF78607B68C0
:1004D0001B693B617B68DB68FB603A69FB689A4299
:1004E00008D87B689A68FB68D21A3B691344013BC1
:1004F0007B6104E03A69FB68D31A013B7B617B694D
:1005000018461C37BD465DF8047B704780B588B03F
:1005100000AFF860B9607A60BB68BB61FB685A1CC9
:1005200013465B001344DB001F4A13447B617B6965
:100530005B69022B29D0022B2ED8002B02D0012B75
:1005400013D029E07869FFF7BEFF38613A697B680C
:100550009A4202D20023FB6121E07B68FB617A684A
:10056000B9697869FFF767FF19E07869FFF7ABFFB2
:1005700038617A683B69934228BF1346FB61FA6988
:10058000B9697869FFF757FF09E07A68B96978694E
:10059000FFF7F4FEF86102E00023FB6100BFFB6996
:1005A00018462037BD4680BDAC05002080B588B018
:1005B00000AFF860B9607A600E4BFB61FB691B7895
:1005C0005BB2002B01D1FFF77FFEEFF311834FF0F9
:1005D000200181F31188BB617A68B968F868FFF778
:1005E00095FF7861BB6983F311887B6918462037D2
:1005F000BD4680BDAC05002080B584B000AF7860FA
:10060000396038682FF0F5FDF860FA683968786865
:10061000FFF7CCFF034618461037BD4680BDFFFFED
:1006200080B58AB000AFF860B9607A603B60204B5B
:100630003B623B6A1B785BB2002B01D1FFF744FEA3
:100640001B4BFB61FB68022B2AD8EFF311834FF0A1
:10065000200181F31188BB61FB685A1C13465B00C3
:100660001344DB00FA6913447B61FB68002B0ED056
:100670007B69BA681A607B697A685A607B693A68F4
:100680009A607B6900221A617B690022DA607B69CB
:100690003A6B5A61BB6983F3118800237B6202E0E5
:1006A0004FF0FF337B627B6A18462837BD4680BD1A
:1006B000AC05002080B584B000AF78600B46FB70BD
:1006C0007B689B68FB60FB685A1C7B685B689A428E
:1006D0000ED87B681A68FB681344FA781A70FB68B6
:1006E0005A1C7B689A607B68DB685A1C7B68DA60FE
:1006F0007B689A687B685B689A4215D17B68186949
:100700007B6819687B689B681A46FFF74FFF0246B3
:100710007B689B689A4204D07B684FF0FF32DA60B6
:1007200002E07B6800229A6000BF1037BD4680BDA2
:1007300080B58AB000AFF860B9607A603B60BB6892
:100740003B6201237B620123FB6107E03A6A7B681D
:10075000B2FBF3F33B62FB690133FB613A6A7B68EE
:100760009A42F3D23A68FB699A4201D93B68FB612D
:100770007B6B03F00103002B26D13B6B002B23D0B6
:100780007B6B03F00203002B05D03B68002B02D1EA
:100790003023FB7601E02023FB760CE03B6B013B32
:1007A0003B6397F91B301946F868FFF783FFFB6836
:1007B000DB68002B07DB3B6B002B05D0FA693B6B3A
:1007C0009A42EBD300E000BFFB68DB68002B56DBEE
:1007D0003B68012B03D93B68013B3B6009E0BA68E9
:1007E0007B6AB2FBF3F37B617A697B689A4200D241
:1007F00005E07B6A7A6802FB03F37B62E8E7BA688C
:100800007B6AB2FBF3F37B617B697A6A02FB03F3D9
:10081000BA68D31ABB601C4A7B69134493F9003051
:100820001946F868FFF746FFFB68DB68002B08DB1A
:100830007A6A7B68B2FBF3F37B627B6A002BDED1C2
:1008400000E000BF7B6B03F00103002B17D03B6B74
:10085000002B14D00AE03B6B013B3B632021F8687E
:10086000FFF728FFFB68DB68002B07DB3B6B002BE7
:1008700005D0FA693B6B9A42EDD300E000BF00BFA0
:100880002837BD4680BD00BF5829040080B588B018
:1008900002AFF860B9607A603B60BB68002BB8BFFC
:1008A0005B423B6101237B6107E07B683A6992FB15
:1008B000F3F33B617B6901337B617B683A699A4260
:1008C000F3DA3A687B699A4201D93B687B613B6AFB
:1008D000002B0AD0BB68002B04DB7B6A03F0040307
:1008E000002B02D03B6A013B3B627B6A03F00203B0
:1008F000002B02D03B68002B1CD07B6A03F0010365
:10090000002B17D13B6A002B14D00AE03B6A013B55
:100910003B622021F868FFF7CDFEFB68DB68002B07
:1009200007DB3B6A002B05D07A693B6A9A42EDD31C
:1009300000E000BFFB68DB68002B4ADBBB68002BD4
:1009400007DABB685B42BB602D21F868FFF7B2FE97
:1009500008E07B6A03F00403002B03D02B21F86826
:10096000FFF7A8FEFB68DB68002B32DB7B6A03F035
:100970000203002B1FD07B6A03F00103002B1AD166
:100980003B68002B17D13B6A002B14D00AE03B6A6E
:10099000013B3B623021F868FFF78CFEFB68DB68A7
:1009A000002B07DB3B6A002B05D07A693B6A9A4231
:1009B000EDD300E000BFFB68DB68002B09DBB96802
:1009C0007B6A01933B6A00933B687A68F868FFF79B
:1009D000AFFE00BF1837BD4680BDFFFF80B5A2B097
:1009E00002AFF860B9607A6007F110033B654023FD
:1009F0007B650023BB65FB683B660023FB65BB682A
:100A00001B7887F87F30BB680133BB6097F97F3074
:100A1000002B00F09F8197F97F30252B40F08D81CE
:100A200000233B670123BB67BB681B7887F87F30D7
:100A300097F97F30233B0D2B3ED801A252F823F0CB
:100A4000A90A0100B90A0100B90A0100B90A0100A6
:100A5000B90A0100B90A0100B90A0100B90A010086
:100A6000990A0100B90A0100790A0100B90A0100D6
:100A7000B90A0100890A01003B6F43F001033B679B
:100A8000BB680133BB601AE03B6F43F002033B6776
:100A9000BB680133BB6012E03B6F43F004033B676C
:100AA000BB680133BB600AE03B6F43F008033B6760
:100AB000BB680133BB6002E00023BB6700BFBB6FB4
:100AC000002BB1D10023FB66BB681B7887F87F3011
:100AD00097F97F302F2B12DD97F97F30392B0EDC01
:100AE000BB680133BB60FA6E13469B0013445B0086
:100AF0001A4697F97F301344303BFB66E4E7002346
:100B00007B67BB681B7887F87F3097F97F302E2B87
:100B10001DD1BB680133BB60BB681B7887F87F3091
:100B200097F97F302F2B12DD97F97F30392B0EDCB0
:100B3000BB680133BB607A6F13469B0013445B00B4
:100B40001A4697F97F301344303B7B67E4E7BB6874
:100B50001B7887F87F3097F97F306C2B03D097F99B
:100B60007F30682B07D1BB680133BB60BB681B7843
:100B700087F87F30EFE797F97F30252B00F0D180A1
:100B8000252BC0F2D580782B00F3D280582BC0F2F1
:100B9000CF80583B202B00F2CB8001A252F823F0EB
:100BA000970C0100310D0100310D0100310D0100E4
:100BB000310D0100310D0100310D0100310D010039
:100BC000310D0100310D0100310D0100250C010036
:100BD0004B0C0100310D0100310D0100310D010000
:100BE000310D0100310D0100310D0100310D010009
:100BF000310D0100310D0100310D0100310D0100F9
:100C0000FD0C0100310D0100310D0100BD0C010092
:100C1000310D0100710C0100310D0100310D010099
:100C2000970C01007B681B68191D7A6811601B68AE
:100C3000BB67BB6F87F8673097F9672007F15003F0
:100C400011461846FFF736FD73E07B681B68191DD7
:100C50007A6811601B68BB6707F150003B6F019316
:100C6000FB6E00937B6F0A22B96FFFF70FFE60E007
:100C70007B681B68191D7A6811601B68BB67B96FB8
:100C800007F150003B6F0193FB6E00937B6F0A22CC
:100C9000FFF74EFD4DE07B681B68191D7A681160F7
:100CA0001B68BB67B96F07F150003B6F0193FB6E88
:100CB00000937B6F1022FFF73BFD3AE07B681B68D7
:100CC000191D7A6811601B68BB66BB6E1B7887F8BC
:100CD0007F30BB6E0133BB6697F97F30002B0BD0A2
:100CE00097F97F2007F1500311461846FFF7E2FC01
:100CF000FB6D002BE9DA1CE000BF1AE07B681B6883
:100D0000191D7A6811601B68BB67B96F07F1500045
:100D1000002301930823009308231022FFF708FD06
:100D200007E007F1500325211846FFF7C3FC00E058
:100D300000BFBB680133BB6007E097F97F2007F174
:100D4000500311461846FFF7B5FCFB6D002BBFF6AC
:100D500056AE00E000BFFB6D002B0DDDBB6D002B20
:100D600006D0BA6D07F110031946F868FFF71EFCAC
:100D7000FB6DBA6D1344FB65FB6D18468037BD46AD
:100D800080BD00BF0EB480B585B000AF786007F1BC
:100D90002003BB6007F108031A46F9697868FFF77A
:100DA0001DFEF860FB6818461437BD46BDE880405C
:100DB00003B0704780B584B000AF714828F01CFACA
:100DC000704B01221A7000F069F90AF09DFC0AF0DC
:100DD000E7F96D4B1B684AF2A55293423ED01DF0D5
:100DE000F3FC1DF0BBFF1EF023F81EF05DF81EF0B3
:100DF000E5FA1EF061FB1EF067FC1EF05FFC1E2191
:100E0000002019F061FC0C21002019F084FC042161
:100E1000002019F0A7FC0121002019F0CAFC0021D4
:100E2000002019F0C3FB0021002019F017FCFA2163
:100E3000002019F04DFD0021002019F070FD012166
:100E4000002019F094FD4FF43471002001F0BAF83D
:100E50004D4B4AF2A5521A600AF096F909F08CF946
:100E60004A4B1B7ADBB2002B04D009F01DFF012096
:100E700024F08CFD464B1B889BB243F480539AB2FE
:100E8000434B1A8001201DF031F80DF0FBFB1AF0E6
:100E9000D7F824F0AFFC10F07DFF012015F08EFC98
:100EA00003F040FF16F0FAFD15F0DAF8072015F010
:100EB00089F8384B9B8C9BB242F20E72934206D853
:100EC000344B9B8C9BB201339AB2324B9A8413F011
:100ED0001FFD1DF0DDF92B4B00221A702E4B5B7DA0
:100EE000DBB2002B07D12D4B1B889BB243F4805300
:100EF0009AB22A4B1A8009F0EBFB14F0F1FA284B56
:100F000093F835305BB2002B08DD264B1B889BB273
:100F100003F48073002B01D01EF0B0FE012021F0FD
:100F2000BDFB1B4B1B889BB243F480539AB2184BFA
:100F30001A801D4B0022A3F864201C4B002283F86A
:100F40002D2025F005FB21F0CBF9194B00225A800A
:100F5000174B00229A80164B0022DA80144B002295
:100F60001A81134B00225A81124B1B889BB243F00B
:100F700002039AB20F4B1A8000BF1037BD4680BDE6
:100F8000F4540020E70F002070110020CC12002044
:100F9000D00F00201015002030400020E00F00206E
:100FA0008C1C0020D80F0020840C00205040002012
:100FB00058110020E20F002080B584B002AF00235A
:100FC000BB802E4828F018F915F0E0FBFFF7F2FE81
:100FD00017F02CFE17F0D6FD294B00221A70294B72
:100FE00000221A7028490020FFF706FB0023009317
:100FF0000023002200210020FFF712FB4FF61052C1
:101000000121224809F070F94FF6155201212048BC
:1010100009F06AF90023FB710123BB711D4B1B789A
:10102000002B20D0154828F0E7F81A4B00221A7040
:1010300005224FF47A71FA2017F006FCBB791846A6
:1010400017F0AEFCBB79002B14BF01230023DBB2E9
:1010500083F00103DBB2BB71BB7903F00103BB7109
:10106000FB790133FB71FB79022BD7D90A4B0122A3
:101070001A7000BF0837BD4680BD00BFF454002081
:101080007643002045430020BC290400444300204F
:10109000474300202C4300201451002080B582B02B
:1010A00000AF00F0C1F900F0C7F909F043F800F013
:1010B00009FA00F00EFA20F077FD16F075F80AF044
:1010C00085FC0AF045FE0AF057FF80233B603B6831
:1010D000994A536142233B603A68002197482EF0B9
:1010E000EEFF3B68944A536140233B603A6800211D
:1010F00093482EF0E4FF3B688F4A536120233B6006
:101100003A6800218F482EF0DAFF3B688A4A536123
:1011100022233B603A6800218B482EF0D0FF3B68C9
:10112000854A536138233B6020233B603A680021A5
:1011300086482EF0C4FF3B687F4A53612C233B60F6
:101140003A68002182482EF0BAFF3B687A4A536120
:1011500040233B603A6800217E482EF0B0FF3B6898
:10116000754A536154233B603A6800217A482EF057
:10117000A6FF3B68704A536140233B603A680021F8
:1011800076482EF09CFF3B686B4A536140233B60DE
:101190003A68002172482EF092FF3B68664A53611C
:1011A00048233B603A6800216E482EF088FF3B6878
:1011B000614A536188233B603A6800216A482EF0F7
:1011C0007EFF3B685C4A536184233B603B685A4A1C
:1011D00053614FF425633B603A68002163482EF069
:1011E0006EFF3B68544A5361A2233B603B68524AFE
:1011F000536140F6A8433B603A6800215C482EF0FA
:101200005EFF3B684C4A5361D0233B603A68002143
:1012100058482EF054FF3B68474A536190233B6087
:101220003B68454A536140233B603B68424A5361F7
:1012300038233B603B68404A5361A2233B603A68D5
:1012400000214D482EF03BFF3B683B4A536184230D
:101250003B603A68002149482EF031FF3B68364A2E
:10126000536180233B603A68002145482EF027FFF8
:101270003B68314A536134233B603A68002141485E
:101280002EF01DFF3B682C4A53613F4B00221A8011
:101290003E4B00221A703E4B00221A803D4B00222A
:1012A0001A603D4B00221A603C4B00221A603C4BF6
:1012B00000221A803B4B00221A703B4B00221A80FE
:1012C000394B00225A80394B4FF6FF72A3F8462063
:1012D000364B4FF6FF72A3F84820354B25221A7083
:1012E000334B00225A70324B25229A70304B002229
:1012F000DA702F4B002283F82C202D4B002283F82C
:101300002D202B4B002283F82E20294B002283F81E
:101310002F20274B002283F83020254B002283F812
:101320003120234B002283F83220224B00221A70F6
:1013300000237B6055E000BF58110020CC12002034
:10134000101300205013002070130020941300206D
:101350004036002088140020B41300200814002018
:1013600048140020C814002010150020C81C0020BC
:1013700018270020E40A0020C033002090500020ED
:101380009815002010380020D00F0020A40F002056
:10139000A60F0020A80F0020AC0F0020B00F0020E7
:1013A000B40F0020B60F0020B80F0020840C0020DE
:1013B000680F0020E60F0020194A7B6802330021E5
:1013C00042F82310164A7B680633002142F82310A6
:1013D000134A7B680A33002142F823107B680133EB
:1013E0007B607B68032BE7D900237B600FE00D4A0D
:1013F0007B681344043301221A700A4A7B6808335D
:101400005B00134400225A807B6801337B607B6859
:101410000C2BECD900BF00BF0837BD4680BD00BF14
:10142000840C0020680F002080B400AF00BFBD46D0
:101430005DF8047B7047FFFF80B582B000AF0023EA
:101440007B6017F0F5FD78607B68002B05D0174BAB
:10145000174A18490020FFF795FC012017F090FF6C
:101460007B68002B05D0144B114A12490020FFF76E
:1014700089FC202017F0E0FF7B68002B05D00F4B84
:101480000B4A0C490020FFF77DFC17F007FE78603F
:101490007B68002B05D00A4B054A06490020FFF760
:1014A00071FC00BF0837BD4680BD00BFD4290400D1
:1014B000682A0400F02904000C2A0400302A0400E1
:1014C000542A040080B400AF00BFBD465DF8047B21
:1014D000704780B400AF00BFBD465DF8047B704725
:1014E00080B485B000AF0346FB80054B1B88FB81B1
:1014F000FB8918461437BD465DF8047B704700BF72
:101500000814002080B582B000AF03460A46FB8075
:101510001346BB80074B1B889BB2BA889A4204D003
:10152000044ABB88138009F073F800BF0837BD4632
:1015300080BD00BF0814002080B485B000AF034612
:10154000FB80054B9B78FB73FB7B18461437BD462D
:101550005DF8047B704700BF0814002080B582B09E
:1015600000AF03460A46FB8013467B71074B9B780E
:10157000DBB27A799A4204D0044A7B79937009F0FD
:1015800047F800BF0837BD4680BD00BF08140020E3
:1015900080B485B000AF0346FB80054BDB78FB735E
:1015A000FB7B18461437BD465DF8047B704700BFCF
:1015B0000814002080B582B000AF03460A46FB80C5
:1015C00013467B71074BDB78DBB27A799A4204D001
:1015D000044A7B79D37009F01BF800BF0837BD4679
:1015E00080BD00BF0814002080B485B000AF034662
:1015F000FB80054B1B88FB81FB8918461437BD46D1
:101600005DF8047B704700BF4814002080B582B0AD
:1016100000AF03460A46FB801346BB80074B1B887E
:101620009BB2BA889A4204D0044ABB88138009F05E
:1016300007F800BF0837BD4680BD00BF4814002032
:1016400080B485B000AF0346FB80054B5B88FB810F
:10165000FB8918461437BD465DF8047B704700BF10
:101660004814002080B582B000AF03460A46FB80D4
:101670001346BB80074B5B889BB2BA889A4204D062
:10168000044ABB88538008F0DBFF00BF0837BD4623
:1016900080BD00BF4814002080B485B000AF034671
:1016A000FB80054B9B88FB81FB8918461437BD46A0
:1016B0005DF8047B704700BF4814002080B582B0FD
:1016C00000AF03460A46FB801346BB80074B9B884E
:1016D0009BB2BA889A4204D0044ABB88938008F02F
:1016E000AFFF00BF0837BD4680BD00BF48140020D3
:1016F00080B485B000AF0346FB800023FB73FB88FA
:10170000042B04D8FB88054A13449B79FB73FB7BAD
:1017100018461437BD465DF8047B70474814002016
:1017200080B582B000AF03460A46FB8013467B714A
:10173000FB88042B0ED8FB88084A13449B79DBB244
:101740007A799A4206D0FB88044A13447A799A71CE
:1017500008F076FF00BF0837BD4680BD4814002062
:1017600080B485B000AF0346FB80064B93F8293068
:101770005BB2FB73FB7B18461437BD465DF8047BF8
:10178000704700BFB413002080B582B000AF03469D
:101790000A46FB8013467B71124B1B7ADBB2002B8F
:1017A00006D04022104911482EF07CFC08F00CFFB6
:1017B00097F905200C4B83F8292008F011FF094BFD
:1017C0001B7ADBB2002B09D04022084906482EF0D4
:1017D00069FC97F90520044B83F8292000BF0837DE
:1017E000BD4680BDCC120020B413002004100020A0
:1017F00080B485B000AF0346FB80054B5B69FB817D
:10180000B7F90E3018461437BD465DF8047B7047B3
:10181000B413002080B582B000AF03460A46FB80B7
:101820001346BB80114B1B7ADBB2002B06D0402243
:101830000F4910482EF036FC08F0C6FEB7F9043008
:101840000B4A536108F0CCFE084B1B7ADBB2002B2D
:1018500008D04022074906482EF024FCB7F904308E
:10186000034A536100BF0837BD4680BDCC1200203B
:10187000B41300200410002080B485B000AF0346EC
:10188000FB80FB88064A063352F82330FB81B7F908
:101890000E3018461437BD465DF8047B704700BF14
:1018A000B413002080B582B000AF03460A46FB8027
:1018B0001346BB80164B1B7ADBB2002B06D04022AE
:1018C000144915482EF0EEFB08F07EFEFB88B7F9B0
:1018D00004201049063341F8232008F081FE0C4B08
:1018E0001B7ADBB2002B0BD040220B4909482EF0AB
:1018F000D9FBFB88B7F904200649063341F82320B9
:1019000024F09AF909F0DCF900BF0837BD4680BD24
:10191000CC120020B41300200410002080B485B045
:1019200000AF0346FB80FB88064A063352F823309B
:10193000FB81B7F90E3018461437BD465DF8047BBD
:10194000704700BFB413002080B582B000AF0346DB
:101950000A46FB801346BB80FB88B7F90420054983
:10196000063341F8232008F03BFE00BF0837BD4690
:1019700080BD00BFB413002080B485B000AF034623
:10198000FB80064B93F82B305BB2FB73FB7B184656
:101990001437BD465DF8047B704700BFB4130020C8
:1019A00080B582B000AF03460A46FB8013467B71C8
:1019B000124B1B7ADBB2002B06D040221049114893
:1019C0002EF070FB08F000FE97F905200C4B83F811
:1019D0002B2008F005FE094B1B7ADBB2002B09D047
:1019E0004022084906482EF05DFB97F90520044B7C
:1019F00083F82B2000BF0837BD4680BDCC120020E5
:101A0000B41300200410002080B485B000AF03465A
:101A1000FB80064B93F82A305BB2FB73FB7B1846C6
:101A20001437BD465DF8047B704700BFB413002037
:101A300080B582B000AF03460A46FB8013467B7137
:101A4000124B1B7ADBB2002B06D040221049114802
:101A50002EF028FB08F0B8FD97F905200C4B83F811
:101A60002A2008F0BDFD094B1B7ADBB2002B09D000
:101A70004022084906482EF015FB97F90520044B33
:101A800083F82A2000BF0837BD4680BDCC12002055
:101A9000B41300200410002080B584B000AF0346CA
:101AA000FB80114B1B7ADBB2002B06D040220F4982
:101AB0000F482EF0F7FA08F087FDFB880B4A134415
:101AC00093F824305BB2FB73074B1B7ADBB2002B1D
:101AD00004D04022064905482EF0E4FAFB7B184664
:101AE0001037BD4680BD00BFCC120020B4130020CB
:101AF0000410002080B582B000AF03460A46FB8088
:101B000013467B71114B1B7ADBB2002B06D04022AF
:101B10000F4910482EF0C6FA08F056FDFB8897F9D9
:101B200005100B4A13440A4683F8242008F058FD98
:101B3000064B1B7ADBB2002B04D040220549044837
:101B40002EF0B0FA00BF0837BD4680BDCC12002091
:101B5000B41300200410002080B584B000AF034609
:101B6000FB80104B1B7ADBB2002B06D040220E49C3
:101B70000E482EF097FA08F027FDFB880A4A52F823
:101B80002330FB81074B1B7ADBB2002B04D04022B1
:101B9000064905482EF086FAB7F90E301846103778
:101BA000BD4680BDCC120020B413002004100020DC
:101BB00080B582B000AF03460A46FB801346BB8067
:101BC000104B1B7ADBB2002B06D040220E490F4887
:101BD0002EF068FA08F0F8FCFB88B7F904200A49EF
:101BE00041F8232008F0FCFC064B1B7ADBB2002BEB
:101BF00004D04022054904482EF054FA00BF0837AB
:101C0000BD4680BDCC120020B4130020041000207B
:101C100080B584B000AF0346FB80104B1B7ADBB26B
:101C2000002B06D040220E490E482EF03BFA08F059
:101C3000CBFC0B4B93F820305BB2FB73074B1B7A4A
:101C4000DBB2002B04D04022064905482EF02AFAC8
:101C5000FB7B18461037BD4680BD00BFCC1200206C
:101C6000B41300200410002080B582B000AF0346FA
:101C70000A46FB8013467B71104B1B7ADBB2002BAC
:101C800006D040220E490F482EF00CFA08F09CFCBA
:101C900097F905200A4B83F8202008F0A1FC074B98
:101CA0001B7ADBB2002B04D04022064904482EF0F8
:101CB000F9F900BF0837BD4680BD00BFCC12002037
:101CC000B41300200410002080B584B000AF034698
:101CD000FB800F4B1B7ADBB2002B06D040220D4954
:101CE0000D482EF0DFF908F06FFC0A4B9B68FB8172
:101CF000074B1B7ADBB2002B04D040220649054873
:101D00002EF0D0F9B7F90E3018461037BD4680BD19
:101D1000CC120020B41300200410002080B582B043
:101D200000AF03460A46FB801346BB800F4B1B7A6D
:101D3000DBB2002B06D040220D490E482EF0B2F93E
:101D400008F042FCB7F90430094A936008F048FCF7
:101D5000064B1B7ADBB2002B04D040220549044815
:101D60002EF0A0F900BF0837BD4680BDCC12002080
:101D7000B41300200410002080B584B000AF0346E7
:101D8000FB80104B1B7ADBB2002B06D040220E49A1
:101D90000E482EF087F908F017FC0B4B93F8213012
:101DA0005BB2FB73074B1B7ADBB2002B04D04022E3
:101DB000064905482EF076F9FB7B18461037BD46DC
:101DC00080BD00BFCC120020B413002004100020FE
:101DD00080B582B000AF03460A46FB8013467B7194
:101DE000104B1B7ADBB2002B06D040220E490F4865
:101DF0002EF058F908F0E8FB97F905200A4B83F814
:101E0000212008F0EDFB074B1B7ADBB2002B04D03E
:101E10004022064904482EF045F900BF0837BD4668
:101E200080BD00BFCC120020B4130020041000209D
:101E300080B584B000AF0346FB80104B1B7ADBB249
:101E4000002B06D040220E490E482EF02BF908F048
:101E5000BBFB0B4B93F822305BB2FB73074B1B7A37
:101E6000DBB2002B04D04022064905482EF01AF9B7
:101E7000FB7B18461037BD4680BD00BFCC1200204A
:101E8000B41300200410002080B582B000AF0346D8
:101E90000A46FB8013467B71104B1B7ADBB2002B8A
:101EA00006D040220E490F482EF0FCF808F08CFBBB
:101EB00097F905200A4B83F8222008F091FB074B85
:101EC0001B7ADBB2002B04D04022064904482EF0D6
:101ED000E9F800BF0837BD4680BD00BFCC12002026
:101EE000B41300200410002080B584B000AF034676
:101EF000FB80104B1B7ADBB2002B06D040220E4930
:101F00000E482EF0CFF808F05FFB0B4B93F8233010
:101F10005BB2FB73074B1B7ADBB2002B04D0402271
:101F2000064905482EF0BEF8FB7B18461037BD4623
:101F300080BD00BFCC120020B4130020041000208C
:101F400080B582B000AF03460A46FB8013467B7122
:101F5000104B1B7ADBB2002B06D040220E490F48F3
:101F60002EF0A0F808F030FB97F905200A4B83F813
:101F7000232008F035FB074B1B7ADBB2002B04D083
:101F80004022064904482EF08DF800BF0837BD46B0
:101F900080BD00BFCC120020B4130020041000202C
:101FA00080B485B000AF0346FB80054BDB68FB8146
:101FB000B7F90E3018461437BD465DF8047B7047FC
:101FC000B413002080B582B000AF03460A46FB8000
:101FD0001346BB80B7F90430034AD36008F000FB16
:101FE00000BF0837BD4680BDB413002080B485B063
:101FF00000AF0346FB80054B1B69FB81B7F90E3030
:1020000018461437BD465DF8047B7047B4130020B2
:1020100080B582B000AF03460A46FB801346BB8002
:10202000B7F90430034A136108F0DAFA00BF083741
:10203000BD4680BDB413002080B485B000AF034618
:10204000FB80064B93F827305BB2FB73FB7B184693
:102050001437BD465DF8047B704700BFB413002001
:1020600080B582B000AF03460A46FB8013467B7101
:10207000124B1B7ADBB2002B06D0402210491148CC
:102080002EF010F808F0A0FA97F905200C4B83F811
:10209000272008F0A5FA094B1B7ADBB2002B09D0E8
:1020A0004022084906482DF0FDFF97F90520044B12
:1020B00083F8272000BF0837BD4680BDCC12002022
:1020C000B41300200410002080B485B000AF034694
:1020D000FB80064B93F828305BB2FB73FB7B184602
:1020E0001437BD465DF8047B704700BFB413002071
:1020F00080B582B000AF03460A46FB8013467B7171
:10210000124B1B7ADBB2002B06D04022104911483B
:102110002DF0C8FF08F058FA97F905200C4B83F80A
:10212000282008F05DFA094B1B7ADBB2002B09D09E
:102130004022084906482DF0B5FF97F90520044BC9
:1021400083F8282000BF0837BD4680BDCC12002090
:10215000B41300200410002080B485B000AF034603
:10216000FB80064B93F82C305BB2FB73FB7B18466D
:102170001437BD465DF8047B704700BFB4130020E0
:1021800080B582B000AF03460A46FB8013467B71E0
:10219000124B1B7ADBB2002B06D0402210491148AB
:1021A0002DF080FF08F010FA97F905200C4B83F80A
:1021B0002C2008F015FA094B1B7ADBB2002B09D052
:1021C0004022084906482DF06DFF97F90520044B81
:1021D00083F82C2000BF0837BD4680BDCC120020FC
:1021E000B41300200410002080B584B000AF034673
:1021F000FB800F4B1B7ADBB2002B06D040220D492F
:102200000D482DF04FFF08F0DFF90A4BDB8DFB8105
:10221000074B1B7ADBB2002B04D04022064905484D
:102220002DF040FFFB8918461037BD4680BD00BF2A
:10223000CC120020B41300200410002080B582B01E
:1022400000AF03460A46FB801346BB800F4B1B7A48
:10225000DBB2002B06D040220D490E482DF022FFA4
:1022600008F0B2F90A4ABB88D38508F0B9F9074BE0
:102270001B7ADBB2002B04D04022064904482DF023
:1022800011FF00BF0837BD4680BD00BFCC12002043
:10229000B41300200410002080B584B000AF0346C2
:1022A000FB800F4B1B7ADBB2002B06D040220D497E
:1022B0000D482DF0F7FE08F087F90A4B1B8EFB81C5
:1022C000074B1B7ADBB2002B04D04022064905489D
:1022D0002DF0E8FEFB8918461037BD4680BD00BFD3
:1022E000CC120020B41300200410002080B582B06E
:1022F00000AF03460A46FB801346BB800F4B1B7A98
:10230000DBB2002B06D040220D490E482DF0CAFE4C
:1023100008F05AF90A4ABB88138608F061F9074B9E
:102320001B7ADBB2002B04D04022064904482DF072
:10233000B9FE00BF0837BD4680BD00BFCC120020EB
:10234000B41300200410002080B584B000AF034611
:10235000FB80114B1B7ADBB2002B06D040220F49C9
:102360000F482DF09FFE08F02FF9FB880B4A183319
:102370005B0013445B88FB81074B1B7ADBB2002BAD
:1023800004D04022064905482DF08CFEB7F90E30E6
:1023900018461037BD4680BDCC120020B413002073
:1023A0000410002080B582B000AF03460A46FB80CF
:1023B0001346BB80114B1B7ADBB2002B06D04022A8
:1023C0000F4910482DF06EFE08F0FEF8FB880C4A0D
:1023D00018335B001344BA885A8008F001F9074BA0
:1023E0001B7ADBB2002B04D04022064904482DF0B2
:1023F00059FE00BF0837BD4680BD00BFCC1200208B
:10240000B41300200410002080B584B000AF034650
:10241000FB800F4B1B7ADBB2002B06D040220D490C
:102420000D482DF03FFE08F0CFF80A4B93F83E30F0
:10243000FB73074B1B7ADBB2002B04D0402206490A
:1024400004482DF02FFEFB7B18461037BD4680BD9B
:10245000CC120020B41300200410002080B582B0FC
:1024600000AF03460A46FB8013467B710F4B1B7A75
:10247000DBB2002B06D040220D490E482DF012FE93
:1024800008F0A2F80A4A7B7982F83E3008F0A8F8F2
:10249000064B1B7ADBB2002B04D0402205490448CE
:1024A0002DF000FE00BF0837BD4680BDCC120020D5
:1024B000B41300200410002080B584B000AF0346A0
:1024C000FB80104B1B7ADBB2002B06D040220E495A
:1024D0000E482DF0E7FD08F077F80B4BB3F84030CD
:1024E000FB81084B1B7ADBB2002B04D0402207494A
:1024F00005482DF0D7FDB7F90E3018461037BD4608
:1025000080BD00BFCC120020B413002004100020B6
:1025100080B582B000AF03460A46FB801346BB80FD
:102520000F4B1B7ADBB2002B06D040220D490E4820
:102530002DF0B8FD08F048F80A4ABB88A2F84030F0
:1025400008F04EF8064B1B7ADBB2002B04D0402279
:10255000054904482DF0A6FD00BF0837BD4680BDE3
:10256000CC120020B41300200410002080B584B0E9
:1025700000AF0346FB800F4B1B7ADBB2002B06D06B
:1025800040220D490D482DF08DFD08F01DF80A4B35
:10259000B3F84230FB81074B1B7ADBB2002B04D02F
:1025A0004022064904482DF07DFDFB89184610376E
:1025B000BD4680BDCC120020B413002004100020C2
:1025C00080B582B000AF03460A46FB801346BB804D
:1025D0000F4B1B7ADBB2002B06D040220D490E4870
:1025E0002DF060FD07F0F0FF0A4ABB88A2F84230E8
:1025F00007F0F6FF064B1B7ADBB2002B04D040221B
:10260000054904482DF04EFD00BF0837BD4680BD8A
:10261000CC120020B41300200410002080B485B038
:1026200000AF0346FB80054B93F84430FB73FB7B04
:1026300018461437BD465DF8047B7047B41300207C
:1026400080B582B000AF03460A46FB8013467B711B
:1026500007F0BAFF174A7B7982F84430154B93F89C
:102660004430DBB2062B03D9124B002283F84420FE
:10267000114B012283F84A200E4B93F84430DBB211
:10268000032B03D10C4B022283F84A200A4B93F808
:102690004B30DAB2084B93F84A30DBB29A4201D0A1
:1026A0001BF03AFE07F09CFF23F0D8F800BF083774
:1026B000BD4680BDB4130020840C002080B485B0DA
:1026C00000AF0346FB800023FB73FB88012B05D87A
:1026D000FB88064A134493F83630FB73FB7B18469D
:1026E0001437BD465DF8047B704700BFB41300206B
:1026F00080B582B000AF03460A46FB8013467B716B
:10270000FB88012B1DD8114B1B7ADBB2002B06D0A6
:1027100040220F490F482DF0C5FC07F055FFFB88FC
:102720000B4A13447A7983F8362007F059FF074B98
:102730001B7ADBB2002B04D04022064904482DF05E
:10274000B1FC00BF0837BD4680BD00BFCC120020E1
:10275000B41300200410002080B485B000AF0346FD
:10276000FB800023FB73FB88012B05D8FB88064AFE
:10277000134493F83A30FB73FB7B18461437BD467D
:102780005DF8047B704700BFB413002080B582B0B1
:1027900000AF03460A46FB8013467B71FB88012B82
:1027A00023D8144B1B7ADBB2002B06D040221249EF
:1027B00012482DF077FC07F007FFFB880E4A134400
:1027C0007A7983F83A2007F00BFF0A4B1B7ADBB2C9
:1027D000002B0AD04022094907482DF063FCFB88F2
:1027E000054A13447A7983F83A2000BF0837BD467A
:1027F00080BD00BFCC120020B413002004100020C4
:1028000080B584B000AF0346FB800F4B1B7ADBB270
:10281000002B06D040220C490C482DF043FC07F059
:1028200043FE094B1B78FB73074B1B7ADBB2002B73
:1028300004D04022054904482DF034FCFB7B1846A7
:102840001037BD4680BD00BFCC1200200410002010
:1028500080B582B000AF03460A46FB8013467B7109
:102860000F4B1B7ADBB2002B06D040220C490D48DF
:102870002DF018FC07F018FE094A7B79137007F059
:102880001FFE074B1B7ADBB2002B04D04022054908
:1028900003482DF007FC00BF0837BD4680BD00BFD0
:1028A000CC1200200410002080B584B000AF034695
:1028B000FB800F4B1B7ADBB2002B06D040220C4969
:1028C0000C482DF0EFFB07F0EFFD094B5B78FB7335
:1028D000074B1B7ADBB2002B04D040220549044889
:1028E0002DF0E0FBFB7B18461037BD4680BD00BFD6
:1028F000CC1200200410002080B582B000AF034647
:102900000A46FB8013467B710F4B1B7ADBB2002B10
:1029100006D040220C490D482DF0C4FB07F0C4FD41
:10292000094A7B79537007F0CBFD074B1B7ADBB26A
:10293000002B04D04022054903482DF0B3FB00BF13
:102940000837BD4680BD00BFCC1200200410002017
:1029500080B584B000AF0346FB80134B1B7ADBB21B
:10296000002B06D04022104910482DF09BFB07F0A9
:102970009BFD0D4B1B78DBB203F00103002B14BF52
:1029800001230023DBB2FB73074B1B7ADBB2002B66
:1029900004D04022054904482DF084FBFB7B1846F7
:1029A0001037BD4680BD00BFCC12002004100020AF
:1029B00080B582B000AF03460A46FB8013467B71A8
:1029C000174B1B7ADBB2002B06D040221449154866
:1029D0002DF068FB07F068FD114B1B78DBB223F08C
:1029E0000103DAB20E4B1A707B79002B07D00C4B27
:1029F0001B78DBB243F00103DAB2094B1A7007F01F
:102A00005FFD074B1B7ADBB2002B04D04022054947
:102A100003482DF047FB00BF0837BD4680BD00BF0F
:102A2000CC1200200410002080B584B000AF034613
:102A3000FB80134B1B7ADBB2002B06D040221049DF
:102A400010482DF02FFB07F02FFD0D4B1B78DBB24C
:102A500003F00203002B14BF01230023DBB2FB733E
:102A6000074B1B7ADBB2002B04D0402205490448F7
:102A70002DF018FBFB7B18461037BD4680BD00BF0C
:102A8000CC1200200410002080B582B000AF0346B5
:102A90000A46FB8013467B71174B1B7ADBB2002B77
:102AA00006D04022144915482DF0FCFA07F0FCFC32
:102AB000114B1B78DBB223F00203DAB20E4B1A7013
:102AC0007B79002B07D00C4B1B78DBB243F0020361
:102AD000DAB2094B1A7007F0F3FC074B1B7ADBB232
:102AE000002B04D04022054903482DF0DBFA00BF3B
:102AF0000837BD4680BD00BFCC1200200410002066
:102B000080B584B000AF0346FB80134B1B7ADBB269
:102B1000002B06D04022104910482DF0C3FA07F0D0
:102B2000C3FC0D4B1B78DBB203F00403002B14BF76
:102B300001230023DBB2FB73074B1B7ADBB2002BB4
:102B400004D04022054904482DF0ACFAFB7B18461E
:102B50001037BD4680BD00BFCC12002004100020FD
:102B600080B582B000AF03460A46FB8013467B71F6
:102B7000174B1B7ADBB2002B06D0402214491548B4
:102B80002DF090FA07F090FC114B1B78DBB223F08C
:102B90000403DAB20E4B1A707B79002B07D00C4B72
:102BA0001B78DBB243F00403DAB2094B1A7007F06A
:102BB00087FC074B1B7ADBB2002B04D0402205496F
:102BC00003482DF06FFA00BF0837BD4680BD00BF37
:102BD000CC1200200410002080B584B000AF034662
:102BE000FB80134B1B7ADBB2002B06D0402210492E
:102BF00010482DF057FA07F057FC0D4B1B78DBB24D
:102C000003F00803002B14BF01230023DBB2FB7386
:102C1000074B1B7ADBB2002B04D040220549044845
:102C20002DF040FAFB7B18461037BD4680BD00BF33
:102C3000CC1200200410002080B582B000AF034603
:102C40000A46FB8013467B71174B1B7ADBB2002BC5
:102C500006D04022144915482DF024FA07F024FC30
:102C6000114B1B78DBB223F00803DAB20E4B1A705B
:102C70007B79002B07D00C4B1B78DBB243F00803A9
:102C8000DAB2094B1A7007F01BFC074B1B7ADBB258
:102C9000002B04D04022054903482DF003FA00BF61
:102CA0000837BD4680BD00BFCC12002004100020B4
:102CB00080B584B000AF0346FB80134B1B7ADBB2B8
:102CC000002B06D04022104910482DF0EBF907F0F8
:102CD000EBFB0D4B1B78DBB203F01003002B14BF92
:102CE00001230023DBB2FB73074B1B7ADBB2002B03
:102CF00004D04022054904482DF0D4F9FB7B184646
:102D00001037BD4680BD00BFCC120020041000204B
:102D100080B582B000AF03460A46FB8013467B7144
:102D2000174B1B7ADBB2002B06D040221449154802
:102D30002DF0B8F907F0B8FB114B1B78DBB223F08C
:102D40001003DAB20E4B1A707B79002B07D00C4BB4
:102D50001B78DBB243F01003DAB2094B1A7007F0AC
:102D6000AFFB074B1B7ADBB2002B04D04022054996
:102D700003482DF097F900BF0837BD4680BD00BF5E
:102D8000CC1200200410002080B584B000AF0346B0
:102D9000FB80134B1B7ADBB2002B06D0402210497C
:102DA00010482DF07FF907F07FFB0D4B1B78DBB24D
:102DB00003F02003002B14BF01230023DBB2FB73BD
:102DC000074B1B7ADBB2002B04D040220549044894
:102DD0002DF068F9FB7B18461037BD4680BD00BF5B
:102DE000CC1200200410002080B582B000AF034652
:102DF0000A46FB8013467B71174B1B7ADBB2002B14
:102E000006D04022144915482DF04CF907F04CFB30
:102E1000114B1B78DBB223F02003DAB20E4B1A7091
:102E20007B79002B07D00C4B1B78DBB243F02003DF
:102E3000DAB2094B1A7007F043FB074B1B7ADBB27F
:102E4000002B04D04022054903482DF02BF900BF88
:102E50000837BD4680BD00BFCC1200200410002002
:102E600080B584B000AF0346FB80134B1B7ADBB206
:102E7000002B06D04022104910482DF013F907F01E
:102E800013FB0D4B5B78DBB203F00103002B14BF87
:102E900001230023DBB2FB73074B1B7ADBB2002B51
:102EA00004D04022054904482DF0FCF8FB7B18466D
:102EB0001037BD4680BD00BFCC120020041000209A
:102EC00080B582B000AF03460A46FB8013467B7193
:102ED000174B1B7ADBB2002B06D040221449154851
:102EE0002DF0E0F807F0E0FA114B5B78DBB223F04D
:102EF0000103DAB20E4B5A707B79002B07D00C4BD2
:102F00005B78DBB243F00103DAB2094B5A7007F089
:102F1000D7FA074B1B7ADBB2002B04D040220549BD
:102F200003482DF0BFF800BF0837BD4680BD00BF85
:102F3000CC1200200410002080B584B000AF0346FE
:102F4000FB80134B1B7ADBB2002B06D040221049CA
:102F500010482DF0A7F807F0A7FA0D4B5B78DBB20D
:102F600003F00203002B14BF01230023DBB2FB7329
:102F7000074B1B7ADBB2002B04D0402205490448E2
:102F80002DF090F8FB7B18461037BD4680BD00BF82
:102F9000CC1200200410002080B582B000AF0346A0
:102FA0000A46FB8013467B71174B1B7ADBB2002B62
:102FB00006D04022144915482DF074F807F074FA31
:102FC000114B5B78DBB223F00203DAB20E4B5A707E
:102FD0007B79002B07D00C4B5B78DBB243F002030C
:102FE000DAB2094B5A7007F06BFA074B1B7ADBB267
:102FF000002B04D04022054903482DF053F800BFB0
:103000000837BD4680BD00BFCC1200200410002050
:1030100080B584B000AF0346FB80134B1B7ADBB254
:10302000002B06D04022104910482DF03BF807F045
:103030003BFA0D4B5B78DBB203F00403002B14BFAB
:1030400001230023DBB2FB73074B1B7ADBB2002B9F
:1030500004D04022054904482DF024F8FB7B184693
:103060001037BD4680BD00BFCC12002004100020E8
:1030700080B582B000AF03460A46FB8013467B71E1
:10308000174B1B7ADBB2002B06D04022144915489F
:103090002DF008F807F008FA114B5B78DBB223F04B
:1030A0000403DAB20E4B5A707B79002B07D00C4B1D
:1030B0005B78DBB243F00403DAB2094B5A7007F0D5
:1030C000FFF9074B1B7ADBB2002B04D040220549E5
:1030D00003482CF0E7FF00BF0837BD4680BD00BFA6
:1030E000CC1200200410002080B584B000AF03464D
:1030F000FB80134B1B7ADBB2002B06D04022104919
:1031000010482CF0CFFF07F0CFF90D4B5B78DBB206
:1031100003F00803002B14BF01230023DBB2FB7371
:10312000074B1B7ADBB2002B04D040220549044830
:103130002CF0B8FFFB7B18461037BD4680BD00BFA2
:10314000CC1200200410002080B582B000AF0346EE
:103150000A46FB8013467B71174B1B7ADBB2002BB0
:1031600006D04022144915482CF09CFF07F09CF92A
:10317000114B5B78DBB223F00803DAB20E4B5A70C6
:103180007B79002B07D00C4B5B78DBB243F0080354
:10319000DAB2094B5A7007F093F9074B1B7ADBB28E
:1031A000002B04D04022054903482CF07BFF00BFD0
:1031B0000837BD4680BD00BFCC120020041000209F
:1031C00080B584B000AF0346FB800F4B1B7ADBB2A7
:1031D000002B06D040220C490C482CF063FF07F06E
:1031E00063F9094B1B79FB73074B1B7ADBB2002B8E
:1031F00004D04022054904482CF054FFFB7B1846BC
:103200001037BD4680BD00BFCC1200200410002046
:1032100080B582B000AF03460A46FB8013467B713F
:103220000F4B1B7ADBB2002B06D040220C490D4815
:103230002CF038FF07F038F9094A7B79137107F051
:103240003FF9074B1B7ADBB2002B04D04022054923
:1032500003482CF027FF00BF0837BD4680BD00BFE4
:10326000CC1200200410002080B584B000AF0346CB
:10327000FB800F4B1B7ADBB2002B06D040220C499F
:103280000C482CF00FFF07F00FF9094BDB881BB23D
:10329000FB81074B1B7ADBB2002B04D0402205498F
:1032A00003482CF0FFFEFB8918461037BD4680BD51
:1032B000CC1200200410002080B582B000AF03467D
:1032C0000A46FB801346BB800F4B1B7ADBB2002BF8
:1032D00006D040220C490D482CF0E4FE07F0E4F83B
:1032E000B7F90420084BDA8007F0EAF8064B1B7A9E
:1032F000DBB2002B04D04022044903482CF0D2FE5C
:1033000000BF0837BD4680BDCC120020041000204D
:1033100080B485B000AF0346FB80054B93F82B309B
:10332000FB73FB7B18461437BD465DF8047B704782
:10333000CC12002080B582B000AF03460A46FB8065
:1033400013467B71114B1B7ADBB2002B06D0402257
:103350000E490F482CF0A6FE07F0A6F80B4A7B7921
:1033600082F82B3007F0ACF8084B1B7ADBB2002B4D
:1033700008D04022064905482CF094FE034A7B7988
:1033800082F82B3000BF0837BD4680BDCC1200202C
:103390000410002080B485B000AF0346FB80054BCD
:1033A0009B8D1BB2FB81FB8918461437BD465DF827
:1033B000047B7047CC12002080B582B000AF03467A
:1033C0000A46FB801346BB80114B1B7ADBB2002BF5
:1033D00006D040220E490F482CF064FE07F064F836
:1033E000B7F904200A4B9A8507F06AF8084B1B7A54
:1033F000DBB2002B08D04022064905482CF052FED3
:10340000B7F90420024B9A8500BF0837BD4680BD3E
:10341000CC1200200410002080B485B000AF034619
:10342000FB80054B9B78FB73FB7B18461437BD462E
:103430005DF8047B704700BFCC12002080B582B0DD
:1034400000AF03460A46FB8013467B71104B1B7A84
:10345000DBB2002B06D040220D490E482CF022FE94
:1034600007F022F80A4A7B79937007F029F8084B95
:103470001B7ADBB2002B07D04022064904482CF00F
:1034800011FE034A7B79937000BF0837BD4680BDAB
:10349000CC1200200410002080B485B000AF034699
:1034A000FB80054BDB78FB73FB7B18461437BD466E
:1034B0005DF8047B704700BFCC12002080B582B05D
:1034C00000AF03460A46FB8013467B71104B1B7A04
:1034D000DBB2002B06D040220D490E482CF0E2FD55
:1034E00006F0E2FF0A4A7B79D37006F0E9FF084B49
:1034F0001B7ADBB2002B07D04022064904482CF08F
:10350000D1FD034A7B79D37000BF0837BD4680BD2B
:10351000CC1200200410002080B485B000AF034618
:10352000FB80FB88002B03D1084B1B7AFB7306E062
:10353000FB88012B03D1054B93F83C30FB73FB7BDD
:1035400018461437BD465DF8047B7047CC12002046
:1035500080B582B000AF03460A46FB8013467B71FC
:10356000184B1B7ADBB2002B06D0402215491648B7
:103570002CF098FD06F098FFFB88002B03D1114A30
:103580007B79137206E0FB88012B03D10D4A7B790E
:1035900082F83C3006F094FF0A4B1B7ADBB2002B1A
:1035A00007D04022084907482CF07CFD054A7B796A
:1035B000137222F053F91BF001FF00BF0837BD461C
:1035C00080BD00BFCC1200200410002080B485B064
:1035D00000AF0346FB80054B5B7AFB73FB7B184611
:1035E0001437BD465DF8047B704700BFCC12002045
:1035F00080B582B000AF03460A46FB8013467B715C
:10360000104B1B7ADBB2002B06D040220D490E482E
:103610002CF048FD06F048FF0A4A7B79537206F009
:103620004FFF084B1B7ADBB2002B07D04022064924
:1036300004482CF037FD034A7B79537200BF0837EA
:10364000BD4680BDCC1200200410002080B485B09F
:1036500000AF0346FB80054B9B7AFB73FB7B184650
:103660001437BD465DF8047B704700BFCC120020C4
:1036700080B582B000AF03460A46FB8013467B71DB
:10368000104B1B7ADBB2002B06D040220D490E48AE
:103690002CF008FD06F008FF0A4A7B79937206F0C9
:1036A0000FFF084B1B7ADBB2002B07D040220649E4
:1036B00004482CF0F7FC034A7B79937200BF08376B
:1036C000BD4680BDCC1200200410002080B485B01F
:1036D00000AF0346FB800023FB73FB881F2B04D83D
:1036E000FB88054A1344DB7AFB73FB7B18461437CF
:1036F000BD465DF8047B7047CC12002080B582B0D7
:1037000000AF03460A46FB8013467B71FB881F2BE4
:1037100021D8134B1B7ADBB2002B06D04022104974
:1037200010482CF0BFFC06F0BFFEFB880C4A134487
:103730007A79DA7206F0C4FE094B1B7ADBB2002BF1
:1037400009D04022074906482CF0ACFCFB88044A0B
:1037500013447A79DA7200BF0837BD4680BD00BFD6
:10376000CC1200200410002080B485B000AF0346C6
:10377000FB80054B93F82E30FB73FB7B1846143708
:10378000BD465DF8047B7047CC12002080B582B046
:1037900000AF03460A46FB8013467B71114B1B7A30
:1037A000DBB2002B06D040220E490F482CF07AFCE9
:1037B00006F07AFE0B4A7B7982F82E3006F080FE06
:1037C000084B1B7ADBB2002B08D040220649054883
:1037D0002CF068FC034A7B7982F82E3000BF083752
:1037E000BD4680BDCC1200200410002080B485B0FE
:1037F00000AF0346FB80054B93F82F30FB73FB7B38
:1038000018461437BD465DF8047B7047CC12002083
:1038100080B582B000AF03460A46FB8013467B7139
:10382000114B1B7ADBB2002B06D040220E490F4809
:103830002CF038FC06F038FE0B4A7B7982F82F30EA
:1038400006F03EFE084B1B7ADBB2002B08D040226C
:10385000064905482CF026FC034A7B7982F82F3074
:1038600000BF0837BD4680BDCC12002004100020E8
:1038700080B584B000AF0346FB800023FB81FB884A
:10388000012B1BD8104B1B7ADBB2002B06D0402239
:103890000D490E482CF006FC06F006FEFB880A4A8D
:1038A000183332F81330FB81074B1B7ADBB2002B45
:1038B00004D04022054904482CF0F4FBB7F90E303F
:1038C00018461037BD4680BDCC12002004100020E1
:1038D00080B582B000AF03460A46FB801346BB802A
:1038E000FB88012B1DD8114B1B7ADBB2002B06D0B5
:1038F00040220E490E482CF0D5FB06F0D5FDFB8882
:103900000A491833BA8821F8132006F0D9FD074B6D
:103910001B7ADBB2002B04D04022054903482CF06F
:10392000C1FB00BF0837BD4680BD00BFCC120020E0
:103930000410002080B584B000AF0346FB800F4B1D
:103940001B7ADBB2002B06D040220C490C482CF02D
:10395000A9FB06F0A9FD094B93F83430FB73074B24
:103960001B7ADBB2002B04D04022054903482CF01F
:1039700099FBFB7B18461037BD4680BDCC1200205A
:103980000410002080B582B000AF03460A46FB80D9
:1039900013467B710F4B1B7ADBB2002B06D0402203
:1039A0000C490D482CF07EFB06F07EFD094A7B7920
:1039B00082F8343006F084FD064B1B7ADBB2002B14
:1039C00004D04022044903482CF06CFB00BF0837A8
:1039D000BD4680BDCC1200200410002080B485B00C
:1039E00000AF0346FB80FB88054A134493F835304B
:1039F000FB73FB7B18461437BD465DF8047B7047AC
:103A0000CC12002080B582B000AF03460A46FB808E
:103A100013467B71134B1B7ADBB2002B06D040227E
:103A2000104911482CF03EFB06F03EFDFB880D4A84
:103A300013447A7983F8352006F042FD094B1B7A4E
:103A4000DBB2002B0AD04022074906482CF02AFBA3
:103A5000FB88044A13447A7983F8352000BF08377D
:103A6000BD4680BDCC1200200410002080B485B07B
:103A700000AF0346FB80FB88054A134493F83730B8
:103A8000FB73FB7B18461437BD465DF8047B70471B
:103A9000CC12002080B582B000AF03460A46FB80FE
:103AA00013467B71134B1B7ADBB2002B06D04022EE
:103AB000104911482CF0F6FA06F0F6FCFB880D4A86
:103AC00013447A7983F8372006F0FAFC094B1B7A05
:103AD000DBB2002B0AD04022074906482CF0E2FA5C
:103AE000FB88044A13447A7983F8372000BF0837EB
:103AF000BD4680BDCC1200200410002080B485B0EB
:103B000000AF0346FB80054B93F83930FB73FB7B1A
:103B100018461437BD465DF8047B7047CC12002070
:103B200080B582B000AF03460A46FB8013467B7126
:103B3000114B1B7ADBB2002B06D040220E490F48F6
:103B40002CF0B0FA06F0B0FC0B4A7B7982F83930E1
:103B500006F0B6FC084B1B7ADBB2002B08D04022E3
:103B6000064905482CF09EFA034A7B7982F83930E1
:103B700000BF0837BD4680BDCC12002004100020D5
:103B800080B485B000AF0346FB80054B5B8FFB81A3
:103B9000B7F90E3018461437BD465DF8047B704700
:103BA000CC12002080B582B000AF03460A46FB80ED
:103BB0001346BB80104B1B7ADBB2002B06D0402291
:103BC0000D490E482CF06EFA06F06EFC0A4ABB88CE
:103BD000538706F075FC084B1B7ADBB2002B07D02D
:103BE0004022064904482CF05DFA034ABB885387FB
:103BF00000BF0837BD4680BDCC1200200410002055
:103C000080B485B000AF0346FB80B7F906201346A9
:103C10009B0013445B00FB60FB68A3F5A072134696
:103C20009B001344104A82FB03125210DB17D31A75
:103C3000FB60FB68002B03DAFB68053BFB6002E0DE
:103C4000FB680533FB60FB68084A82FB0312921095
:103C5000DB17D31AFB60FB681BB218461437BD464E
:103C60005DF8047B704700BF398EE338676666668F
:103C700080B584B000AF03460A46FB711346BB71A2
:103C800097F90730BD4A134493F83830DBB2002B64
:103C900040F0EB8197F90730B84A0A3352F82330E5
:103CA000FB60FB6845F2EF52934203DC0A2012F0FE
:103CB00089F9DBE1B24B93F84430DBB2052B0DD12F
:103CC000B04B1B7ADBB2032B08D1AF4B1B79DBB2B5
:103CD000012B03D00A2012F075F9C7E197F90630DD
:103CE000184606F0F9FE97F90630A84AA22101FB12
:103CF00003F31344A0331B78DBB2012B03D00A205B
:103D000012F060F9B2E1BB79012118460DF07AFF9B
:103D100097F90630184600F095FBB86097F9073020
:103D2000964A0521D15497F90730944A1344BA7939
:103D30001A7197F906309BB219464FF4FA600EF0EB
:103D40003BF897F90630184602F0A4F897F90620D8
:103D50008F4913465B0013449B000B4401221A70E9
:103D600097F90620BB6807EE903AF8EEE77A8849A3
:103D700013465B0013449B000B440433C3ED007AED
:103D800002F0A6FB97F90730184601F0CFFE97F92D
:103D90000730184601F0FEFFBB790133DAB297F91C
:103DA000073051B27B4A13440A469A7197F907309B
:103DB000784A134400221A7297F90730764A032191
:103DC00042F8231097F90730744A0121D15497F92A
:103DD0000730734A0021D15497F90730714A002106
:103DE000D15497F90730704A0021D15400F03AFEBF
:103DF000634B93F84430DBB2052B10D197F90620C2
:103E00006A4913465B0113449B000B4404331B684F
:103E1000002B04D097F90730614A0121D154584B47
:103E200093F84430DBB2032B38D0554B93F8443031
:103E3000DBB2042B32D0534B5B78DBB203F00203CE
:103E4000002B2BD05A4B1B889BB223F080039AB2D5
:103E5000574B1A8000F0CAFE97F90630554A1344B2
:103E600093F82830DBB2012B18D1514B1B889BB241
:103E700043F080039AB24E4B1A8097F906204449CA
:103E800013465B0013449B000B4408331B785AB263
:103E900097F906301146184600F000FF384B93F8AA
:103EA0004430DBB2042B17D1434BFF22DA70344B82
:103EB00093F83E30DBB2002B0ED0314B93F83E30FE
:103EC000DBB29BB21A46920013445B009AB23B4BA2
:103ED0005A85394ABB79D3702A4B93F83430DBB218
:103EE000012B24D197F907301633344A002122F8E8
:103EF000131097F90730324A942101FB03F313445E
:103F0000863300221A7097F907302D4A942101FB5D
:103F100003F31344873300221A7097F90730284AB5
:103F2000942101FB03F31344903301221A70154BC3
:103F30005B78DBB203F00803002B00F08180104BAC
:103F400093F84430DBB2042B54D11E4B93ED007A2E
:103F50001D4BD3ED007A37EE677A094BB3F840304A
:103F60001BB207EE903AF8EEE77AB4EEE77AF1EE9C
:103F700010FA2DD5154B00221A702CE0840C00206D
:103F8000B4130020CC1200201412002018270020A7
:103F9000040D002094130020B4350020A835002023
:103FA000B035002030360020BC120020C81C002094
:103FB000DA0F0020F40D0020C41C0020C8350020BA
:103FC00064340020C80F002020120020203600207A
:103FD000284B01221A7097F90620274913465B01E6
:103FE00013449B000B447A331B889BB21A46234B25
:103FF0001A6025E097F907301E4A0121D15497F93C
:104000000730002B0ED197F906201B4913465B01A0
:1040100013449B000B447A331B889BB21A46174B00
:104020001A600DE097F90620134913465B0113440B
:104030009B000B447A331B889BB21A46104B1A60C4
:1040400097F906300F4A52F823200F4B1B68134391
:104050000D4A136097F906300A4A52F823200B4B99
:104060001B681343094A136000E000BF1037BD46C8
:1040700080BD00BF20360020C81C00204012002058
:104080004C1200207C2A04003436002038360020F0
:1040900080B584B000AF0346FB710B46BB7113467D
:1040A0007B717A7997F9061097F90730184601F075
:1040B000F7FFB54B1B889BB203F01003002B02D017
:1040C000012011F0BFFE97F90730184600F042FAC0
:1040D0000346FB73FB7B012B40F0D180AB4B93F885
:1040E0004430DBB2042B02D107F04CFB0CE0A74BB1
:1040F00093F84430DBB2052B06D1A54B1B7ADBB21B
:10410000032B01D107F05AFFA14B93F83430DBB2F7
:10411000012B1ED197F907309E4AD35C5BB2002B6E
:1041200017D09D4B1B8A9AB297F907301633114668
:1041300089000A44520091B2984A22F8131097F964
:104140000730974A942101FB03F313449033002274
:104150001A7097F907308F4A0021D15400F082FC81
:104160008A4B93F84430DBB2032B18D0874B93F87B
:104170004430DBB2042B12D0854B5B78DBB203F00A
:104180000203002B0BD0874B1B889BB223F08003CC
:104190009AB2844B1A800021132018F0C5FA97F9BF
:1041A0000730814A1344FF229A7197F9062097F944
:1041B00007301146184600F07BFB97F907307B4A21
:1041C00052F823300A2B0CD197F9073000211846FA
:1041D0000DF0B6FD97F90730754A134400229A7125
:1041E0003CE097F90730714A52F82330052B12D181
:1041F00097F90730002118460DF0A2FD97F9073016
:10420000694A1344BA799A7197F90730684A134496
:1042100000229A7122E097F90730644A52F823305D
:10422000002B0CD197F90730002118460DF088FDBE
:1042300097F907305E4A134400229A710EE097F90D
:104240000730594A0221D154BB790133DAB297F9C8
:10425000073051B2564A13440A469A7197F907300B
:10426000534A134400221A7297F90730514A002129
:10427000D15497F90730504A0021D1540FE0434BF5
:1042800093F84430DBB2042B09D14C4BDB785BB2A2
:1042900097F906209A4202D1404B00225A857B7939
:1042A000012B00F0988097F9063018460AF0FEFBC3
:1042B0000346FB73FB7B012B40F08D80394B1B8841
:1042C0009BB203F01003002B07D097F9062097F953
:1042D0000730114618460AF02FFB97F90620384997
:1042E00013465B0113449B000B447F331B78DBB206
:1042F000002B69D12B4B1B889BB243F010039AB261
:10430000284B1A80284B002283F85C2097F906304E
:104310002C4A12F83330DBB2012B0ED197F906305C
:104320000022002118460AF0BFFA97F90630194614
:1043300040F2D9700AF09EFD16E097F90630214A46
:1043400012F83330DBB2022B0ED197F9061097F931
:104350000730012218460AF097FC97F906301946F3
:1043600040F2D7700AF086FD97F90630012201214C
:1043700018460AF099FA97F90630194640F2D670B5
:104380000AF078FD27E000BFD80F0020B41300200A
:10439000CC120020A8350020C0330020C8350020F2
:1043A00064340020DA0F0020840C0020B435002093
:1043B00094130020B035002030360020C41C0020AB
:1043C000C81C0020C00E002097F9063001220321EE
:1043D00018460AF069FA154B1B889BB223F4007348
:1043E0009AB2124B1A80124B002283F85C2097F984
:1043F0000630104A52F82330BB60BB68DA430E4BDC
:104400001B6813400C4A1360BB68DA430B4B1B68F4
:1044100013400A4A1360BB68DA43094B1B68134018
:10442000074A136000BF1037BD4680BDD80F00207B
:10443000840C00207C2A040034360020383600200A
:104440003C36002080B485B000AF0346FB7197F97D
:1044500007200B4913465B0113449B000B441B6868
:10446000FB60FA6813469B0013445B000933FB6052
:10447000FB6818461437BD465DF8047B704700BFE3
:10448000C81C002080B485B000AF0346FB7197F9CB
:104490000720074913465B0013449B000B441B781D
:1044A000FB73FB7B18461437BD465DF8047B7047F1
:1044B000040D002080B485B000AF0346FB710023DB
:1044C000FB7397F90730002B1DD1214B1B889BB242
:1044D00003F00103002B02D00123FB7330E01C4BDF
:1044E0001B889BB203F00403002B02D00223FB7352
:1044F00026E0174B1B889BB203F02003002B1FD034
:104500000323FB731CE0124B1B889BB203F00203D6
:10451000002B02D00123FB7312E00D4B1B889BB2D2
:1045200003F00803002B02D00223FB7308E0084BC2
:104530001B889BB203F04003002B01D00323FB73C5
:10454000FB7B18461437BD465DF8047B704700BFFF
:10455000DA0F002080B584B000AF0346FB71FF2363
:10456000BB730023FB7321E097F90F2097F9073005
:104570001146184601F024FA03467B737B7B012B1E
:104580000ED197F90F20114913465B0013449B008D
:104590000B441B78DBB2002B02D0FB7BBB7309E022
:1045A00097F90F30DBB20133DBB2FB7397F90F30B1
:1045B000132BD9DD97F90E30B3F1FF3F01D1012361
:1045C00000E0002318461037BD4680BD040D0020D2
:1045D00080B584B000AF0346FB71FF23BB7300239B
:1045E000FB732DE097F90F2097F907301146184615
:1045F00001F0E6F903467B737B7B012B1AD197F917
:104600000F20174913465B0013449B000B441B7893
:10461000DBB2012B0BD097F90F20114913465B0039
:1046200013449B000B441B78DBB2022B02D1FB7BB3
:10463000BB7309E097F90F30DBB20133DBB2FB73D8
:1046400097F90F30132BCDDD97F90E30B3F1FF3F03
:1046500001D1002300E0012318461037BD4680BD7C
:10466000040D002080B584B000AF0346FB71FF232A
:10467000BB730023FB7321E097F90F2097F90730F4
:104680001146184601F09CF903467B737B7B012B96
:104690000ED197F90F20114913465B0013449B007C
:1046A0000B441B78DBB2032B02D1FB7BBB7309E00D
:1046B00097F90F30DBB20133DBB2FB7397F90F30A0
:1046C000132BD9DD97F90E30B3F1FF3F01D1002351
:1046D00000E0012318461037BD4680BD040D0020C0
:1046E00080B584B000AF0346FB71FF23BB7300238A
:1046F000FB7321E097F90F2097F907301146184610
:1047000001F05EF903467B737B7B012B0ED197F999
:104710000F20114913465B0013449B000B441B7888
:10472000DBB2022B02D1FB7BBB7309E097F90F30A0
:10473000DBB20133DBB2FB7397F90F30132BD9DDFA
:1047400097F90E30B3F1FF3F01D1002300E00123C0
:1047500018461037BD4680BD040D002080B485B0DA
:1047600000AF0346FB710023FB7397F90730002B62
:1047700017D11B4B1B889BB203F00103002B0DD1FB
:10478000174B1B889BB203F00403002B06D1144B7C
:104790001B889BB203F02003002B19D00123FB736D
:1047A00016E00F4B1B889BB203F00203002B0DD1C8
:1047B0000B4B1B889BB203F00803002B06D1084B60
:1047C0001B889BB203F04003002B01D00123FB7335
:1047D000FB7B18461437BD465DF8047B704700BF6D
:1047E000DA0F002080B582B000AF03460A46FB71A5
:1047F0001346BB7197F90630184606F06DF997F924
:10480000062097F907301146184601F087FB97F903
:104810000730204A1344BA791A7197F907301D4AB4
:10482000134493F83830DBB2032B05D197F90730E6
:104830000021184604F008FE97F90730184601F0E9
:10484000A9FABB790133DAB297F9073051B2124AAB
:1048500013440A469A7197F90730104A032142F827
:10486000231097F907300E4A0021D15497F90730E9
:104870000C4A0021D15497F907300B4A0021D1543A
:1048800097F90730094A0021D15400BF0837BD46C7
:1048900080BD00BF840C002094130020B43500209C
:1048A000A8350020B035002030360020BC12002092
:1048B00080B584B000AF03460A46FB711346BB7156
:1048C00097F907305F4AD35C5BB2002B10D097F9A1
:1048D00007305D4A032142F8231097F907305B4AFD
:1048E0000021D15497F90730594A0221D154A6E04A
:1048F0000023FB7397F90730184600F0F5FC0346D8
:10490000BB8197F90620534913465B0113449B0072
:104910000B4476331B78DBB2002B56D097F9073067
:104920004D4A13441B7A5BB2012B62D197F90620E2
:10493000484913465B0113449B000B4476331B78B4
:10494000DBB2642B0CD1454B5B69002B51DDB7F911
:104950000C20424B5B699A424BDB0123FB7348E01E
:1049600097F906303E4AD35C5BB2184697F90620A9
:10497000384913465B0113449B000B4476331B7884
:10498000DBB2984202DB0123FB7332E0B7F90C1073
:1049900097F906202F4813465B0113449B000344FC
:1049A00076331B78DBB2994202DB0123FB7320E0F4
:1049B0002A4B5B69002B1CDDB7F90C20274B5B6988
:1049C0009A4216DB0123FB7313E097F90730224A62
:1049D00013441B7A5BB2012B0BD1204B5B69002B7C
:1049E00007DDB7F90C201D4B5B699A4201DB0123FF
:1049F000FB73FB7B012B05D197F90730184600F0BC
:104A000071FA1CE097F90620124913465B01134422
:104A10009B000B4476331B78DBB2002B05D097F953
:104A20000730184600F0E8FA09E097F90730184611
:104A300000F08EFB97F90730184600F00BFC10379A
:104A4000BD4680BDA8350020B4350020303600209A
:104A5000840C0020C81C002094130020B4130020F4
:104A60008814002080B483B000AF5C4B93F84430CE
:104A7000DBB2012B00F0A680584B93F84430DBB238
:104A8000022B00F09F80554B93F84430DBB2052B8E
:104A900000F09A80524B5B78DBB203F00203002BEC
:104AA00040F094804E4B1B78DBB203F02003002BC8
:104AB00000F08E800023BB7100237B710023FB710B
:104AC0004EE0FA79474913465B0013449B000B44C0
:104AD0001B78DBB2012B0AD0FA79424913465B00FE
:104AE00013449B000B441B78DBB2022B34D1FB79BF
:104AF000132B32D801A252F823F000BF4D4B010016
:104B00004D4B01004D4B01004D4B01004D4B010041
:104B1000534B0100534B0100534B0100534B010019
:104B2000534B01004D4B01004D4B01004D4B01001B
:104B30004D4B01004D4B0100534B0100534B010005
:104B4000534B0100534B0100534B01000123BB7138
:104B500003E001237B7100E000BFFB790133FB71AF
:104B6000FB79132BADD9204B1B889BB223F0040398
:104B70009AB21D4B1A8000233B71BB79012B09D1DE
:104B8000194B1B889BB243F004039AB2164B1A8050
:104B900001233B71144B1B889BB223F008039AB28C
:104BA000114B1A8000233B717B79012B11D10E4BE5
:104BB0001B889BB243F008039AB20B4B1A80012367
:104BC0003B7106E000BF04E000BF02E000BF00E070
:104BD00000BF0C37BD465DF8047B7047B41300205E
:104BE000CC120020040D0020D40F002080B483B02C
:104BF00000AF0023FB7142E097F90730254A1344C8
:104C0000002283F828200023BB712CE097F90720AD
:104C100097F90610204813465B0113440B4450F8E3
:104C20002330002B24DD97F9072097F906101A4846
:104C300013465B0113449B0003440B4436331B783B
:104C4000DBB203F00103002B07D097F90730114ABC
:104C50001344012283F828200BE097F90630DBB2D9
:104C60000133DBB2BB7197F90630082BCEDD00E0D3
:104C700000BF97F90730DBB20133DBB2FB7197F964
:104C80000730132BB8DD00BF00BF0C37BD465DF801
:104C9000047B7047F40D0020C81C002080B584B050
:104CA00000AF03460A46FB711346BB7197F9072014
:104CB00097F90610194813465B0113449B000344FF
:104CC0000B4436331B78DBB203F00103002B08D012
:104CD000134B1B889BB243F010039AB2104B1A80FF
:104CE00007E00F4B1B889BB223F010039AB20C4BCA
:104CF0001A800023FB730A4B1B889BB203F010033E
:104D0000002B01D00123FB73FB7B1946132017F006
:104D10000BFD00BF1037BD4680BD00BFC81C002082
:104D2000D40F002080B483B000AF00237B602BE061
:104D30001A4A7B68002142F82310194A7B68134401
:104D400000221A70174A7B68134400221A70164A10
:104D50007B68134400221A70144A7B6813440022B3
:104D60001A70134A7B68134400221A70114A7B6838
:104D70001344043300221A700F4A7B681344002244
:104D80001A707B6801337B607B68012BD0DD00BF2C
:104D900000BF0C37BD465DF8047B7047B43500207A
:104DA000C4350020A4350020A8350020B0350020EF
:104DB00024360020941300203036002080B485B0C3
:104DC00000AF03460A46FB711346BB7197F90730E3
:104DD000002B02D1374B1B6801E0374B1B68FB608F
:104DE00097F90730354AD35C5BB2002B32D197F983
:104DF0000730334A9B001344D3ED007AB0EE007ABB
:104E000077EEC77A97ED037AB4EEE77AF1EE10FA0F
:104E100005DB97F907302B4A0121D1541AE02A4BC0
:104E20005B7CDBB207EE903AF8EEE77A97ED037A17
:104E3000B4EEE77AF1EE10FA0CD897F90730234A6E
:104E400013441B795BB2002B04D097F907301D4A3D
:104E50000021D154BB79002B25D097F907301C4A8B
:104E6000D35C5BB2002B0DD01A4B9B689AB297F9BA
:104E700007300933114689000A44520091B2164A9C
:104E800022F8131097F90730002B06D1134B00229C
:104E90001A60124B04221A7105E0114B00221A60AD
:104EA0000F4B04221A7100BF1437BD465DF8047B16
:104EB000704700BF2012002028120020A8350020D3
:104EC000C80F0020C43500201013002094130020C8
:104ED00024360020B4130020C835002040120020E2
:104EE0004C12002080B584B000AF0346FB710EF079
:104EF000EBFB0346FB73FB7B012B66D097F9073076
:104F0000002B02D1334B1B6801E0334B1B68BB60A5
:104F1000324B5B7CDBB207EE903AF8EEE77A97ED26
:104F2000027AB4EEE77AF1EE10FA06D997F9073073
:104F30002B4A52F82330002B06D197F90730022173
:104F4000184600F09FF941E097F90730184600F045
:104F5000B9FD97F90730224A052142F8231097F945
:104F60000730002118460CF0EBFE97F907301D4A78
:104F70000021D15497F90730D7ED027AFDEEE77A98
:104F800017EE901A184A42F82310184B93F8443041
:104F9000DBB2052B01D106F0DBFE97F90730144A8E
:104FA0000321D15497F9072097F9073010490A4493
:104FB000127951B20E4A13440A469A7197F9073092
:104FC0000C4A134400229A7100E000BF1037BD461E
:104FD00080BD00BF201200202812002010130020E6
:104FE000B43500201C36002014360020B4130020F5
:104FF000840C00209413002080B584B000AF0346D9
:10500000FB710EF061FB0346FB73FB7B012B06D0AB
:1050100097F907300121184600F034F900E000BF8D
:105020001037BD4680BDFFFF80B584B000AF03469A
:10503000FB710023BB7300237B730023FB7321E010
:10504000FB7B424AD35CDBB2032B0BD0FB7B3F4A9A
:10505000D35CDBB2042B05D0FB7B3C4AD35CDBB2D8
:10506000052B03D17B7B01337B7308E0FB7B374A45
:10507000D35CDBB2012B02D1BB7B0133BB73FB7B67
:105080000133FB73314B93F84A30DBB2FA7B9A421F
:10509000D6D30023FB7347E02C4B93F84A30DBB2A6
:1050A000BA7B9A4205D197F90F30184600F076F88E
:1050B00037E07B7B002B17D0FB7B244AD35CDBB231
:1050C000012B05D197F90F30184600F067F828E05A
:1050D000FB7B1E4AD35CDBB2022B22D197F90F3047
:1050E0001846FFF789FF1CE0FB7B184AD35CDBB254
:1050F000012B16D0FB7B154AD35CDBB2032B10D0FF
:10510000FB7B124AD35CDBB2042B0AD0FB7B0F4A39
:10511000D35CDBB2052B04D097F90F301846FFF7AC
:105120006BFFFB7B0133FB73084B93F84A30DBB218
:10513000FA7B9A42B0D3FB79012B02D100201DF0FB
:10514000ADFA00BF1037BD4680BD00BF840C002003
:1051500080B584B000AF0346FB710EF0B5FA03468C
:10516000FB73FB7B012B0AD097F90730084A032118
:1051700042F8231097F90730064A0221D15497F9D3
:105180000730054A0021D15400BF1037BD4680BD0D
:10519000B4350020840C00203036002080B584B067
:1051A00000AF0346FB7197F90730274A13449B79F8
:1051B0005BB2B3F1FF3F17D197F90730224A13448E
:1051C0001B795BB2B3F1FF3F07D197F9073018465F
:1051D00000F0A6FA0346FB7312E097F907301A4A6B
:1051E00013441B79FB730BE097F90730164A1344FD
:1051F0009B79FB7397F90730134A1344FF229A7186
:1052000097F90F2097F9073011461846FFF7EAFA89
:1052100097F907300D4A032142F8231097F9073018
:10522000094A0221D15497F90730094A0021D15483
:1052300007F06CF897F90730184603F009F900BF3A
:105240001037BD4680BD00BF840C0020B43500205F
:105250003036002080B483B000AF0346FB71074BAB
:10526000DB68002B04DD97F90730054A0121D15492
:1052700000BF0C37BD465DF8047B7047B4130020B7
:10528000C412002080B483B000AF03460A46FB710D
:105290001346BB7197F907300F4A002142F82310DB
:1052A00097F907300D4A0121D154BB79012B05D163
:1052B00097F907300A4A0121D15407E0BB79022B44
:1052C00004D197F90730074A0121D15400BF0C37A8
:1052D000BD465DF8047B7047B4350020840C002087
:1052E000BC1200201C36002080B584B000AF0346FD
:1052F000FB710023BB810023FB811CE0FB895AB2B8
:1053000097F907301146184600F05AFB0346FB7226
:10531000FB7A012B09D1B7F90E300C4AD35C5BB292
:105320009AB2BB8913449BB2BB81B7F90E309BB2D2
:1053300001339BB2FB81B7F90E30132BDEDDB7F9D9
:105340000C3018461037BD4680BD00BF88140020C1
:1053500080B584B000AF0346FB71132200211448CE
:105360002AF0ADFE97F90730A22202FB03F3114A9F
:105370001344102219460E482AF094FE0C482AF0D5
:1053800038FF0346BB60BB68FB6008E00A4AFB6865
:105390001344023320221A70FB680133FB60FB6860
:1053A000112BF3DD00BF00BF1037BD4680BD00BF2D
:1053B000F60D002018270020F40D002080B584B0E1
:1053C00000AF03460A46FB711346BB7197F90730DD
:1053D00097F9062001321201A22101FB03F31344C5
:1053E0000F4A1344102219460E482AF05BFE0D485E
:1053F0002AF0FFFE0346BB60BB68FB6008E00A4A78
:10540000FB681344153320221A70FB680133FB60DC
:10541000FB68112BF3DD00BF00BF1037BD4680BD18
:1054200018270020090E0020F40D002080B485B05C
:1054300000AF5F4B002283F844205E4B1B78FB716A
:1054400097F907205C4913465B0013449B000B440B
:105450001B78DBB2022B58D197F907205649134627
:105460005B0013449B000B4409331B787B7197F955
:10547000072097F90510514813465B0113440B446C
:10548000103350F82330FB6097F907204B4913463F
:105490005B0113449B000B447C331B78DBB2012B74
:1054A00015D17B790133DBB2BB7197F90630082B3C
:1054B0000DDC97F9072097F90610404813465B0169
:1054C00013440B4450F82330FA68D31AFB60FA688F
:1054D00013469B0013445B0007EE903AF8EEE77A20
:1054E000C7ED027A97F9072097F90510334813465C
:1054F0005B0113449B0003440B446D331B78DBB208
:105500005AB22B4B83F8442047E00023FB6097F905
:105510000720294913465B0013449B000B440433C6
:105520001B68BB6097F90720244913465B011344AD
:105530009B000B447C331B78DBB2012B22D197F903
:1055400007201D4913465B0013449B000B4408339E
:105550001B785BB2DBB20133DBB2BB7197F906306B
:10556000082B0FDC97F9072097F90610134813460C
:105570005B0113440B4450F8232013469B00134453
:105580005B00FB60FB6807EE903AF8EEE77A97ED78
:10559000027A77EE677AC7ED027ABB6807EE903A37
:1055A000B0EE670A1437BD465DF8047B704700BF54
:1055B000840C0020F40D0020040D0020C81C0020E5
:1055C00080B485B000AF0346FB7197F90720084906
:1055D00013465B0113449B000B4424331B88FB815F
:1055E000B7F90E3018461437BD465DF8047B704796
:1055F000C81C002080B485B000AF0346FB714FF497
:105600008773BB810023FB7334E097F9072097F978
:105610000F101E4813465B0113440B4450F823300F
:10562000002B21DD97F9072097F90F101748134633
:105630005B0113445B000B4410335B0003449B8805
:105640001BB2B7F90C209A420EDA97F9072097F9A6
:105650000F100E4813465B0113445B000B441033DC
:105660005B0003449B88BB8197F90F30DBB20133A9
:10567000DBB2FB7397F90F30082BC6DDB7F90C309E
:1056800018461437BD465DF8047B7047C81C0020DF
:1056900080B584B000AF0346FB714FF48773BB81C4
:1056A0000023FB7331E097F90F2097F9073011467B
:1056B000184600F085F90346FB72FB7A012B21D1D5
:1056C000FA7B164913465B0113449B000B441B688D
:1056D000002B17DDFA7B114913465B0113449B0035
:1056E0000B4424331B881BB2B7F90C209A4209DA09
:1056F000FA7B0A4913465B0113449B000B44243395
:105700001B88BB81FB7B0133FB73FB7B132BCAD94B
:10571000B7F90C3018461037BD4680BDC81C0020B4
:1057200080B584B000AF0346FB71FF23BB7340F22A
:105730008B13BB810023FB7339E097F90F2097F996
:1057400007301146184600F03BF90346FB72FB7A1E
:10575000012B26D197F90F20214913465B011344F1
:105760009B000B441B68002B1BDD97F90F201C4985
:1057700013465B0113449B000B4424331B881BB26C
:10578000B7F90C209A420CDD97F90F201449134603
:105790005B0113449B000B4424331B88BB81FB7BC0
:1057A000BB7397F90F30DBB20133DBB2FB7397F9B0
:1057B0000F30132BC1DD97F90E30B3F1FF3F08D145
:1057C00097F90730002B02D10023BB7301E00523BA
:1057D000BB7397F90E3018461037BD4680BD00BF29
:1057E000C81C002080B485B000AF0346FB71FF23C6
:1057F000FB73FB79083B172B6ED801A252F823F0FC
:10580000D3580100CD58010097580100915801006C
:10581000D9580100D9580100D9580100D9580100C0
:105820008B580100855801007F580100795801000C
:10583000735801006D58010067580100615801005C
:10584000C7580100C1580100BB580100B5580100FC
:10585000AF580100A9580100A35801009D5801004C
:105860000023FB7338E00123FB7335E00223FB7355
:1058700032E00323FB732FE00423FB732CE00523AA
:10588000FB7329E00623FB7326E00723FB7323E069
:105890000823FB7320E00923FB731DE00A23FB733D
:1058A0001AE00B23FB7317E00C23FB7314E00D23AA
:1058B000FB7311E00E23FB730EE00F23FB730BE071
:1058C0001023FB7308E01123FB7305E01223FB7325
:1058D00002E01323FB7300BF97F90F30184614370B
:1058E000BD465DF8047B704780B485B000AF0346C9
:1058F000FB71234B93F84A30DBB2012B01D8002314
:1059000038E097F90730132B30D801A252F823F072
:10591000615901006159010061590100615901009B
:105920006159010067590100675901006759010079
:10593000675901006759010061590100615901006F
:105940006159010061590100615901006759010065
:105950006759010067590100675901006759010043
:105960000023FB7304E00123FB7301E0FF23FB73BF
:1059700097F90F3018461437BD465DF8047B704721
:10598000840C002080B485B000AF0346FB71012376
:10599000FB7397F90720094913465B0113449B00E9
:1059A0000B441B68002B01DD0023FB73FB7B1846B7
:1059B0001437BD465DF8047B704700BFC81C00204B
:1059C00080B485B000AF03460A46FB711346BB7135
:1059D000284B93F84A30DBB2012B01D8012343E076
:1059E0000023FB7397F90630132B3CD801A252F821
:1059F00023F000BF455A0100455A0100455A0100F5
:105A0000455A0100455A0100535A0100535A0100FA
:105A1000535A0100535A0100535A0100455A0100DC
:105A2000455A0100455A0100455A0100455A0100F6
:105A3000535A0100535A0100535A0100535A0100AE
:105A4000535A010097F90730002B09D10123FB734A
:105A500006E097F90730012B04D10123FB7301E025
:105A600000BF00E000BFFB7B18461437BD465DF861
:105A7000047B7047840C002080B500AF0F4B1B885F
:105A80009BB203F01003002B03D0002117200CF071
:105A9000B9F81AF077F8094B1B889BB223F008037A
:105AA0009AB2064B1A80064B002283F85720044B0B
:105AB000002283F8582000BF80BD00BFD80F00200F
:105AC000840C002080B584B000AF0346FB71002336
:105AD000BB730023FB731BE097F90F2097F9073086
